:100000000C947B060C942A2E0C9498060C9498065B
:100010000C9498060C9498060C9498060C949806E8
:100020000C9498060C9498060C945E290C941A294A
:100030000C945B2A0C9498060C9498060C949806E1
:100040000C9498060C9498060C9498060C949806B8
:100050000C9498060C94372A0C9498060C949806E5
:100060000C9498060C9498060C9498060C94980698
:100070000C9498060C9498060C9498060C94980688
:100080000C9498060C9498060C9498060C94980678
:100090000C9498060C9498060C9498060C94980668
:1000A0000C9498060C9498060C9498062C002A0040
:1000B00007000B00120000002A0007000B001200CE
:1000C00000002C002A000A001000160000002A0080
:1000D0000A001000160000002C002A001200150073
:1000E0001C0000002A00120015001C0000002C005B
:1000F0002A00050000002C002A000C000F001A0046
:1001000000002A000C000F001A0000002C0008005C
:1001100010001700000008001000170000002C005D
:100120000700110000002C002A000C0017001A0024
:1001300000002C002A0009000B00150000002C0014
:100140002A000500110000002A000500110000002F
:100150002C002A0011001A0000002A0011001A00C9
:1001600000002C002A0004000B00170000002C00E7
:100170002A0009001000170000002C002A000C00C3
:10018000100000002A000C001000000006001A00F9
:1001900000002C002A000A000B00120000002A00B8
:1001A0000A000B00120000002C002A0007001100BA
:1001B000120000002C002A00040017001A000000A2
:1001C0002C002A001000160000002A001000160063
:1001D00000002C002A000700160000002A0007007B
:1001E000160000002A000B000C00170000002C0075
:1001F0002A0004001200170000002A000400120068
:10020000170000002C002A001000170000002A0030
:100210001000170000002C002A0008001A0000003F
:100220002A0008001A0000002C002A000400070021
:100230000B0000002C000800150019000000080049
:100240001500190000002C002A0012001500000003
:100250002A001200150000002C002A0006000F00E2
:10026000120000002A0006000F00120000002C00FF
:100270002A000500180000002A00050018000000F0
:100280002C001200170000002C002A000B001A009E
:1002900000002A000B001A0000002C002A000900B0
:1002A000100000002A000900100000002C002A00A5
:1002B0000A00120000002A000A00120000002C00B0
:1002C0002A000A00110000002A000A0011000000A4
:1002D0002C002A000400150000002A00040015006C
:1002E00000002C002A000F0012001A0000002A0053
:1002F0000F0012001A0000002C002A0007000B005B
:1003000000002A0007000B0000002C002A00080053
:100310000B001500170000002A0008000B00150054
:10032000170000002C002A000B0012001500170017
:1003300000002A000B0012001500170000002C001E
:100340002A000B0017001C0000002A000B001700F9
:100350001C0000002C002A001200170000002A00D8
:100360001200170000002C002A000C0016001700D5
:1003700000002A000C001600170000002C002A00C4
:100380000B001200170000002C000B0019000000E9
:100390000B00190000002C002A0004000F000000D0
:1003A0002A0004000F0000002C002A0008000B00A7
:1003B000150000002A0008000B00150000002C00AA
:1003C0002A000800160000002A000800160000009D
:1003D0002C002A000B000C00170000002C002A0043
:1003E0000F00120000002A000F00120000002C0075
:1003F0002A00170000002C002A0004001A00000048
:100400002A0004001A0000002C002A000900150030
:1004100000002A000900150000002C002A000C0032
:100420001A0000002A000C001A0000002C002A000C
:100430001100120000002A001100120000002C0020
:100440002A001100170000002A0011001700000008
:100450002C002A0018001C0000002A0018001C00B4
:1004600000002C002A000B00160000002A000B00E0
:10047000160000002C002A0009000B0017000000E5
:100480002C002A000400170000002A0004001700B6
:1004900000002C002A000B00150000002A000B00B1
:1004A000150000002C002A000A000C0000002A00A1
:1004B0000A000C0000002C002A00040007000000C5
:1004C0002A000400070000002C002A000B0017007F
:1004D00000002A000B001700000073686F756C6441
:1004E000200073686F756C6400736F6D6574686964
:1004F0006E672000736F6D657468696E6700796F51
:1005000075722000796F757200746F20626520002B
:1005100077696C6C200077696C6C007468656D207D
:10052000007468656D00646F206E6F7420007769D9
:100530007468207468652000666F72207468652096
:10054000006265656E20006265656E007768656EA5
:1005500020007768656E006174207468652000660D
:10056000726F6D20746865200068696D200068698D
:100570006D0077686963680074686F75676820004C
:1005800074686F75676800646964206E6F7420001A
:100590006974207761732000736F6D652000736F3D
:1005A0006D6500736169642000736169640074683B
:1005B0006569720061626F7574200061626F7574A5
:1005C000006D656E7420006D656E740077657265F0
:1005D00020007765726500616E6420746865200094
:1005E00065766572200065766572006F7572200011
:1005F0006F757200636F756C642000636F756C6457
:10060000006275742000627574006F6E20746865F6
:100610002000776861742000776861740066726FEB
:100620006D200066726F6D006F75676820006F75D2
:100630006768007468696E6720007468696E670097
:10064000617265200061726500776F756C642000CF
:10065000776F756C64006861642000686164007481
:100660006865726520007468657265006F746865FE
:100670007220006F74686572007468657920007478
:10068000686579006F757420006F7574007468690F
:100690007320007468697300746F207468652000AB
:1006A0006861766520006861766500616C6C200089
:1006B000616C6C0068657265200068657265007326
:1006C0006865200073686500696E207468652000A5
:1006D0006F756C6420006F756C6400746F20007718
:1006E0006173200077617300666F722000666F721D
:1006F0000077697468200077697468006E6F7420F1
:10070000006E6F740074696F6E200074696F6E0004
:10071000796F752000796F750068697320006869CA
:1007200073006F662074686520007468617420002F
:100730007468617400686572200068657200696E93
:10074000672000696E6700616E642000616E64005E
:1007500074686520007468650045003A003B003C01
:10076000003D003E00567C350014001A00090013BD
:100770000005002B00390004001500160017000AC0
:1007800000A152A8521D001B00060007001900A47A
:10079000521D011C012B042B05A2522C0082524435
:1007A0000043004200410040003F00577C310033CD
:1007B000001C0018000F000D002800340012000C6F
:1007C000000800110010004C002D003800370036E2
:1007D000000B000E00290030002F004D004A00B22F
:1007E000522A0083520100010001000100010001B2
:1007F000000100010014001A000800150017000194
:1008000000010004001600070009000A00010001B1
:10081000001D001B00060019000500010001000179
:1008200000010001000100010001000100010001C0
:100830000001000100010001000100130012000C82
:100840000018001C000100010033000F000E000D15
:10085000000B0001000100380037003600100011C5
:100860000001000100010001000100010001000180
:100870000024525300460047004800BD00537CA8A6
:1008800000077E087E2F023002BE000100A9002F63
:100890000030002602270249000100AA0004011BC3
:1008A000010601190119050100010024520100018E
:1008B0000001000100010061521E022002240223F7
:1008C00002057E547C210222022600250024000617
:1008D0007E01005700550023002200210036000150
:1008E000005600540020001F001E002E000100B220
:1008F000005800370027005800010001002452ACC6
:1009000000AE00AD00AB000100537C245201000199
:1009100000520065004C0501004B000100500051E1
:10092000004F00010001004E0004011B01060119E7
:100930000119050100010024522B132B012A01018A
:10094000000100615201000100010001000100549A
:100950007C46002F00300026022702077E0100019E
:1009600000E700E600E500E400087E010001001E4B
:10097000021F022002240223020100547C537C0146
:1009800000010001000100010000003A003B003CB2
:10099000003D003E0000000000007C000000000060
:1009A0000000000000000000000000000000000047
:1009B00000010000000000000000000000007C00BA
:1009C0000000000000000000000000000000000027
:1009D0000043004200410040003F000000000000D2
:1009E0000000000000000000000000000000000007
:1009F00000000000000000010000000000000000F6
:100A0000000000007C00000000000000000000006A
:100A100000000000000001010101010101010102CB
:100A2000020202020202020203030303030303039E
:100A30000404040404040405050505050606060669
:100A400006070707070708080808090909090A0A25
:100A50000A0B0B0B0C0C0C0D0D0D0E0E0E0F0F0FC9
:100A60001010111111121213131414151516161754
:100A700017181819191A1A1B1B1C1D1D1E1E1F20C2
:100A800020212222232424252626272829292A2B0F
:100A90002C2D2D2E2F303132323334353637383934
:100AA0003A3B3C3D3E3F404142434445464748492E
:100AB0004A4C4D4E4F50515354555658595A5B5D00
:100AC0005E5F616264656668696B6C6D6F7072739E
:100AD0007577787A7B7D7E8082838587888A8C8E05
:100AE0008F91939596989A9C9EA0A2A3A5A7A9AB37
:100AF000ADAFB1B3B5B7BABCBEC0C2C4C6C9CBCD29
:100B0000CFD1D4D6D8DBDDDFE2E4E7E9EBEEF0F3DA
:100B1000F5F8FAFDFF0000000000000000000000F2
:100B200000000000000000000000000000000000C5
:100B30000000000000000000007E0F00D4FFFFFF57
:100B4000C70000007800000000000000002A2B28E9
:100B50000000000000000000000000000000000095
:100B600029000000002C1E342021222434262725B1
:100B70002E362D3738271E1F2021222324252633E9
:100B800033362E37381F0405060708090A0B0C0DEB
:100B90000E0F101112131415161718191A1B1C1DFD
:100BA0002F3130232D350405060708090A0B0C0DDB
:100BB0000E0F101112131415161718191A1B1C1DDD
:100BC0002F3130354C05010902A10185020901A12F
:100BD00000050919012908150025019508750181ED
:100BE000020501093009311581257F9502750881BB
:100BF0000609381581257F950175088106050C0ABF
:100C000038021581257F950175088106C0C0050150
:100C10000980A101850319012AB700150126B70033
:100C2000950175108100C0050C0901A10185041909
:100C3000012AA002150126A002950175108100C0AD
:100C400005010906A101050719E029E7150025019D
:100C50009508750181029501750881010507190044
:100C600029FF150026FF0095067508810005081963
:100C7000012905950575019102950175039101C042
:100C800009023B00020100A0FA090400000103016F
:100C9000010009211101000122400007058103081C
:100CA00000010904010001030000000921110100F5
:100CB00001227B00070582032000011201000200CF
:100CC000000008444D44520001010200010C03528F
:100CD00000650064006F00780000001403460061A6
:100CE000006C006200610074006500630068000031
:100CF00000040309040011241FBECFEFDAE0DEBFB9
:100D0000CDBF14E0A0E0B1E0EAE9F1E602C0059051
:100D10000D92AC37B107D9F72AE0ACE7B4E001C0D7
:100D20001D92AA33B207E1F70E94822A0C9409307F
:100D30000C940000FC01AC014B5F5F4F8FEF91E31F
:100D40002191822728E030E087FF09C0880F89279A
:100D500021503109C9F7E417F50791F70895880F75
:100D6000F7CFE8EDF0E080818E7F80831092E20083
:100D70001092DA001092E100A0EEB0E08C91816058
:100D80008C9380818F77808319BCA7EDB0E08C9124
:100D90008E7F8C9380818F7E80831092200A0895AD
:100DA0002091E4003091E50095E6A9012091EC0046
:100DB000822F817020FF06C08091E80080FF06C06E
:100DC00080E008952091E80022FD1AC080912D0A4C
:100DD000882389F0853089F08091EB0085FD0FC074
:100DE0002091E4003091E50042175307F9F2915049
:100DF000E1F684E0089582E0089583E0089581E0BB
:100E0000089580912F0A87FF13C08091E80082FF28
:100E100006C08091E8008B778093E80004C0809141
:100E20002D0A8111F2CF089580912D0A8823D9F3DC
:100E30008091E80080FFF8CF8091E8008E77ECCFBA
:100E4000982F9093E900242F762F50E0891731F0E6
:100E50007091EC002091ED005091F00021FD07C051
:100E60009F5F973071F78093E90081E0089530919A
:100E7000EB003E7F3093EB003091ED003D7F3093EF
:100E8000ED003091EB0031603093EB007093EC009B
:100E90002093ED005093F0002091EE0027FDE0CF6D
:100EA00080E00895B0E0A0E0E8E5F7E00C94502F72
:100EB000C8EDD0E088818F7E8883E7EDF0E0808107
:100EC0008160808384E082BF81E08093200A8881F2
:100ED0008E7F888302EE10E0F80110821092DA0013
:100EE00081EEC82ED12CF601108288818F778883FD
:100EF00088818068888388818F7D888319BC10925F
:100F00002D0A10922E0A10922C0A10922B0A90EEA3
:100F1000E92EF12CF70180818B7F808388818160AD
:100F2000888342E060E080E00E942007F601808133
:100F30008E7F8083F80180818160808380818860DA
:100F40008083F70180818E7F8083888180618883A0
:100F5000CDB7DEB7E8E00C946C2FFC018091350A28
:100F60009091360A86179707A0F06115710529F44C
:100F70009091E8009E779093E80090E061157105EC
:100F800051F4911108C08091E80082FF34C080E0E4
:100F90000895BC01F2CF80912D0A8823C1F18530DC
:100FA000C1F18091E80083FD30C08091E80082FDAE
:100FB000EACF8091E80080FFE1CF8091F30020919B
:100FC000F200382F6115710519F02830310558F0FD
:100FD00091E02830310509F090E02091E8002E776B
:100FE0002093E800CBCF81918093F100615071098B
:100FF0002F5F3F4FE7CF80912D0A882341F0853046
:1010000041F08091E80083FFBECF81E0089582E047
:10101000089583E008958091220A08959C014FB7B6
:10102000F89480911C0A90911D0AA0911E0AB0911B
:101030001F0A4FBF821B930B08952FB7F89460913E
:101040001C0A70911D0A80911E0A90911F0A2FBFE1
:1010500008952FB7F89480911C0A90911D0AA091D1
:101060001E0AB0911F0A2FBF0895A3E0B0E0EBE382
:10107000F8E00C94562F2091190A30911A0A28177B
:101080003907A1F090931A0A8093190AE091170A80
:10109000F091180A309751F024E029839B838A83CA
:1010A0000680F781E02DCE01019609952396E2E0B6
:1010B0000C94722FA3E0B0E0E0E6F8E00C94562F19
:1010C0002091150A3091160A28173907A1F090933C
:1010D000160A8093150AE091170AF091180A3097C2
:1010E00051F023E029839B838A830680F781E02DDA
:1010F000CE01019609952396E2E00C94722FDC0153
:101100006091110A8091120A962F891301C00895E7
:10111000292F30E0F901EE0FFF1FE75FF54F408107
:1011200051814A175B07A1F487E08A9FA0018B9F3A
:10113000500D1124435D5E4F81E0FA0184839613C4
:10114000E6CF2F5F3F4F237033272093110A089576
:101150002F5F3F4F922F9370D8CF1092A509109216
:10116000A409EDE2F1E08581811102C014821682AA
:10117000379684E0EF32F807B1F70895FA0181114C
:1011800001C0FB010995089580919B09982F9E7FCE
:1011900039F480919B098170826080939B09089546
:1011A0008430B8F708950E9429089C0190916A093B
:1011B00080916B09982B21F0309367092093660981
:1011C00090916C0980916D09982B21F030936509FD
:1011D00020936409E091170AF091180A309749F0BA
:1011E00082E0809368090480F581E02D88E699E02B
:1011F000099508958091630980FD16C081FD16C090
:1012000082FD16C0809162098823A1F0883280F4A3
:1012100028E0829FC001112468E270E00E94912FB3
:10122000862F672B39F0089582E0089584E00895B1
:1012300088E0089581E008958091630980FD14C0DD
:1012400081FD14C082FD16C080916109882381F060
:101250008E3180F420E5829FC00111246EE170E0A0
:101260000E94912F862F089584E1089588E20895C1
:1012700088E0089580E5089580E00895F894E82FC7
:10128000E295EF70F0E031A1282F2F7081E090E01F
:1012900001C0880F2A95EAF7982F9095932391A380
:1012A00092A1892B82A3789408959091460992FF88
:1012B00006C0282F28712830F9F4877F846093FFB7
:1012C00006C0282F28712831F1F4877E846120918F
:1012D000470920FF06C0382F38713830D9F4877F8E
:1012E000816021FF06C0282F28712831D1F4877E24
:1012F000816194FD877E0895282F24712430F9F6AA
:101300008B7F8860DCCF282F2471243101F78B7EFE
:101310008861DDCF382F3171313019F78E7F8860C9
:10132000E0CF282F2171213121F78E7E8861E1CF16
:10133000972F7A30B8F46730A8F4853098F470E0CD
:1013400027E0929F600D711D1124FB0196E4899F97
:10135000E00DF11D1124EE0FFF1FE75AF84F8591A4
:101360009491089580E090E00895CF93DF93EC018D
:1013700082389105B9F108F041C08133910509F433
:101380009FC050F58932910509F48FC08A9709F4FE
:101390009EC0C11520E5D20708F0BDC0C11530E4DC
:1013A000D30708F00AC1C03ED10508F0A5C0CD3C66
:1013B000D10508F000C1C83AD10508F08FC0C53A80
:1013C000D10508F0F0C0C130D10539F1209729F1DD
:1013D000C430D10510F546C08533910509F460C0CD
:1013E000C997B9F680914609837009F044C180918C
:1013F000470983FF12C0C9E2D0E00FC0833E9105C8
:10140000A1F178F4803E910509F1823E910509F041
:10141000C0CF8091460982FD21C0CE01DF91CF91DE
:101420000895863E910561F1873E910571F1843EF4
:10143000910509F0AECF8091470981FFEECF8091F1
:101440004609C7EED0E084FD0DC0E7CF8091460984
:1014500080FD33C09091470990FFDFCFC3EED0E00D
:1014600084FFDBCFD0E0C0E0D8CF8091460982FD79
:10147000FFC09091470990FDFEC084FFCECFF2CF10
:101480008091460983FDDDCFC8CF8091460983FD59
:10149000F5C09091470991FFF0CFC4EED0E0BDCFE9
:1014A0008091460985FFB9CFA6CF8091460985FD79
:1014B000E8C08091470983FFB0CFC9E3D0E0ADCF4A
:1014C0008091460986FFA9CFCAE2D0E0A6CF8091DD
:1014D000460986FFA2CFC1E3D0E09FCFC13CD10532
:1014E00008F6C85AD0E0CC0FDD1FC75CDB4F09906F
:1014F000D881C02DD46491CFC11540E2D40708F043
:10150000AAC0C11581E0D80708F087CFC83ED10531
:1015100008F483CFA7CFC03622E5D20718F5C03430
:1015200032E5D30708F053C0C03242E5D40708F0D3
:1015300047C0C11582E5D80708F47FC02C2F269537
:10154000269540E2249F900111248C2F8370C1E0E6
:10155000D0E002C0CC0FDD1F8A95E2F7C22BD32B5F
:10156000DD685BCFC03A22E5D20760F4C03832E5CF
:10157000D30708F441C0CF71D0E0DC2FCC27C46F73
:10158000D06A4BCFC03C42E5D40708F44AC0C03E05
:1015900082E5D80708F066CFDC2FCC27CC27DF7197
:1015A000C06FD06A3ACFC55AD0E0CA5CDB4FC88161
:1015B000D0E0D06432CFD06530CFDF70D06A2DCF8D
:1015C000CF71D0E0DC2FCC27C16FD06A26CF2C2F73
:1015D00026952695277080E2289F900111248C2F54
:1015E0008370C1E0D0E002C0CC0FDD1F8A95E2F726
:1015F000C22BD32BDC6811CF2C2F26952695277074
:1016000040E2249F900111248C2F8370C1E0D0E030
:1016100002C0CC0FDD1F8A95E2F7C22BD32BDA680C
:10162000FCCE8C2F8F710E945509C82FD0E0DC2F83
:10163000CC27CC27DF71D062F0CE8C2F8F710E9427
:10164000550935E0D695C7953A95E1F7CF709C2FAF
:10165000EC01D069E2CE8D2F8F710E94550990E088
:10166000982F882788279F719C012C2BE901E3CFB5
:10167000C2EED0E0D2CEC0EED0E0CFCEC6EED0E00B
:10168000CCCEC5E3D0E0C9CE809102098111109281
:10169000020908958091A30981110FC01092A00939
:1016A0000E94440B0E94290888579C4E9093A209DF
:1016B0008093A10981E08093A3090895809590917A
:1016C000A00998239093A0090895E0E8F4E091918F
:1016D000891303C0DF0111971C9294E0E638F907E3
:1016E000B1F70895A0E8B4E0EFEF90E02D918217F4
:1016F00051F0EF3F19F4211101C0E92F9F5F96309F
:10170000A9F7EF3F09F408950E2E000CFF0BE258E5
:10171000FB4F828308958091F8089091B708981341
:1017200001C008958F5F8770FACFB0E0A0E0EBE9C9
:10173000FBE00C944F2F7C01009144091091450966
:101740008091030990910409082B192BCFE0D0E078
:10175000CC24C394D12CBC2EC6010C2E02C0880F01
:10176000991F0A94E2F780239123892B49F421974A
:1017700090F7B12C8B2DCDB7DEB7E9E00C946B2F31
:10178000B7018C2F0E9498090E94B509019779F33F
:10179000F1CFCF93DF93EC010E94950BBE010E9425
:1017A00098090E94B509DF91CF9108959A3078F594
:1017B000873068F5E82FF0E087E0989FE00DF11D95
:1017C00011249E2F977083E0F695E7958A95E1F7AF
:1017D000EE0FFF1FEE0FFF1FE557F74F50E040E001
:1017E00080E0219130E0092E02C0369527950A94B9
:1017F000E2F721703327042E01C0220F0A94EAF782
:10180000822B4F5F5F4F4430510559F7089580E0B8
:1018100008959A3098F5873088F5E82FF0E087E052
:10182000989FE00DF11D11248E2F877041E001C0BB
:10183000440F8A95EAF783E0F695E7958A95E1F7F4
:10184000EE0FFF1FEE0FFF1FE557F74F30E020E0D0
:1018500070E05191DF011197CB01022E02C09695E5
:1018600087950A94E2F781708195852784238527DF
:101870008C932F5F3F4F2430310559F70895909393
:10188000450980934409089521E030E002C0220F09
:10189000331F8A95E2F72095309580914409909105
:1018A0004509822393230E943F0C08959091F908E3
:1018B000809589238093F908282F277091F4282F89
:1018C000082E000C330B9217130659F0909147091C
:1018D00092FF07C08595859585950E94440C1092CE
:1018E000F908089521E030E002C0220F331F8A95E5
:1018F000E2F78091440990914509822B932B0E9435
:101900003F0C08959091470992FF07C098E0899F86
:1019100090011124622B6093F9080E94720C0895C3
:1019200090930409809303090895FC0183819481B5
:10193000892B29F08081918189238F3FF1F480E008
:1019400008950E94B50992959F70963089F058F4D9
:10195000925F9F70923098F7803F19F030F4883E84
:1019600070F781E008959A5FF4CF843F41F7F9CF93
:10197000883EB8F3813F19F7F4CF868197810097AD
:1019800001F7808191810E94C90BDDCF662309F4A4
:101990005DC08D3C41F40E941C09819580936B09C8
:1019A0000E94D30808958E3C19F40E941C09F6CFBA
:1019B0008F3C31F40E941C09819580936A09F0CF15
:1019C000803D19F40E941C09F8CF893D29F40E943A
:1019D000FA0880936C09E4CF8A3D21F40E94FA084A
:1019E0008195F7CF8B3D31F40E94FA088195809361
:1019F0006D09D6CF8C3D19F40E94FA08F8CF9FE20A
:101A0000980F983070F4815D990B21E030E001C0AF
:101A1000220F8A95EAF780916909822B80936909E0
:101A2000BFCF8D3D31F4809163098160809363095C
:101A3000B7CF8E3D21F4809163098260F7CF8F3D4F
:101A400009F0AECF809163098460F0CF40916A09BC
:101A50008D3C59F480916B0987FF0DC010926B0982
:101A600041110BC01092610908C08E3C81F4809135
:101A70006B0918169CF3442381F080916C099091B6
:101A80006D09892B09F08CCF1092620989CF8F3CA8
:101A900049F447FFF0CF10926A0980916B098111D8
:101AA000ECCFE0CF803D19F41416ACF3E4CF909165
:101AB0006C09893D29F41916F4F610926C09DBCFF4
:101AC0008A3D19F497FFD7CFF8CF90916D098B3DE0
:101AD00029F497FFD0CF10926D09CDCF8C3D19F42A
:101AE0001916CCF3C8CF9FE2980F983090F4815D1F
:101AF000990B21E030E0B90102C0660F771F8A958B
:101B0000E2F7CB0180959091690989238093690957
:101B1000B2CF8D3D31F4809163098E7F809363094C
:101B2000AACF8E3D21F4809163098D7FF7CF8F3D41
:101B300009F0A1CF809163098B7FF0CFA5E0B0E0E1
:101B4000E4EAFDE00C94552F9C01FC01868197810D
:101B50000097E1F485E0DE01119601900D928A95DF
:101B6000E1F7F901228189819A81222399F0662384
:101B700089F00E94950B182F682F89819A810E9405
:101B8000090C69817A81812F0E9498092596E3E0EA
:101B90000C94712F0E94D60B182FF3CF82E0FB011B
:101BA000099508950F931F93CF93DF938B01EA015B
:101BB00090912D0A943061F58093E9008FEF909118
:101BC000E800815095FD06C095ED9A95F1F700006B
:101BD0008111F5CF8091E80085FF1AC00E94D006E0
:101BE000811111C08091E80085FD06C08091E80058
:101BF0008E778093E800F2CFF80181918F01809376
:101C0000F100219779F78091E8008E778093E800C2
:101C1000DF91CF911F910F91089543E050E0BC01F7
:101C200082E00E94D20D089546E050E0BC0182E0BF
:101C30000E94D20D0895CF93DF93EC0148E050E06D
:101C4000BC0181E00E94D20D88E0FE01A3E2BAE06F
:101C500001900D928A95E1F7DF91CF9108958091DF
:101C60009B0980FD0AC0E1E7F9E01182108212822F
:101C7000339659E0EB39F507C1F7539A3BB1377FFB
:101C80002BB128604FB7F89481E799E0FC0151919E
:101C9000CF0168E02BB9000000C057FF3BB9550FDA
:101CA000000000C000C000C03BB900C06A9591F7B9
:101CB000F9E08B399F0751F74FBF8FE594E001970B
:101CC000F1F700C000000895B0E0A0E0EAE6FEE011
:101CD0000C944E2F7C015B016A018091330901E075
:101CE00010E08A3010F40AE010E0C1E0D0E0B50165
:101CF000C701F6010995811104C021960C171D0733
:101D00002CF4CDB7DEB7EAE00C946A2FCC9F90019B
:101D1000CD9F300D300D112490E080E045E34A95D1
:101D2000F1F70000019682179307C1F7E0CF809189
:101D30000F09811110C08091D80080618093D80074
:101D40008AE18A95F1F700C08091D90080FF0AC02E
:101D500081E080930F0981E090910F09913009F0A3
:101D600080E0089582E080930F090E94B1061092EE
:101D70002D0AF1CF0E94970E882359F0E091170A9F
:101D8000F091180A309729F00190F081E02D099523
:101D9000089580E00895CF92DF92EF92FF926B0159
:101DA0007C010E94C408B701A60188E090E00E946F
:101DB000D12FFF90EF90DF90CF900895B0E0A0E09A
:101DC000E4EEFEE00C944C2FD82FC62F142F822E59
:101DD00000919B0900FF4AC080919C098D1308C0A7
:101DE00080919D09861304C080919E09841729F073
:101DF00080917009826080937009E02FE695F0E091
:101E0000E758FB4F808180936E09802F8E7F823050
:101E1000D9F4E12FF0E0EB5EF54FC1112CC0249115
:101E2000F22FE22F00FF10C0A1E7B9E01196EC936A
:101E300011972C931296FC931297139689E0AB3965
:101E4000B807A1F70E942F0ED0939C09C0939D095B
:101E500010939E09882051F060919B0970919C0914
:101E600080919D0990919E090E94CB0ECDB7DEB75F
:101E7000ECE00C94682FEC2EF12CE4919E2ECE2EEB
:101E8000D12C26E0D29FC00111242FEF30E0B90100
:101E90000E947D2F8D2F90E0880F991FF5E5F69F0A
:101EA000A001F79F500D1124841B950BB82EBB0C7D
:101EB000B80EA9014E195F094C9DC0014D9D900DB2
:101EC0005C9D900D1124F92FCB9DA0011124452F6D
:101ED0005527D901A41BB50BAC9DA001AD9D500D9C
:101EE000BC9D500D1124D901AB19B1095D01AE9C07
:101EF000D001AF9CB00DBE9CB00D1124AB2FBB2701
:101F00002A1B3B0B2C9DD0012D9DB00D3C9DB00D8F
:101F100011242B2F62307105A1F050F46115710569
:101F200009F480CF6130710581F0292FF52F7ACF28
:101F30006430710569F080F06630710509F472CF84
:101F4000F4CF2E2FE92FFB2F6DCF2E2FE52F6ACF49
:101F5000292FFE2FEB2F66CFE92FF92D252F62CFEA
:101F6000EBE9F9E0438121E1421B08F440E021E084
:101F7000628181810E94DE0E0895EBE9F9E04381E0
:101F800021E1420F08F44FEF21E0628181810E943C
:101F9000DE0E0895EBE9F9E0628121E1621B08F4AD
:101FA00060E021E0438181810E94DE0E0895EBE92B
:101FB000F9E0628121E1620F08F46FEF21E04381D3
:101FC00081810E94DE0E0895EBE9F9E0818121E034
:101FD0004381628188500E94DE0E0895EBE9F9E0AA
:101FE000818121E043816281885F0E94DE0E089535
:101FF00080919F09882319F0815080939F096091F7
:102000009B0970919C0980919D0990919E090E9465
:10201000CB0E089580919F09833018F48F5F8093D1
:102020009F0960919B0970919C0980919D099091F5
:102030009E090E94CB0E089580919B0980FF1EC0CF
:102040008170826080939B09809170098160809388
:102050007009662351F060919B0970919C098091F1
:102060009D0990919E090E94CB0E20E040919E090F
:1020700060919D0980919C090E94DE0E08958091D7
:102080009B098695815009F481E061E00E941C1053
:10209000089561E081E00E941C100895EBE9F9E0E9
:1020A00083E0808311828FEF828383831482AEE684
:1020B000B9E012968C911297836012968C9360818E
:1020C0007181828193810E94CB0E08958091A00935
:1020D0009091A609892B80937E04909102099923FF
:1020E00091F0892B80937E0420E080E894E0FC014D
:1020F0003191CF0131112F5FF4E086389F07B9F796
:1021000021110E94440B48E050E06AEF78E08EE72E
:1021100094E00E94F32F892BA9F088E0EEE7F4E029
:10212000AAEFB8E001900D928A95E1F7E091170AC5
:10213000F091180A309731F00280F381E02D8EE79C
:1021400094E009950895882341F080959091A6091F
:1021500089238093A6090E94661008958091A3099F
:10216000882329F082E20E94A3101092A309089507
:10217000882339F09091A609982B9093A6090E9484
:1021800066100895882321F00E945E0B0E9466105D
:102190000895882339F09091A009982B9093A00975
:1021A0000E9466100895882309F456C0823879F495
:1021B0000E94BA0E81FF50C089E30E94720B0E94F8
:1021C000661089E30E94650B0E94661008958338AB
:1021D00059F40E94BA0E80FF3FC083E50E94720B43
:1021E0000E94661083E5EECF843859F40E94BA0E3F
:1021F00082FF32C087E40E94720B0E94661087E45F
:10220000E1CF9CEF980F913AE8F290E2980F983066
:1022100050F4877091E001C0990F8A95EAF7892FF1
:102220000E945E0BD1CF9BE5980F933028F490E08D
:1022300080E00E945A08089598E5980F993128F493
:1022400090E080E00E943508089593E3980F933161
:1022500018F460E00E94C60C0895CF93C82F88231D
:10226000C9F08238C9F40E94BA0E81FD13C089E317
:102270000E94720B0E9466102FEF87EE93E02150B0
:1022800080409040E1F700C0000089E30E94650BA8
:102290000E946610CF9108958338A1F40E94BA0E6F
:1022A00080FDF8CF83E50E94720B0E9466102FEF2D
:1022B00081EE94E0215080409040E1F700C00000A2
:1022C00083E5E4CF8438A1F40E94BA0E82FDE2CF08
:1022D00087E40E94720B0E9466102FEF81EE94E05B
:1022E000215080409040E1F700C0000087E4CECF4D
:1022F0008CEF8C0F813A68F4E0E8F4E08191C81724
:10230000E9F124E0E638F207C9F78C2F0E94720B3E
:10231000BFCF80E28C0F883068F4C77021E030E0D6
:1023200001C0220FCA95EAF78091A009822B809301
:10233000A009AECFEBE5EC0FE33040F4F0E0EA5C4F
:10234000FB4F808190E00E945A08A4CFE8E5EC0F93
:10235000E93150F4F0E0EE0FFF1FE75CFB4F8081A6
:1023600091810E94350896CF83E38C0F833108F06A
:1023700091CF61E08C2F0E94C60C8CCF8C2F0E94D5
:10238000650B0E946610C1CF1F93CF93DF93182F68
:10239000D0E0C0E0893311F4C0E5D0E0812F0E9485
:1023A0002D11209739F4812F0E94D310DF91CF9106
:1023B0001F9108958FE99FE00197F1F700C0000099
:1023C0002197EFCF0F931F93CF93DF93C62FD42F77
:1023D000022FFC0182818823A9F06093390A0E94B0
:1023E00029089093380A8093370AC77081E001C0AA
:1023F000880FCA95EAF70E94C910DF91CF911F910B
:102400000F9108958091390A681332C08091370A7C
:102410009091380A0E940E08883C910548F510E218
:102420001D0FCD17B9F080E28C0F883040F4C770D3
:1024300081E001C0880FCA95EAF70E94C2101830E7
:1024400048F481E09D2F977001C0880F9A95EAF7B4
:102450000E94C910802F0E94C411183070F6D770E6
:1024600081E001C0880FDA95EAF70E94C210C5CF5B
:10247000C77081E001C0880FCA95EAF7F6CFB0E0D7
:10248000A0E0E5E4F2E10C94512FE82FF0E0EB5BE3
:10249000F44FD490282F26952695269530E0F90103
:1024A000EB5CF44F0491877010E0082E02C0159584
:1024B00007950A94E2F701701127F901EB5DF44FDB
:1024C000E490F12C082E02C0F594E7940A94E2F708
:1024D00091E0E922FF24F901EB5EF44FC491D0E0D2
:1024E00002C0D595C7958A95E2F7C170DD27011521
:1024F000110519F081EE0E942D11E114F10419F07B
:1025000086EE0E942D118D2D0E94C411E114F1045C
:1025100019F086EE0E94D3100115110519F081EE15
:102520000E94D310CD2B19F08CE20E94C411CDB7BC
:10253000DEB7E7E00C946D2FFF920F931F93CF93BC
:10254000DF938C018AE0F82EF8018491882309F446
:102550004BC0813009F044C0E8012196FE0184910E
:10256000813049F42196FE0184910E94C4118E01AC
:102570000F5F1F4FE9CF823039F4E8012296FE0148
:1025800084910E942D11F3CF833039F4E801229613
:10259000FE0184910E94D310EACF843041F7E80114
:1025A0002296FE01249190E080E0FE0131962053B6
:1025B000330B2A30310548F00197C8F2EFE9FFE00C
:1025C0003197F1F700C00000F7CFF89EA001F99E07
:1025D000500D1124C901840F951F2491EF01E5CFFF
:1025E0000E943F12E801C3CFCDB7DEB7E5E00C94FF
:1025F0006F2F8E36910508F06BC3855F9F4CFC01F1
:102600000C94A52F662309F463C385E597E00E9427
:102610009C120895662309F45BC380E597E00E944D
:102620009C120895662309F453C38CE497E00E943A
:102630009C120895662309F44BC387E497E00E9437
:102640009C120895662309F443C383E497E00E9433
:102650009C120895662309F43BC38EE397E00E9421
:102660009C120895662309F433C38AE397E00E941D
:102670009C120895662309F42BC385E397E00E941A
:102680009C120895662309F423C380E397E00E9417
:102690009C120895662309F41BC38AE297E00E9406
:1026A0009C120895662309F413C382E297E00E9406
:1026B0009C120895662309F40BC38EE197E00E94F3
:1026C0009C120895662309F403C389E197E00E94F0
:1026D0009C120895662309F4FBC285E197E00E94ED
:1026E0009C120895662309F4F3C280E197E00E94EA
:1026F0009C120895662309F4EBC28BE097E00E94D8
:102700009C120895662309F4E3C285E097E00E94D5
:102710009C120895662309F4DBC281E097E00E94D1
:102720009C120895662309F4D3C28CEF96E00E94B0
:102730009C120895662309F4CBC287EF96E00E94AD
:102740009C120895662309F4C3C281EF96E00E94AB
:102750009C120895662309F4BBC28DEE96E00E9498
:102760009C120895662309F4B3C288EE96E00E9495
:102770009C120895662309F4ABC284EE96E00E9491
:102780009C120895662309F4A3C28FED96E00E947F
:102790009C120895662309F49BC28BED96E00E947B
:1027A0009C120895662309F493C286ED96E00E9478
:1027B0009C120895662309F48BC280ED96E00E9476
:1027C0009C120895662309F483C288EC96E00E9467
:1027D0009C120895662309F47BC284EC96E00E9463
:1027E0009C120895662309F473C28FEB96E00E9451
:1027F0009C120895662309F46BC28AEB96E00E944E
:102800009C120895662309F463C284EB96E00E944B
:102810009C120895662309F45BC280EB96E00E9447
:102820009C120895662309F453C28BEA96E00E9435
:102830009C120895662309F44BC286EA96E00E9432
:102840009C120895662309F443C280EA96E00E9430
:102850009C120895662309F43BC288E996E00E9421
:102860009C120895662309F433C283E996E00E941E
:102870009C120895662309F42BC28DE896E00E940D
:102880009C120895662309F423C289E896E00E9409
:102890009C120895662309F41BC284E896E00E9406
:1028A0009C120895662309F413C28FE796E00E94F4
:1028B0009C120895662309F40BC289E796E00E94F2
:1028C0009C120895662309F403C283E796E00E94F0
:1028D0009C120895662309F4FBC18CE696E00E94E1
:1028E0009C120895662309F4F3C186E696E00E94DF
:1028F0009C120895662309F4EBC18FE596E00E94CF
:102900009C120895662309F4E3C18BE596E00E94CA
:102910009C120895662309F4DBC186E596E00E94C7
:102920009C120895662309F4D3C180E596E00E94C5
:102930009C120895662309F4CBC189E496E00E94B5
:102940009C120895662309F4C3C185E496E00E94B1
:102950009C120895662309F4BBC180E496E00E94AE
:102960009C120895662309F4B3C18AE396E00E949D
:102970009C120895662309F4ABC183E396E00E949C
:102980009C120895662309F4A3C18EE296E00E948A
:102990009C120895662309F49BC188E296E00E9488
:1029A0009C120895662309F493C183E296E00E9485
:1029B0009C120895662309F48BC18DE196E00E9474
:1029C0009C120895662309F483C188E196E00E9471
:1029D0009C120895662309F47BC182E196E00E946F
:1029E0009C120895662309F473C18AE096E00E9460
:1029F0009C120895662309F46BC186E096E00E945C
:102A00009C120895662309F463C181E096E00E9458
:102A10009C120895662309F45BC18BEF95E00E9438
:102A20009C120895662309F453C184EF95E00E9437
:102A30009C120895662309F44BC180EF95E00E9433
:102A40009C120895662309F443C18BEE95E00E9421
:102A50009C120895662309F43BC186EE95E00E941E
:102A60009C120895662309F433C180EE95E00E941C
:102A70009C120895662309F42BC187ED95E00E940E
:102A80009C120895662309F423C182ED95E00E940B
:102A90009C120895662309F41BC18CEC95E00E94FA
:102AA0009C120895662309F413C187EC95E00E94F7
:102AB0009C120895662309F40BC181EC95E00E94F5
:102AC0009C120895662309F403C18BEB95E00E94E4
:102AD0009C120895662309F4FBC084EB95E00E94E4
:102AE0009C120895662309F4F3C08EEA95E00E94D3
:102AF0009C120895662309F4EBC089EA95E00E94D0
:102B00009C120895662309F4E3C083EA95E00E94CD
:102B10009C120895662309F4DBC08EE995E00E94BB
:102B20009C120895662309F4D3C088E995E00E94B9
:102B30009C120895662309F4CBC080E995E00E94B9
:102B40009C120895662309F4C3C087E895E00E94AB
:102B50009C120895662309F4BBC080E895E00E94AA
:102B60009C120895662309F4B3C088E795E00E949B
:102B70009C120895662309F4ABC082E795E00E9499
:102B80009C120895662309F4A3C08EE695E00E9486
:102B90009C120895662309F49BC089E695E00E9483
:102BA0009C120895662309F493C08FE595E00E9476
:102BB0009C120895662309F48BC087E595E00E9476
:102BC0009C120895662309F483C082E595E00E9473
:102BD0009C120895662309F47BC08CE495E00E9462
:102BE0009C120895662309F473C087E495E00E945F
:102BF0009C120895662309F46BC081E495E00E945D
:102C00009C120895662309F463C088E395E00E944E
:102C10009C120895662309F45BC08EE295E00E9441
:102C20009C120895662309F453C086E295E00E9441
:102C30009C120895662309F44BC081E295E00E943E
:102C40009C120895662309F443C08BE195E00E942D
:102C50009C1208956623E1F186E195E00E949C12A2
:102C600008956623A9F180E195E00E949C120895E1
:102C7000662371F189E095E00E949C120895662315
:102C800039F184E095E00E949C120895662301F1D9
:102C90008EEF94E00E949C1208956623C9F084EFA1
:102CA00094E00E949C120895662391F089EE94E0CE
:102CB0000E949C120895662359F082EE94E00E94CF
:102CC0009C120895662321F08AED94E00E949C12E4
:102CD00008951F93CF93DF93EC011AE08881882336
:102CE00009F43EC08130C9F599818A81913029F477
:102CF00022960E94C4112196F1CF923021F422969F
:102D00000E942D11F8CF933021F422960E94D31007
:102D1000F2CF943011F02196EECF229630E020E0F1
:102D2000AE014F5F5F4F8053990B8A30910550F091
:102D30002150310900F38FE99FE00197F1F700C0BE
:102D40000000F6CF129FB001139F700D11249C015B
:102D5000260F371F8981EA01E3CF0E943F12CBCFB4
:102D6000DF91CF911F910895CF931092A009C6E0F3
:102D7000E0E8F4E0DF018C2F1D928A95E9F790E0FE
:102D800080E00E945A0890E080E00E94350810928E
:102D9000A6090E946610E8E6F9E0DF011D92CA95D7
:102DA000E9F71092610910926209109263090E947A
:102DB000D308CF910895AAE2B0E0E1EEF6E10C94D9
:102DC000552F8FE29AE02091F100FC012193CF0171
:102DD000FAE087339F07B9F78091300A833009F40E
:102DE00070C0B8F4813009F447C0823009F4B1C032
:102DF0008091E80083FF7EC280912F0A9091300A73
:102E00009A3008F077C2E92FF0E0E758FF4C0C94B5
:102E1000A52F8A3009F48CC08B3009F46FC089303B
:102E200039F780912F0A813219F78091330A9091F6
:102E3000340A0297E8F68091E800877F8093E800E3
:102E40008091E80082FF38C09091F3008091F200F9
:102E5000029731F48091F100813011F0863021F435
:102E60008091F1008093220A8091E8008B77809313
:102E7000E8000E940107BCCF80912F0A813A09F037
:102E8000B7CF8091E800877F8093E8008091330A74
:102E90009091340A892B61F468E083E29AE070E053
:102EA0000E94AD078091E8008B778093E800A0CF67
:102EB00060E090E080E0F3CF80912D0A8111C0CFD7
:102EC00097CF80912F0A813A09F092CF8091330AEF
:102ED0009091340A892B09F08BCF8091E800877F8D
:102EE0008093E8008091E80080FFFCCF809130045F
:102EF0008093F1008091E8008E77B9CF80912F0AFE
:102F0000813209F075CF8091330A9091340A892B70
:102F100009F06ECF8091E800877F8093E8000E94DF
:102F200001078091310A809330040E94B41660CF6B
:102F300080912F0A813209F05BCF8091E800877F72
:102F40008093E8000E9401078091320A8093210A51
:102F50004FCF80912F0A813A09F04ACF8091E80043
:102F6000877F8093E8008091E80080FFFCCF80910C
:102F7000210ABECF803899F0823809F0BBC1809118
:102F8000330A8F70873008F0B5C18093E9008091D3
:102F9000EB0085FB882780F91092E90006C080913C
:102FA0002B0A90912C0A911182609091E800977FF2
:102FB0009093E8008093F1001092F1008091E80076
:102FC0008E7794C1882309F482C1823009F092C1BE
:102FD0008091310A811185C18091330A8F702FEF62
:102FE000280F263008F086C18093E9002091EB007D
:102FF00020FF77C1933031F48091EB0080628093A1
:10300000EB006FC19091EB0090619093EB0021E099
:1030100030E001C0220F8A95EAF72093EA0010926F
:10302000EA008091EB008860EACF811163C11091C2
:10303000310A1F778091E3008078812B8093E30031
:103040008091E800877F8093E8000E9401078091CB
:10305000E80080FFFCCF8091E30080688093E3006C
:1030600082E0111183E080932D0A44C180588230A0
:1030700008F040C18091310A9091320A8C3D23E0E2
:103080009207A1F583E08A838AE289834FB7F89497
:10309000DE01139620E03EE051E2E32FF0E0509392
:1030A0005700E49120FF03C0E295EF703F5FEF709F
:1030B0008E2F90E0EA30C0F0C7968D939D932F5FDE
:1030C000243159F74FBF8091E800877F8093E80053
:1030D0006AE270E0CE0101960E94AD078091E8009F
:1030E0008B778093E80006C1C096E7CF4091330A02
:1030F0005091340A292F33272330310509F444C075
:1031000078F52130310509F46FC08BE390E0E0E8F9
:10311000FCE02230310509F0EDC02091E800277F66
:103120002093E8002091350A3091360A82179307E0
:1031300008F49C0140E02115310509F064C04111FB
:1031400062C08091E80082FDC9CF80912D0A88235A
:1031500029F2853019F28091E80083FFF2CFBECFCB
:1031600021323105A9F12232310509F0C3C04115E0
:10317000510509F443C04130510509F0BBC08BE74C
:1031800090E0E5ECFBE0C9CF992781309105C1F0D3
:10319000009759F0029709F0ADC0EDECFCE0E49126
:1031A0008E2F90E0EDECFCE007C0E1EFFCE0E49155
:1031B0008E2F90E0E1EFFCE0009709F49BC0ADCFCB
:1031C000EBEDFCE0E4918E2F90E0EBEDFCE0F4CF32
:1031D0004115510571F04130510509F08BC089E06E
:1031E00090E0EBEAFCE099CF82E190E0EBEBFCE0D1
:1031F00094CF89E090E0E2E9FCE08FCF80E490E0BA
:10320000E0E4FCE08ACF80912D0A882309F466CFA0
:10321000853009F463CF8091E80083FD5FCF809112
:10322000E80082FD8ECF8091E80080FF84CF9091EE
:10323000F3008091F2002115310519F088309105D5
:1032400050F041E0089709F040E08091E8008E7767
:103250008093E80070CF44914093F1003196215063
:1032600031090196E8CF803809F044C08091E80028
:10327000877F8093E80080912E0A8093F1009ECE94
:10328000811138C01091310A1230A0F58091E80008
:10329000877F8093E80010932E0A0E940107112374
:1032A00011F084E005C08091E30087FDFACF81E052
:1032B00080932D0A42E061EC81E00E94200742E207
:1032C00061EC82E00E94200780912D0A13C080915A
:1032D000310A813079F481E0933009F080E0809305
:1032E0002C0A1092E9008091E800877F8093E80023
:1032F0000E9401078091E80083FF0AC08091E800E6
:10330000877F8093E8008091EB0080628093EB00E0
:10331000AA96E3E00C94712F0E94B4162FEF84E379
:103320009CE0215080409040E1F700C0000088E11F
:103330009AE00FB6F894A895809360000FBE909322
:103340006000FFCFA4E0B0E0E8EAF9E10C94542F6C
:103350004091190950911A0960911B0970911C093B
:103360002FB7F89480911C0A90911D0AA0911E0A13
:10337000B0911F0A2FBF841B950BA60BB70B11E052
:1033800084369105A105B10590F10E94970E88231E
:1033900099F10E941D086E5F7F4F8F4F9F4F698389
:1033A0007A838B839C838091150190911601835EB3
:1033B000964F4091140150E04530510510F044E023
:1033C00050E0BE016F5F7F4F0E94003082E090E0CE
:1033D0000E94D02E182F882351F00E941D08609360
:1033E000190970931A0980931B0990931C09812F66
:1033F0002496E4E00C94702F0E941D08009134097B
:10340000109135092091360930913709600F711FED
:10341000821F931FC0CFA8E0B0E0E1E1FAE10C9475
:10342000562F85E0EBE9F9E0DE01119601900D924F
:103430008A95E1F780916E0990916F09A0917009CA
:103440008E839F83A887288540912F09509130094A
:1034500060913109709132093FB7F89480911C0A4C
:1034600090911D0AA0911E0AB0911F0A3FBF841BB4
:10347000950BA60BB70B84369105A105B10510F489
:10348000222319F180911D0190911E01835E964FB8
:1034900040911C0150E04930510510F048E050E0E7
:1034A000BE016F5F7F4F0E94003083E090E00E947A
:1034B000D02E882369F00E941D0860932F09709315
:1034C000300980933109909332091092700981E09C
:1034D0002896E2E00C94722FEF92FF921F93CF9305
:1034E000DF9300D000D000D0CDB7DEB77B0190E0F5
:1034F00080E00E94D02E182F882309F480C04091CC
:10350000070150E04115510511F041E050E0609194
:10351000080170910901635E764FCE0106960E9404
:10352000003040911509509116096091170970916A
:1035300018092FB7F89480911C0A90911D0AA09148
:103540001E0AB0911F0A2FBF841B950BA60BB70B49
:1035500084369105A105B10540F48EE199E00E9401
:103560009A069E81891709F44AC081E090E00E9482
:10357000D02E811116C010E085E0E0E1F9E0D7011E
:1035800001900D928A95E1F7812F26960FB6F89457
:10359000DEBF0FBECDBFDF91CF911F91FF90EF90A7
:1035A000089540910F0150E04630510510F045E07C
:1035B00050E06091100170911101635E764FCE0171
:1035C00001960E9400308EE199E00E949A069E8149
:1035D0008913D1CF0E941D086093150970931609B5
:1035E000809317099093180985E0FE013196A0E1B8
:1035F000B9E001900D928A95E1F711E0BDCF85E029
:10360000EEE1F9E0DE01119601900D928A95E1F765
:103610001111EACFB1CFA2E1B0E0E1E1FBE10C94FE
:103620004B2F8E010F5F1F4F8AE0D8011D928A95A4
:10363000E9F78DE6C82E84E0D82EF12CE12CAA24DF
:10364000A394B12C29E7822E24E0922EF6018191D9
:103650006F018F3F09F442C0F894E82FE295EF70B4
:10366000F0E021A18F70A50102C0440F551F8A957B
:10367000E2F7CA01922F982B91A392A180958923FA
:1036800082A3789400C0E2E7F4E0712C31E021914C
:103690002F3F09F46BC0A22FA295AF70B0E09096B7
:1036A0008C9190E02F7002C0959587952A95E2F74E
:1036B00080FD5CC0832F782A330F8E169F0639F762
:1036C000F601319780818F3F11F00E943E0950EA48
:1036D0005A95F1F7F801EE0DFF1D70828FEFE81A91
:1036E000F80AA5E0EA16F10409F0B0CF4AE050E08C
:1036F000B80188E399E00E94F32F009741F02AE097
:10370000F801A8E3B9E001900D922A95E1F7009144
:103710004309892B69F181E0809307090E942908F8
:1037200090930609809305098091050990910609F7
:103730000E940E08059700F110E0055B164F45E06A
:1037400050E068E379E0C8010E94F32FD12C892B67
:1037500051F085E0E8E3F9E0D80101900D928A95F7
:10376000E1F7DD24D3941092070907C080E0A3CFCE
:10377000809107098111D8CFD12C0E94970EC82EB5
:10378000E0914309882309F475C07E01BBE0EB0E8C
:10379000F11C85E0D7011D928A95E9F70E2F10E004
:1037A000055B164F809133098A3090F54CE65AE15B
:1037B000B701C8010E94640E882309F44AC042EA96
:1037C00059E1B701C8010E94640E882309F441C081
:1037D0004BE05AE1B701C8010E94640E8823C9F189
:1037E000109233098091420990E045E050E0B70122
:1037F000855B964F0E94F32F21E020930E09892BC1
:10380000D9F4C12C8C2D8D296296EDE00C94672F94
:1038100080910809909109090E940E08843F914007
:1038200028F680910E09882361F385E0F701119253
:103830008A95E9F710920E09A0914209B0E0A55BC4
:10384000B64F85E0FE013B9601900D928A95E1F717
:10385000D9CF809133098F3F31F08F5F8093330947
:103860008A3008F4BFCF0E942908909309098093F9
:103870000809D7CFF0E0E55BF64F85E0AEE1B9E0AF
:1038800001900D928A95E1F78EE199E00E949A06E7
:1038900080931D098090230990902409A090250908
:1038A000B090260980910A0990910B09A0910C090A
:1038B000B0910D0988169906AA06BB06D1F0809230
:1038C0000A0990920B09A0920C09B0920D090E946E
:1038D000970E81110EC00E941D08861A970AA80A29
:1038E000B90A8092340990923509A0923609B092B3
:1038F000370988E0E7E2F9E0DE011B9601900D92BE
:103900008A95E1F780912709869500912809F09022
:103910002909E0902A0910912E0910922E091123ED
:1039200009F470CF10FF0BC02B8590919B0920FFED
:103930000FC0916090939B0960E00E941C1011FFE2
:1039400061CF20E04E2D6F2D802F0E94DE0E5ACFCA
:103950009E7F90939B09809170098160809370098C
:103960000E942F0EECCF9091470992FB222720F95D
:10397000281779F080FB92F99093470960914609E6
:103980007091470984E090E00E94DD2F82E00E9460
:10399000560C089567EE7EEF90E080E00E94DD2FE8
:1039A00060E082E090E00E94BF2F60E083E090E062
:1039B0000E94BF2F109204091092030960E074E185
:1039C00084E090E00E94DD2F60E086E090E00E94BD
:1039D000BF2F6FEF87E090E00E94BF2F40E050E0E4
:1039E000BA0188E090E00E94D12F60E08DE090E085
:1039F0000E94BF2F40E050E0BA0188E190E00E94B1
:103A0000D12F60E087E190E00E94BF2F40E050E0BE
:103A1000BA018CE190E00E94D12F70E060E080E27A
:103A200090E00E94DD2F40E050E0BA0188E190E094
:103A30000E94D12F40E050E0BA018FE090E00E9458
:103A4000D12F40E050E0BA0183E190E00E94D12FF5
:103A50000895B0E0A0E0EFE2FDE10C944F2F8C015F
:103A6000FC0183819481892B31F0808191818923AC
:103A70008F3F09F03FC6CDB7DEB7E9E00C946B2F5E
:103A8000F801828181110BC0C435FCE7DF0709F41E
:103A90006CC040F5C3353CE7D30709F445C08091BD
:103AA0000209C5302EE7D20709F438C108F000C179
:103AB000CC32D10509F41DC1C4309EE7D90709F401
:103AC00024C1C337FCE7DF0709F053C1F801828145
:103AD0008823C9F18091A309882309F447C10E9472
:103AE000AE1031C0C6358CE7D80709F44CC0C735D5
:103AF0009CE7D907A1F6C0900001D0900101E090A9
:103B00004409F09045090E94B41690E080E00E94BC
:103B10003F0CCEE7D8E0CC16DD0609F447C0CE0155
:103B20000E94291D2897F7CF0E94B41690E080E0EC
:103B30000E943F0C86E894E0909387088093860863
:103B400081E0809388088091F908877009F493CF09
:103B5000F8018281882309F48ECF8091470982FF82
:103B60008ACF82E00E94560C86CF0E94B41690E065
:103B700080E00E943F0C8EE798E090938708809346
:103B8000860882E0DECFC0900201D0900301E09071
:103B90004409F09045090E94B41690E080E00E942C
:103BA0003F0CC6E8D4E0CC16DD0631F40E94B41612
:103BB000C7010E943F0CC7CFCE010E94291D289645
:103BC000F2CF8091860890918708F4E086389F07AD
:103BD00029F0FC0138972281211105C0909303013F
:103BE00080930201A8C5CF01F0CF80918608909103
:103BF000870828E08E37920729F0FC013896228149
:103C0000211105C0909301018093000194C5CF015B
:103C1000F0CF813031F1823009F041CF20910201A3
:103C200030910301A0918608B0918708F801828144
:103C3000811105C0F8E0AE37BF0709F430CFCD01E0
:103C400008962817390709F42ACF88E0F80101906F
:103C50000D928A95E1F780918608909187080897E0
:103C600022C02091000130910101A0918608B091FD
:103C70008708F8018281811105C0F4E0A638BF07EA
:103C800009F40DCFCD0108972817390709F407CF9C
:103C900088E0F80101900D928A95E1F780918608FD
:103CA0009091870808969093870880938608F7CEAE
:103CB000C730EEE7DE0709F441C0C8F1C8302EE78F
:103CC000D20709F0FECEF8019281992309F451C080
:103CD00068EB70E180E392E00E94CE0D80E30E94E9
:103CE0002D1180E30E94D31063EA70E180E392E03B
:103CF00039C0982F9272E9F1F8018281882309F482
:103D000022CF8DE20E94C4111ECFF8018281882348
:103D100009F419CF82E00E94560C15CFF801928168
:103D2000992339F182E394E00E9469160CCFF801DF
:103D300092819923F1F081E394E0F6CFF80192812A
:103D40009923B9F068EB70E18FE292E00E94CE0D0A
:103D50008FE20E942D118FE20E94D31063EA70E17E
:103D60008FE292E00E94CE0D88E2CCCF0E944A0BF7
:103D7000EACEF090A009F82A8091A309811110C021
:103D8000F2E2FF1202C00E944A0BFE01E851FC471A
:103D9000E730F10508F053C0ED57FF4C0C94A52F08
:103DA0000E94290888579C4E9093A2098093A109EC
:103DB000F8018281882349F38F2D8D7909F070C035
:103DC000C034F2E5DF0768F5C11522E5D207B8F582
:103DD000C11530E4D30750F4C11580E2D80708F0CC
:103DE00053C0C63ED10559F1CE010AC0C11590E5B8
:103DF000D907D0F7F8018581807F39F2CE01992764
:103E00001092A6098832910508F055C08E319105AF
:103E100008F058C0049708F443C082E08093A609D4
:103E200051C0C43BE2E5DE0751F0CE01C53BF2E5EF
:103E3000DF0720F58056924580349105A8F6F801F9
:103E40008281882309F48FC41092390ACE019057D9
:103E5000839708F073C484E090E00E94B92F909398
:103E6000470980934609FE01E150F047E232F1052F
:103E700008F050C0E657FF4C0C94A52F805C92458B
:103E8000809708F0B1CFDBCFF8018581807F09F002
:103E9000B5CF8D2F8F71823159F028F4823041F0E7
:103EA0000E94AE1072CF843109F46FCF8631C1F712
:103EB0001092A609F5CF8D32910509F4AECF28F402
:103EC0008A9771F70E94661060CF8C349105D1F308
:103ED0008D329240B9F3E4CF26E241EE61EEC801A3
:103EE0000E94E21130CE27E245EE65EEF8CF26E2E1
:103EF00041EE60EEF4CF27E245EE64EEF0CF26E22D
:103F000041EE62EEECCF27E245EE66EEE8CF28E226
:103F100041E0EBCF8091460981608093460995C0CE
:103F2000809147098860809347098FC08091460936
:103F30008260F3CF809146098460EFCF809146097B
:103F40008860EBCF809147098160EDCF8091470970
:103F50008260E9CF809146098061DFCF8091460978
:103F60008062DBCF809146098064D7CF0E94B4166F
:103F7000809146098068D1CF809146098C60CDCF71
:103F8000809147098360CFCF809146098E7FC5CF4E
:103F900080914709877FC7CF809146098D7FBDCF2C
:103FA000809146098B7FB9CF80914609877FB5CF35
:103FB000809147098E7FB7CF809147098D7FB3CF1E
:103FC000809146098F7EA9CF809146098F7DA5CF2C
:103FD000809146098F7BA1CF0E94B416809146093B
:103FE0008F779BCF80914609837F97CF8091470938
:103FF0008C7F99CF8091460982FB992790F921E027
:10400000922790FB82F990FB83F987CF8091470933
:10401000982F909591708E7F892B90FB81F983CF9B
:1040200090914609892F8F7B96FF806476CF0E94FE
:10403000B41690914609892F97FB87F980586DCF68
:1040400061E08EE090E00E94BF2F60914609709180
:10405000470984E090E00E94DD2F0E94B41673CDE2
:1040600060E0EFCF90914609892F8F7E94FF8061A9
:1040700054CF90914609892F8E7F90FF81604DCF5C
:1040800090914709892F877F93FF88604CCF85E304
:1040900065C380918908811104C089E20E94650B83
:1040A0005FC385E3FBCF80919B0980FF15C08E7FA6
:1040B00080939B0960919B0970919C0980919D0957
:1040C00090919E090E94CB0E80917009816080932F
:1040D00070090E942F0E37CD816080939B0961E0AB
:1040E00086950E941C102FCD4FE350E169E470E1EA
:1040F0000E94BE0828CD49E450E16FE370E1F8CF9B
:1041000044EE5FE06EEE7FE0F3CF4EEE5FE064EEF4
:104110007FE0EECF4AEC5FE067ED7FE0E9CF47ED6F
:104120005FE06AEC7FE0E4CF40EB5FE06DEB7FE0C7
:10413000DFCF4DEB5FE060EB7FE0DACF48EF5FE091
:104140006AE070E1D5CF4AE050E168EF7FE0D0CF80
:1041500061E081E0C6CFC330FCE7DF0709F470C03F
:1041600008F044C0C1153CE7D30709F44DC0C13085
:10417000DC4709F46BC0F80186819781009709F448
:1041800073C00E94B509D82FC92FF801C280B5802D
:10419000B2943FE0B3228091F9088770C1F0EC2C13
:1041A000CC20B1F0892F807F803421F080E28D0F08
:1041B000883068F08091470982FF09C082E00E9440
:1041C000560C8091F9088770EE24E3948111E12C5C
:1041D000DC2ED2942FE0D222FBE0FD1508F4C2C001
:1041E000ED2DF0E0E455FF4C0C94A52FCB359CE76A
:1041F000D907C1F1CC35ECE7DE0751F1CA35DC4710
:1042000009F0B9CF81E02BC00E94B4162FEF34E340
:104210008CE0215030408040E1F700C0000087E78B
:1042200097E7909301088093000888E19AE00FB621
:10423000F894A895809360000FBE90936000FFCF24
:104240006FEF7FEF90E080E00E94DD2F0E948C19DD
:104250008091470982FB882780F991E089270E9495
:10426000B31C89CF80E0FBCF8281C081D1818823BC
:1042700069F0CE010E94950BF82E682FCE010E94A6
:10428000090CBE018F2D0E9498097BCFCE010E94A0
:10429000D60BF82EF6CF2C2F2F70F22EC07F19F0F0
:1042A000F29490EFF922CC20B9F0FF2069F080E27F
:1042B0008D0F883010F0D11109C08091A009F82A23
:1042C000F092A0090E9466108D2F4AC08091A60925
:1042D000F82AF092A609F6CF8D2F0E94D310FF2066
:1042E00009F440C080E28D0F883010F0D11104C075
:1042F0008F2D0E945E0B06C0F0948091A609F822D3
:10430000F092A6090E9466102DC03C2F3F70F32E3C
:10431000C07FC03219F0F29480EFF822DD2381F0E3
:10432000D13009F494C0CC2009F49EC0BB2009F41C
:1043300094C0F801858180FFC7CF8F7085838DC0C1
:104340008091470982FD37C0CC2079F1FF2039F0F8
:104350008091A009F82AF092A0090E94661080E0DE
:104360000E942D11ED2DE850FF0B349710F40E94A0
:10437000BA0EEE20A9F08091F90880FD11C0F80175
:1043800012828595859585950E94720CC8010E94C0
:10439000291D8091F9088595859585950E94440C85
:1043A00060E0C8010E949E0D66CB80E00E94D310A1
:1043B000FF20C1F29DCFCC2031F1B11006C0809119
:1043C00002098F290E94C910CDCF91E0B9120AC00D
:1043D00082FFC8CF80910209F82AF81619F2F092EC
:1043E0000209C0CFE2E0BE12EACF8F2D0E94C910B1
:1043F0000E94440B80918A08F82AF81609F4B2CF7B
:10440000F0928A08AFCFB11006C00E94440B8F2DE6
:104410000E94C210A7CFF1E0BF120FC08091A00987
:104420008F2109F49FCF8F2D0E94C2100E94440B50
:1044300080918A08F094F822E0CF22E0B21609F4C5
:1044400091CF8F2D0E94C2100E94440B8BCFCC20A5
:1044500031F032E03B1508F485CF8F2DB3CF81E0EA
:104460008B1508F47FCFD3CFBB2089F2D93349F421
:10447000FFEF27EE33E0F15020403040E1F700C07D
:1044800000008D2F0E94D3106DCF8C2F86958695BE
:10449000837069F0813009F065CF8D2F9C2F937068
:1044A000C11002C080E090E00E9435085BCF8D2FE4
:1044B0009C2F9370C11002C080E090E00E945A08C7
:1044C00051CF6C2D8D2F0E94C60C4CCF8C2F83703A
:1044D00009F03FC0C11046CF4D2F42954695477019
:1044E000440F440F2D2F2F7030E0042E02C0220FF6
:1044F000331F0A94E2F790E080E0D4FF09C08FE018
:1045000090E002C0880F991F4A95E2F78095909538
:10451000C695C695C370C23099F078F440910309EE
:1045200050910409C13039F0822B932B84239523B9
:104530000E94900C17CF242B352B822B932BF8CF76
:10454000822B932B20910309309104098227932712
:10455000EFCF8695CC2011F08C2F8170882309F441
:1045600001CF4D2F429546954770440F440F2D2F94
:104570002F7030E0042E02C0220F331F0A94E2F79E
:1045800090E080E0D4FF09C08FE090E002C0880F87
:10459000991F4A95E2F780959095C695C695C37088
:1045A000C23099F078F44091440950914509C130E6
:1045B00039F0822B932B842395230E943F0CD2CE7B
:1045C000242B352B822B932BF8CF822B932B2091EE
:1045D00044093091450982279327EFCFCF70CC2033
:1045E00029F08C2F0E94720C8D2FECCE8D2F0E9403
:1045F000C2108C2F0E94440CB5CED23F71F160F4F2
:10460000D03FB9F0D13F81F0CC2009F463C0B110A4
:104610005BCE8C2F8F7125C0D33F31F1D43FA1F7F2
:104620008091470982FD2EC08C2F8F71CC2011F311
:1046300018C0CC2069F081E08B1508F493CECF71BF
:1046400081E090E002C0880F991FCA95E2F7BFCFC2
:1046500092E09B1508F486CEF2CF8C2F8F71C1109B
:10466000C9CF0E94720C7ECE90E080E0CC2009F48D
:10467000A4CFCF7181E090E002C0880F991FCA9546
:10468000E2F79BCFCC20C9F08091F9088770843085
:1046900041F41092F9088C2F8F710E94440CE12C88
:1046A00061CEE1E0EB15D8F3CF718C2F0E94720C34
:1046B00063E08C2F0E94820CF2CFF1E0FB1530F406
:1046C0001092F90864E08C2F8F71F4CF81E00E9482
:1046D000560CE5CFBB2059F0D93309F0D2CE2FEFDD
:1046E00037EE83E0215030408040E1F7C8CE8C2F78
:1046F0008F7180CF61E0C8010E949E0DEC01809116
:104700008808882309F4BCC99E0123553C472330FF
:10471000310508F07ECA91E0C535DC4709F490E028
:10472000F8012281291709F40ECA813009F449CA17
:10473000823009F45ACA1092880805CAC631FCE7CB
:10474000DF0709F008CD8091A0098A7A91E009F489
:1047500090E09093890881119ACC89E20E94720BB3
:104760000E946610F0C9C6312CE7D20709F491CC3B
:104770008091A0098272FE01E052F847E531F1050F
:1047800008F0F9CCE854FF4C0C94A52FCF93DF939D
:104790008091B408807F09F049C08091B1088823D6
:1047A00009F444C08091F808D091B7086091AF082F
:1047B0007091B008A091B208B091B308C62FC7237A
:1047C000D817A1F190E0109711F0CF3F19F401969E
:1047D0008770F6CF9C0143E0220F331F4A95E1F723
:1047E000F901E854F74F41814713F1CF4081461357
:1047F000EECF42814111EBCF438154814A1B5B0BC9
:10480000483C510520F78091B4088F7080618093F7
:10481000B408F901E354F74F80818F708061808381
:104820008FEA98E00E94291D0E948B0BDF91CF91A7
:104830000895A5E1B0E0EFE1F4E20C944E2F8C0175
:1048400085E0F801DE01519601900D928A95E1F71D
:10485000F801E2806FEAA62E68E0B62E6091B208F9
:104860007091B3086115710509F45CC19091AF08AE
:104870004091B008892F84238F3F09F453C12081D0
:104880003181C380D480F090B108F601E61BF70BAC
:10489000FF2009F411C18091B408582F507FE83CE3
:1048A000F10508F0C4C0511175C0FE2C43131EC0A1
:1048B00092131CC06091B5087091B608F80146814A
:1048C00057816417750791F4E11010C08F708061F3
:1048D0008093B408C5010E94291D8091B408F80195
:1048E00085838F2D6596EAE00C946A2FC114D1045C
:1048F00029F0822F83238F3F09F02FC180E0F82F0A
:10490000F170DF2E80FF3CC08091F8084091B7081D
:10491000841315C0298B3A8B89899A890E94C90B07
:10492000292F22952F702230F8F0243020F59F7027
:10493000F9F0F8019581907FD9F4D12C1FC090E057
:10494000FC0153E0EE0FFF1F5A95E1F7E854F74FD3
:104950005181351306C05081251303C05281E512E1
:104960000FC001968770D4CF9F7011F0882329F370
:10497000805E883010F3C8010E94291DFD2CB1CF44
:10498000EE2009F4AECF8091B40881608093B40822
:10499000F12CA7CF43131BC0921319C04091B50847
:1049A0005091B608F801268137814217530779F4F0
:1049B000E1100DC08583C8010E94291D88E0F8011F
:1049C000AFEAB8E001900D928A95E1F78ACFC8016D
:1049D0000E94950C882339F1EE2029F18091B408CA
:1049E0008032A0F02091AF083091B0083A87298733
:1049F0001B86DD86CC868E878091B5089091B6089F
:104A0000988B8F87CE0109960E94291D88E0F801B6
:104A1000AFEAB8E001900D928A95E1F70E94C623B3
:104A2000FF24F3945ECFC8010E94291DF9CF5111D4
:104A30000AC08FEA98E00E94291D88E0F5011192D2
:104A40008A95E9F7A5CF431318C0921316C0409179
:104A5000B5085091B608F8012681378142175307EF
:104A600061F4E1100AC08583C8010E94291D88E015
:104A7000F50111928A95E9F734CFC8010E94950C8F
:104A8000882389F2EE2079F28091B408803208F40C
:104A9000BDCF2091AF083091B0083A8329831B82A3
:104AA000DD82CC828E838091B5089091B60898877C
:104AB0008F83CE010196A8CFE83CF105C0F6FE2C0D
:104AC000EE2009F4B0CF43131FC092131DC02091F4
:104AD000B5083091B608F801868197812817390703
:104AE00099F49091B40890FD69CF907F09F466CF56
:104AF0008091B4088583903F09F45DCF982F907F13
:104B0000905F8F70892B56CFC8010E94950C811140
:104B10007DCF8091B40881608093B408C8010E9461
:104B2000291DDFCEEE2009F47ECFC8010E94950C2E
:104B3000F82E882309F477CF88E0F801AFEAB8E0CF
:104B400001900D928A95E1F78091AF089091B0089D
:104B50000E94C90B0E94C623C4CE81E08E25CFCE11
:104B6000A0E1B0E0E6EBF5E20C94562F29873A87F6
:104B70004B875C876D877E878F87988BCE010996E0
:104B80000E941924811112C088E0FE013996DE01CD
:104B9000119601900D928A95E1F78C859D85892B60
:104BA00029F089859A8589238F3F81F58091F808BE
:104BB0009091B708891317C06096E2E00C94722FA9
:104BC00093E0AA0FBB1F9A95E1F7A854B74F98E05E
:104BD000FE01319601900D929A95E1F78093B70806
:104BE0000E948B0BE3CFB8E08B9FC0011124885447
:104BF000974F0E9419248823F9F28091F80890E0D9
:104C00000196877099278093F808D0CFA091B708B4
:104C1000B0E0CD010196877099272091F8082817F8
:104C2000190671F60E94B4161092B7081092F8088F
:104C300088E0EFEAF8E0DF011D928A95E9F7B6CF48
:104C40000F931F93CF93DF938091A809E091A70959
:104C50001CE081111AC0DF91CF911F910F9108952F
:104C600001E00E0F0093A709CE2FD0E0E19FF001E5
:104C70001124E755F64F83819481892B29F0808197
:104C8000918189238F3FF9F4E02F8091A809E817DB
:104C900038F31092A8091092A709DDCF18968D91CC
:104CA0009C918F3F9807E1F061E00E94F9121C9FF0
:104CB000F0011D9FF00D1124E755F64F1482138269
:104CC0001092A609E1CF1C9FD0011D9FB00D1124A9
:104CD000A755B64F16968D919C911797892BF1F297
:104CE00020813181428153816481758186819781E0
:104CF0000E94B025DCCF1092140A1092130A109271
:104D00002F048091120A8093110A0E94AD080E941C
:104D100020260895B0E0A0E0E0E9F6E20C94462FEA
:104D2000C091110AE7E0FE2E01E010E0FCE02F2E1A
:104D3000AEEFEA2E8091120A8C1309C00E94202641
:104D40000E94AD08CDB7DEB7E2E10C94622FD0E04F
:104D5000FE01EE0FFF1FE75FF54F80819181F89E06
:104D6000F001F99EF00D1124E35DFE4F2481211125
:104D700059C03090A809A9EAB9E030E020E0412C00
:104D80005F01231508F04CC01A966D907C901B971C
:104D9000F501808091804FEF5FEF512CC52CD12C15
:104DA000F601EE0FFF1FE80DF91D6591749166166F
:104DB000770609F4A601672B11F05394EFCF4F3F0C
:104DC0005407B9F1B80102C0660F771F4A95E2F7A0
:104DD000462AA801052C02C0440F551F0A94E2F789
:104DE000415051094416150601F5229EF001239EFB
:104DF000F00D1124E755F64FF89ED001F99EB00D45
:104E00001124A35DBE4F12962D913C9113973783C9
:104E10002683E082E1829187808771E015967C93FA
:104E20000E947F082196C37085CF14961C921E9213
:104E300013972F5F3F4F1C96A4CFA9E1B0E0E3E2A8
:104E4000F7E20C94462F498B5A8B6B8B7C8B8D8BA6
:104E500061111092A6091D861E861F86188A85E09C
:104E6000FE017196DE01199601900D928A95E1F787
:104E70008C859D85892B31F089859A8589238F3F83
:104E800009F0C4C129853A854B855C856D857E8591
:104E90008F8598890E94B025C2C021E5A2162CE713
:104EA000B20629F4882379F00E947B26EBCF32E505
:104EB000A3163CE7B30639F4882329F080912F0428
:104EC0008111F2CFB3C10DE211E0E12CD12CC12C44
:104ED00088248394912C9EEF592E44244394F80106
:104EE0006081718166246A94762C20E0422F50E024
:104EF000FA01EE0FFF1FE60FF71F85919491A81698
:104F0000B90609F43A01892B11F02F5FEFCFF12C8C
:104F1000FFEF6F167F0609F444C0F8014481F0905A
:104F20002F048F2D411180E0F82FF170FF2EF80132
:104F3000258086819B85992309F4F2C0FF2009F41E
:104F4000EFC0211014C0A401062C01C0440F0A9424
:104F5000EAF7842B86838091A4099091A509C297D2
:104F600030F442E350E05093A5094093A409C401F2
:104F700002C0880F991F2A95E2F70197F801268150
:104F80002817190671F48091130A9091140A00975A
:104F900009F449C00E940E08C39708F444C0F80100
:104FA0004482EF28FFEFCF1ADF0A095F1F4F2EE67A
:104FB000C216D10409F093CF8B85882309F411C15F
:104FC000EE2009F40EC10E9429089093140A8093E0
:104FD000130A8091A809883010F591E0980F9093FA
:104FE000A80998E0FE013996DE01119601900D9214
:104FF0009A95E1F73CE0839FC00111248755964FB5
:1050000028E0FE013196DC0101900D922A95E1F72E
:105010002FEF3FEFFC0131872087B386A286699688
:10502000E2E10C94622F8091110A6090120A982F8D
:10503000F0E0E0E0861114C09093110A0E171F07EC
:1050400009F4AFCF90E0FC01EE0FFF1FE75FF54FD3
:10505000D182C0820196837099278093120AA1CFD2
:10506000282E312CF101EE0FFF1FE75FF54F208155
:105070003181F7E0F29FD001F39FB00D1124A35DC1
:10508000BE4F2D913C911197398F288F712C60E084
:1050900070E0E72FF0E0EE0FFF1F288D398DE20F53
:1050A000F31F2591349121153105E1F0F8010190AC
:1050B000F081E02DFF8BEE8B60E005C024173507F3
:1050C00009F47F2C6F5FE62FF0E0EE0FFF1F4E8993
:1050D0005F89E40FF51F459154914115510571F712
:1050E0007F5FD7CF7720C9F0F801671708F0FD017F
:1050F00044820E171F0721F49093110AF72C51CF09
:10510000981305C0AE17BF0711F49F5F937091010C
:105110002F5F3F4F822F83708DCFF0E0E0E0F7CF1D
:1051200090E0211020C0B40102C0660F771F2A95BD
:10513000E2F79B01215031092817390731F4442344
:1051400009F44DC0C6010E947F08C401062C01C0AD
:10515000880F0A94EAF7982F9095F80186818923A1
:105160008683F22C1ECF9C01062C02C03595279514
:105170000A94E2F7A90141705527BC0161507109F9
:1051800086239723892B39F5452B29F1F801828154
:105190009381892BD9F01B821C821D821E82598229
:1051A0005A820E9429088160582F9D838C83F801C0
:1051B000828193818F83988729813A814B816D8188
:1051C0007E810E94B025F8011582BFCF60E0C60144
:1051D0000E94F912F8CFF22FF1702F2EB6CF2F2C9C
:1051E000B4CF9091110A8091120A981731F00E9461
:1051F0008A26EE2009F446CE12CF0E942026109275
:10520000140A1092130A0E94AD08F3CF61E0CE0198
:1052100009960E949E0D5C018B85F0E5AF16FCE7B8
:10522000BF0609F03ACE882309F44DCE81E0809381
:105230002F0428CE1F920F920FB60F9211242F9396
:105240003F934F935F936F937F938F939F93AF930E
:10525000BF93CF93DF93EF93FF93D091E900DF707B
:105260008091EC00C82FC17080FDC0E81092E90069
:105270008091F000877F8093F00078940E94DB1685
:105280001092E9008091F00088608093F000CD2BAF
:10529000CF70C093E900FF91EF91DF91CF91BF9163
:1052A000AF919F918F917F916F915F914F913F91BE
:1052B0002F910F900FBE0F901F9018951F920F9275
:1052C0000FB60F9211242F933F934F935F936F93D9
:1052D0007F938F939F93AF93BF93EF93FF938091AF
:1052E000E10082FF09C08091E20082FF05C0809149
:1052F000E1008B7F8093E1008091DA0080FF24C081
:105300008091D80080FF20C08091DA008E7F80934A
:10531000DA008091D90080FF9DC080E189BD82E1E3
:1053200089BD09B400FEFDCF81E080932D0A8091F4
:10533000200A811109C00E94B1060E945207809183
:10534000E20084608093E2008091E10080FF17C05A
:105350008091E20080FF13C08091E2008E7F8093F5
:10536000E2008091E20080618093E2008091D800A9
:1053700080628093D80019BC85E080932D0A8091CB
:10538000E10084FF2BC08091E20084FF27C080E110
:1053900089BD82E189BD89B5982F917080FFFBCFCF
:1053A0008091D8008F7D8093D8008091E1008F7E1E
:1053B0008093E1008091E2008F7E8093E2008091F3
:1053C000E20081608093E20080912E0A882309F434
:1053D00047C084E080932D0A80912D0A8091E100DE
:1053E00083FF27C08091E20083FF23C08091E1000A
:1053F000877F8093E10082E080932D0A10922E0A2D
:105400008091E1008E7F8093E1008091E2008E7FA9
:105410008093E2008091E20080618093E20042E0AC
:1054200060E080E00E9420078091F0008860809317
:10543000F000FF91EF91BF91AF919F918F917F917C
:105440006F915F914F913F912F910F900FBE0F90F1
:105450001F90189519BC10922D0A1092200A74CF33
:105460008091E30087FD93E090932D0AB5CF789467
:105470001F921FB61F9211248F939F93AF93BF93D8
:1054800080911C0A90911D0AA0911E0AB0911F0ADA
:105490000196A11DB11D80931C0A90931D0AA09333
:1054A0001E0AB0931F0ABF91AF919F918F911F90D9
:1054B0001FBE1F9018951F921FB61F9211248F9325
:1054C0009F93AF93BF9380911B0A811113C080916A
:1054D0001C0A90911D0AA0911E0AB0911F0A4196C4
:1054E000A11DB11D80931C0A90931D0AA0931E0A52
:1054F000B0931F0ABF91AF919F918F911F901FBED4
:105500001F901895CDB7DEB760970FB6F894DEBF41
:105510000FBECDBF85B7806885BF85B7806885BF62
:1055200084B7877F84BF0FB6F894A89580916000F8
:10553000886180936000109260000FBE80E890E068
:105540000FB6F89480936100909361000FBE8CE3D6
:1055500099E090937D0480937C040E94B1060E94A0
:1055600052078091E20084608093E20078948091F9
:105570002D0A8823A1F01091E9001F709091EC0092
:10558000892F817090FD80E8182B1092E90080919E
:10559000E80083FD0E94DB161F701093E90082E093
:1055A00084BD93E095BD9AEF97BD80936E001092F5
:1055B00034091092350910923609109237090E9469
:1055C000970E809324010E94970E81110E94E42D72
:1055D000809124018091240195E0811190E09093C5
:1055E000430985E0891B809342090DE614E0D80148
:1055F0008D918D018F3F11F00E943E09B4E002377A
:105600001B07A9F702E714E059E7E52E54E0F52E51
:10561000F80181918F018F3F11F00E943E09E01641
:10562000F106B1F78AE0EBE4F9E0DF01282F1D92E3
:105630002A95E9F7E8E3F9E0DF011D928A95E9F799
:1056400090E080E00E94B92F873E9E4F11F00E94AB
:10565000CA1C82E090E00E94AB2F8093550984E041
:1056600090E00E94B92F909347098093460983E008
:1056700090E00E94AB2F90E00E94900C809148092E
:10568000811139C090E080E00E94B92F873E9E4F83
:1056900021F00E94CA1C0E944E1088E090E00E94F7
:1056A000B32F60939B0970939C0980939D099093FD
:1056B0009E09809170098360809370096E7F71F4F8
:1056C0000E944E1088E090E00E94B32F60939B09E7
:1056D00070939C0980939D0990939E090E94C40831
:1056E00080919B0980FF04C060E086950E941C1099
:1056F00081E0809348090E94970E811102C00E94A8
:10570000E72D85E291E09093180A8093170A08E14B
:1057100010E040E4E42EFF24F39430E1D32E809196
:105720002D0A22E1C22E853009F481C00E940B1B94
:1057300086E5A82E89E0B82E9BE4892E99E0992E63
:10574000D401F50191918D9149E0E036F40709F417
:1057500078C09817B9F30E94970E382EC12CD40147
:105760007D904D01F50141905F01471429F14724D7
:10577000612C55245394842D8521B1F03320A1F060
:105780006C86CD8691E0872D852109F490E09E8777
:105790000E9429088160782F988B8F874C855D85C2
:1057A0006E8588890E941D276394550CF7E06F125F
:1057B000E2CFF50131977082C3942AE0C212CFCFB5
:1057C0000E941D085EC080912D0A843009F110925C
:1057D0001B0A0FB6F894A895009360000FBEE092E4
:1057E000600083B7817F846083BF83B7816083BF9C
:1057F0007894889583B78E7F83BF0FB6F894A89569
:1058000080916000886180936000109260000FBEFC
:1058100080912C0A882359F00E940B1BEBE4F9E0DD
:105820008191811159C129E0E535F207C9F78091CD
:105830002D0A853009F4C7CF0E94B4160E94BA0E13
:1058400075CF981388CF0E9429085C01809149097F
:1058500090914A09A816B906A1F08FEF8F83888727
:1058600019860E9429088160782F9B878A874F813B
:10587000588569858B850E941D27B0924A09A092A0
:1058800049090E94970E8823A9F180912F0488234B
:1058900001F18091130A9091140A0097D1F00E94AF
:1058A0000E082091A4093091A5092817390788F41A
:1058B0009091110A8091120A981709F4F8C00E9479
:1058C0008A261092A5091092A4091092140A109227
:1058D000130A8091A309882369F00E942908209166
:1058E000A1093091A209821B930B8F3F9F4710F4AF
:1058F0000E94AE1086E0E8E6F9E0DE011196019024
:105900000D928A95E1F710926A0910926B09109234
:105910006C0910926D098B819C81892B09F44AC016
:1059200080916609909167090E940E089C019091F0
:105930006109992309F4EBC025313105D8F19F3F66
:1059400019F09F5F90936109CB80CC2059F00E94A1
:105950001C099FEF1C140CF491E0899F802D1124E9
:1059600080936A09CC80CC2059F00E941C099FEFDB
:105970001C140CF491E0899F802D112480936B09F5
:1059800030916A093323B1F020916B09222391F001
:1059900045EB3403C0011124992309F491C090937D
:1059A0006A0945EB240390011124332309F48BC0C9
:1059B00030936B098D819E81892B09F44AC08091B7
:1059C0006409909165090E940E089C0190916209FA
:1059D000992309F497C021353105D8F19F3F19F07B
:1059E0009F5F90936209CD80CC2059F00E94FA0805
:1059F0009FEF1C140CF491E0899F802D112480935B
:105A00006C09CE80CC2059F00E94FA089FEF1C143C
:105A10000CF491E0899F802D112480936D093091C1
:105A20006C093323B1F020916D09222391F045EBED
:105A30003403C0011124992309F448C090936C09E0
:105A400045EB240390011124332309F442C0309321
:105A50006D0946E050E0BE016F5F7F4F88E699E038
:105A60000E94F32F892B61F480916A0990916B0950
:105A7000892B90916C09892B90916D09892B11F0DC
:105A80000E94D30886E0FE013196A8E6B9E00190B5
:105A90000D928A95E1F70E94BA0E909160098917DC
:105AA00009F43DCE809360090E941D0836CE0E9405
:105AB00020261092140A1092130A0E94AD0809CFF2
:105AC000F0926A096ECFF0926B0974CFF0926C0974
:105AD000B7CFF0926D09BDCFD9BCC9BC09B400FEE7
