:100000000C9400060C94AF2D0C941D060C941D0648
:100010000C941D060C941D060C941D060C941D06D4
:100020000C941D060C941D060C94E3280C949F2838
:100030000C94E0290C941D060C941D060C941D06CE
:100040000C941D060C941D060C941D060C941D06A4
:100050000C941D060C94BC290C941D060C941D06D2
:100060000C941D060C941D060C941D060C941D0684
:100070000C941D060C941D060C941D060C941D0674
:100080000C941D060C941D060C941D060C941D0664
:100090000C941D060C941D060C941D060C941D0654
:1000A0000C941D060C941D060C941D0608001600E9
:1000B000170000002A0009000C0000002A000500BB
:1000C0001A0000002A000C000E00170000000400B7
:1000D0001100170000002A0012001A0000002A0078
:1000E0000F00130000002A00080011001900000092
:1000F0002A001300150000002A0004000A000C006A
:1001000000002A00150019001C0000000C0011005E
:10011000170000000A000B000C001500000006008C
:100120001000000008000B001A0000002A0009005F
:100130001500170000002A001600180000002A0011
:100140000400100000000D0016000000080015005B
:10015000160000002A000A000B000000050006003F
:1001600000002C0009000C0000002C002A001300E5
:1001700000002C001200160000002A0004001100EC
:1001800000002A000600120000002A000E001A00DB
:10019000000005000E0000002A000A001800000000
:1001A0002C000400110000002A00080010000000CC
:1001B0002A0005000900150000002A000F001A009F
:1001C000000008001100170000002A0010001500B0
:1001D00000002A000800170000002A001200150085
:1001E0001C00000008001500190000002A00120081
:1001F0001500190000002A000A0010001600000077
:100200000C001000170000002A000C001100000074
:100210002C002A00070000002C001200170000002C
:100220002A001200150000002A001000170000002C
:100230002A000C000F0000002A0005001100000039
:100240002C002A00150000002A00100016000000F3
:100250002C002A00100000002A00170018000000DF
:100260002A000800190000002C002A001A000000D3
:100270000A000B000C0000002C0005001C00000010
:100280002A000A00110000002A0011001A000000D4
:100290002C002A001C0000002A000B000C000000AB
:1002A00006001A0000002C002A000B0012000000BB
:1002B0002A001500170000002A0004001200170091
:1002C00000002A000700160000002A000B000C00A6
:1002D000170000002A0008001A0000002A0006008B
:1002E000180000002A001200170000002A00040075
:1002F000150000002A000B00120015001700000076
:100300002A000B001A0000002C002A000500000043
:100310002A000500180000002C002A001700000029
:100320002A0018001A0000002A0008000B0015001F
:1003300000002A000800150000002A0004000F0039
:1003400000002A0007000B0000000B00190000004D
:100350002A000B0017001C0000002A0009001000F2
:1003600000002C002A000B000C0000002A000B00EB
:100370001600170000002C001100120000002C00D5
:100380002A00040000002C002A00160000002A00A9
:100390001100170000002C002A0009000B000000CB
:1003A0002A000800160000002A00090015000000BD
:1003B0002C002A000C0000002A000B001600000090
:1003C0002A001100120000002A0018001C00000082
:1003D0002A0004001A0000002A000C001A00000085
:1003E0002C002A000B0000002A000A000C0000006C
:1003F0002A000B00150000002C002A00110000004C
:100400002A000400170000002C002A000900000048
:100410002C002A00120000002C002A000400070013
:1004200000002A000400070000002C002A000B0036
:10043000170000002A000B0017000000657374000D
:100440006669727374006265747765656E007468BE
:10045000696E6B007468616E0077686F0070656F1D
:10046000706C65006576656E0070726F0061676123
:10047000696E00766572790074696E6700726967EB
:10048000687400636F6D00776865726500616674FB
:1004900065720073686F756C64006D616E006A75DB
:1004A0007374006572730074686F756768740062B6
:1004B000656361757365006966200075702000735F
:1004C0006F200063616E00636F6E006B6E6F77006C
:1004D0006261636B0074686F75676800616E20000D
:1004E0006D656E74006265666F72650077696C6C2D
:1004F000007468656E006D6F7265007465640079E4
:100500006F75720065766572006F76657200736F45
:100510006D657468696E670074696D6500696E74F5
:100520006F00646F20006F6E2074686520006F7527
:1005300072007468656D006C696B65006265656E5C
:10054000006F722000736F6D65006D652000746828
:10055000726F75676800657665007765200069676A
:10056000687400627920007468696E670077686556
:100570006E006D79200068696D00776869636800B6
:10058000746F2074686520007465720061626F7515
:1005900074007361696400746865697200776572DC
:1005A0006500636F756C64006F757400617265003F
:1005B0006F7468657200776861740062652000621C
:1005C00075740061742000776F756C6400746865E1
:1005D00072650065726500616C6C0068616400683A
:1005E00061766500746865790066726F6D00696E8A
:1005F00020746865200074686973006F6E20006164
:100600007320006973200074696F6E006F66207438
:100610006865200073686500666F72006974200069
:10062000686973006E6F7400796F7500776173008D
:10063000776974680068652000696E670068657294
:1006400000696E200074686174006F662000746F2A
:100650002000616E642000616E6400746865200093
:100660007468650045003A003B003C003D003E00D8
:100670002B04350014001A000900130005002B009C
:10068000390004001500160017000A00A152A852F4
:100690001D001B00060007001900A4521D011C01CB
:1006A000567C577CA2522C008252440043004200E8
:1006B000410040003F002B05310033001C001800B2
:1006C0000F000D002800340012000C00080011007B
:1006D00010004C002D003800370036000B000E00D3
:1006E000290030002F004D004A00B2522A008352E8
:1006F00001000100010001000100010001000100F2
:1007000014001A0008001500170001000100040081
:100710001600070009000A00010001001D001B006F
:1007200006001900050001000100010001000100A0
:1007300001000100010001000100010001000100B1
:10074000010001000100130012000C0018001C0041
:100750000100010033000F000E000D000B0001002E
:1007600001003800370036001000110001000100C0
:1007700001000100010001000100010024525300AA
:10078000460047004800BD000100A800077E087E23
:100790002F023002BE000100A9002F003000260207
:1007A000270249000100AA0004011B0106011901EA
:1007B0001905010001002452537C547C0100010002
:1007C000010061521E02200224022302057E010064
:1007D00021022202260025002400067E0100570087
:1007E000550023002200210036000100560054006D
:1007F00020001F001E002E000100B200580037002C
:1008000027005800010001002452AC00AE00AD00EA
:10081000AB0001002B0424520100010052006500CE
:100820004C0501004B000100500051004F00010039
:1008300001004E0004011B01060119011905010008
:1008400001002452537C547C2A01010001006152B2
:10085000010001000100010001002B0546002F00EE
:10086000300026022702077E01000100E700E600B3
:10087000E500E400087E010001001E021F022002C4
:10088000240223020100547C537C0100010001007A
:100890000100010000003A003B003C003D003E002A
:1008A00000000000007C00000000000000000000CC
:1008B0000000000000000000000000000100000037
:1008C0000000000000000000007C000000000000AC
:1008D0000000000000000000000000004300420093
:1008E000410040003F000000000000000000000048
:1008F00000000000000000000000000000000000F8
:100900000000010000000000000000000000007C6A
:1009100000000000000000000000000000000000D7
:1009200000010101010101010101020202020202B2
:100930000202020303030303030303040404040485
:10094000040405050505050606060606070707074C
:100950000708080808090909090A0A0A0B0B0B0C01
:100960000C0C0D0D0D0E0E0E0F0F0F10101111119E
:10097000121213131414151516161717181819191F
:100980001A1A1B1B1C1D1D1E1E1F20202122222384
:100990002424252626272829292A2B2C2D2D2E2FC5
:1009A00030313232333435363738393A3B3C3D3EDC
:1009B0003F404142434445464748494A4C4D4E4FCB
:1009C00050515354555658595A5B5D5E5F6162648D
:1009D000656668696B6C6D6F7072737577787A7B1A
:1009E0007D7E8082838587888A8C8E8F9193959671
:1009F000989A9C9EA0A2A3A5A7A9ABADAFB1B3B591
:100A0000B7BABCBEC0C2C4C6C9CBCDCFD1D4D6D86C
:100A1000DBDDDFE2E4E7E9EBEEF0F3F5F8FAFDFF0A
:100A200000000000000000000000000000000000C6
:100A300000000000000000000000000000000000B6
:100A4000000000007E0F00D4FFFFFFC70000007809
:100A500000000000000000002A2B28000000000019
:100A6000000000000000000000000029000000005D
:100A70002C1E3420212224342627252E362D3738CB
:100A8000271E1F202122232425263333362E3738D4
:100A90001F0405060708090A0B0C0D0E0F10111292
:100AA000131415161718191A1B1C1D2F3130232D5E
:100AB000350405060708090A0B0C0D0E0F1011125C
:100AC000131415161718191A1B1C1D2F3130354C0D
:100AD00005010902A10185020901A1000509190109
:100AE00029081500250195087501810205010930C5
:100AF00009311581257F9502750881060938158110
:100B0000257F950175088106050C0A380215812597
:100B10007F950175088106C0C005010980A1018586
:100B20000319012AB700150126B700950175108138
:100B300000C0050C0901A101850419012AA00215B4
:100B40000126A002950175108100C005010906A1CA
:100B500001050719E029E7150025019508750181B0
:100B6000029501750881010507190029FF15002666
:100B7000FF009506750881000508190129059505EE
:100B800075019102950175039101C009023B0002B4
:100B90000100A0FA0904000001030101000921116C
:100BA000010001224000070581030800010904013A
:100BB000000103000000092111010001227B000750
:100BC0000582032000011201000200000008444DCC
:100BD00044520001010200010C0352006500640050
:100BE0006F00780000001403460061006C00620092
:100BF00061007400650063006800000004030904DC
:100C000011241FBECFEFDAE0DEBFCDBF14E0A0E0BD
:100C1000B1E0E4EAF0E602C005900D92AC37B1070E
:100C2000D9F72AE0ACE7B4E001C01D92AA33B207BD
:100C3000E1F70E94072A0C948E2F0C940000FC010F
:100C4000AC014B5F5F4F8FEF91E32191822728E04A
:100C500030E087FF09C0880F892721503109C9F783
:100C6000E417F50791F70895880FF7CFE8EDF0E066
:100C700080818E7F80831092E2001092DA001092C1
:100C8000E100A0EEB0E08C9181608C9380818F7741
:100C9000808319BCA7EDB0E08C918E7F8C9380810E
:100CA0008F7E80831092200A08952091E400309175
:100CB000E50095E6A9012091EC00822F817020FFCC
:100CC00006C08091E80080FF06C080E00895209172
:100CD000E80022FD1AC080912D0A882389F0853012
:100CE00089F08091EB0085FD0FC02091E4003091E8
:100CF000E50042175307F9F29150E1F684E00895B8
:100D000082E0089583E0089581E0089580912F0A9C
:100D100087FF13C08091E80082FF06C08091E80041
:100D20008B778093E80004C080912D0A8111F2CF67
:100D3000089580912D0A8823D9F38091E80080FFDF
:100D4000F8CF8091E8008E77ECCF982F9093E90050
:100D5000242F762F50E0891731F07091EC0020910C
:100D6000ED005091F00021FD07C09F5F973071F7B3
:100D70008093E90081E008953091EB003E7F30934D
:100D8000EB003091ED003D7F3093ED003091EB00B2
:100D900031603093EB007093EC002093ED005093A2
:100DA000F0002091EE0027FDE0CF80E00895B0E054
:100DB000A0E0EDEDF6E00C94D52EC8EDD0E08881F2
:100DC0008F7E8883E7EDF0E080818160808384E01E
:100DD00082BF81E08093200A88818E7F888302EE23
:100DE00010E0F80110821092DA0081EEC82ED12CAA
:100DF000F601108288818F77888388818068888354
:100E000088818F7D888319BC10922D0A10922E0A3A
:100E100010922C0A10922B0A90EEE92EF12CF70179
:100E200080818B7F808388818160888342E060E05D
:100E300080E00E94A506F60180818E7F8083F80104
:100E4000808181608083808188608083F7018081D8
:100E50008E7F8083888180618883CDB7DEB7E8E0AC
:100E60000C94F12EFC018091350A9091360A861778
:100E70009707A0F06115710529F49091E8009E771D
:100E80009093E80090E06115710551F4911108C04C
:100E90008091E80082FF34C080E00895BC01F2CF69
:100EA00080912D0A8823C1F18530C1F18091E8003D
:100EB00083FD30C08091E80082FDEACF8091E80098
:100EC00080FFE1CF8091F3002091F200382F61156F
:100ED000710519F02830310558F091E028303105BE
:100EE00009F090E02091E8002E772093E800CBCF26
:100EF00081918093F100615071092F5F3F4FE7CFDF
:100F000080912D0A882341F0853041F08091E800DE
:100F100083FFBECF81E0089582E0089583E00895C5
:100F20008091220A08959C014FB7F89480911C0A81
:100F300090911D0AA0911E0AB0911F0A4FBF821BFB
:100F4000930B08952FB7F89460911C0A70911D0AB5
:100F500080911E0A90911F0A2FBF08952FB7F89411
:100F600080911C0A90911D0AA0911E0AB0911F0A3F
:100F70002FBF0895A3E0B0E0E0ECF7E00C94DB2E87
:100F80002091190A30911A0A28173907A1F0909375
:100F90001A0A8093190AE091170AF091180A3097FB
:100FA00051F024E029839B838A830680F781E02D1A
:100FB000CE01019609952396E2E00C94F72EA3E06A
:100FC000B0E0E5EEF7E00C94DB2E2091150A3091AD
:100FD000160A28173907A1F09093160A8093150A6C
:100FE000E091170AF091180A309751F023E0298315
:100FF0009B838A830680F781E02DCE0101960995B7
:101000002396E2E00C94F72EDC016091110A8091A6
:10101000120A962F891301C00895292F30E0F90193
:10102000EE0FFF1FE75FF54F408151814A175B07C5
:10103000A1F487E08A9FA0018B9F500D1124435D8E
:101040005E4F81E0FA0184839613E6CF2F5F3F4F16
:10105000237033272093110A08952F5F3F4F922F5B
:101060009370D8CF1092A5091092A409EDE2F1E097
:101070008581811102C014821682379684E0EF3296
:10108000F807B1F70895FA01811101C0FB01099534
:10109000089580919B09982F9E7F39F480919B0938
:1010A0008170826080939B0908958430B8F7089519
:1010B0000E94AE079C0190916A0980916B09982B60
:1010C00021F0309367092093660990916C09809113
:1010D0006D09982B21F03093650920936409E09104
:1010E000170AF091180A309749F082E08093680956
:1010F0000480F581E02D88E699E0099508958091B6
:10110000630980FD16C081FD16C082FD16C0809166
:1011100062098823A1F0883280F428E0829FC00110
:10112000112468E270E00E94162F862F672B39F099
:10113000089582E0089584E0089588E0089581E0AC
:1011400008958091630980FD14C081FD14C082FD63
:1011500016C080916109882381F08E3180F420E5EA
:10116000829FC00111246EE170E00E94162F862F2D
:10117000089584E1089588E2089588E0089580E55F
:10118000089580E00895F894E82FE295EF70F0E07C
:1011900031A1282F2F7081E090E001C0880F2A959F
:1011A000EAF7982F9095932391A392A1892B82A37C
:1011B000789408959091460992FF06C0282F2871CF
:1011C0002830F9F4877F846093FF06C0282F2871A8
:1011D0002831F1F4877E84612091470920FF06C001
:1011E000382F38713830D9F4877F816021FF06C0ED
:1011F000282F28712831D1F4877E816194FD877E64
:101200000895282F24712430F9F68B7F8860DCCF75
:10121000282F2471243101F78B7E8861DDCF382F90
:101220003171313019F78E7F8860E0CF282F21711E
:10123000213121F78E7E8861E1CF972F7A30B8F483
:101240006730A8F4853098F470E027E0929F600D35
:10125000711D1124FB0196E4899FE00DF11D1124FD
:10126000EE0FFF1FEC59F94F85919491089580E09E
:1012700090E00895CF93DF93EC0182389105B9F1A6
:1012800008F041C08133910509F49FC050F58932BF
:10129000910509F48FC08A9709F49EC0C11520E515
:1012A000D20708F0BDC0C11530E4D30708F00AC169
:1012B000C03ED10508F0A5C0CD3CD10508F000C165
:1012C000C83AD10508F08FC0C53AD10508F0F0C082
:1012D000C130D10539F1209729F1C430D10510F57D
:1012E00046C08533910509F460C0C997B9F680916D
:1012F0004609837009F044C18091470983FF12C0F9
:10130000C9E2D0E00FC0833E9105A1F178F4803EA0
:10131000910509F1823E910509F0C0CF80914609FF
:1013200082FD21C0CE01DF91CF910895863E9105C7
:1013300061F1873E910571F1843E910509F0AECFD0
:101340008091470981FFEECF80914609C7EED0E03A
:1013500084FD0DC0E7CF8091460980FD33C0909198
:10136000470990FFDFCFC3EED0E084FFDBCFD0E0B2
:10137000C0E0D8CF8091460982FDFFC09091470917
:1013800090FDFEC084FFCECFF2CF8091460983FD51
:10139000DDCFC8CF8091460983FDF5C09091470904
:1013A00091FFF0CFC4EED0E0BDCF8091460985FF1C
:1013B000B9CFA6CF8091460985FDE8C08091470945
:1013C00083FFB0CFC9E3D0E0ADCF8091460986FF5F
:1013D000A9CFCAE2D0E0A6CF8091460986FFA2CF6E
:1013E000C1E3D0E09FCFC13CD10508F6C85AD0E098
:1013F000CC0FDD1FC75CDB4F0990D881C02DD464B2
:1014000091CFC11540E2D40708F0AAC0C11581E010
:10141000D80708F087CFC83ED10508F483CFA7CFFF
:10142000C03622E5D20718F5C03432E5D30708F0FC
:1014300053C0C03242E5D40708F047C0C11582E569
:10144000D80708F47FC02C2F2695269540E2249FCC
:10145000900111248C2F8370C1E0D0E002C0CC0F2A
:10146000DD1F8A95E2F7C22BD32BDD685BCFC03A34
:1014700022E5D20760F4C03832E5D30708F441C052
:10148000CF71D0E0DC2FCC27C46FD06A4BCFC03CEB
:1014900042E5D40708F44AC0C03E82E5D80708F008
:1014A00066CFDC2FCC27CC27DF71C06FD06A3ACF54
:1014B000C55AD0E0CA5CDB4FC881D0E0D06432CFDF
:1014C000D06530CFDF70D06A2DCFCF71D0E0DC2F68
:1014D000CC27C16FD06A26CF2C2F26952695277052
:1014E00080E2289F900111248C2F8370C1E0D0E00E
:1014F00002C0CC0FDD1F8A95E2F7C22BD32BDC682C
:1015000011CF2C2F26952695277040E2249F90011D
:1015100011248C2F8370C1E0D0E002C0CC0FDD1FFE
:101520008A95E2F7C22BD32BDA68FCCE8C2F8F7111
:101530000E94DA08C82FD0E0DC2FCC27CC27DF713F
:10154000D062F0CE8C2F8F710E94DA0835E0D695EC
:10155000C7953A95E1F7CF709C2FEC01D069E2CEA8
:101560008D2F8F710E94DA0890E0982F88278827A6
:101570009F719C012C2BE901E3CFC2EED0E0D2CECB
:10158000C0EED0E0CFCEC6EED0E0CCCEC5E3D0E00A
:10159000C9CE8091020981111092020908958091AB
:1015A000A30981110FC01092A0090E94C90A0E94CC
:1015B000AE0788579C4E9093A2098093A10981E0C1
:1015C0008093A309089580959091A0099823909302
:1015D000A0090895E0E8F4E09191891303C0DF01C8
:1015E00011971C9294E0E638F907B1F70895A0E846
:1015F000B4E0EFEF90E02D91821751F0EF3F19F436
:10160000211101C0E92F9F5F9630A9F7EF3F09F440
:1016100008950E2E000CFF0BE258FB4F82830895B5
:101620008091F8089091B708981301C008958F5FD2
:101630008770FACFB0E0A0E0E0E2FBE00C94D42E9B
:101640007C01009144091091450980910309909112
:101650000409082B192BCFE0D0E0CC24C394D12C63
:10166000BC2EC6010C2E02C0880F991F0A94E2F707
:1016700080239123892B49F4219790F7B12C8B2D4E
:10168000CDB7DEB7E9E00C94F02EB7018C2F0E94A5
:101690001D090E943A09019779F3F1CFCF93DF93A7
:1016A000EC010E941A0BBE010E941D090E943A091A
:1016B000DF91CF9108959A3078F5873068F5E82F5B
:1016C000F0E087E0989FE00DF11D11249E2F9770A8
:1016D00083E0F695E7958A95E1F7EE0FFF1FEE0F91
:1016E000FF1FE557F74F50E040E080E0219130E0E8
:1016F000092E02C0369527950A94E2F72170332708
:10170000042E01C0220F0A94EAF7822B4F5F5F4F2D
:101710004430510559F7089580E008959A3098F5BE
:10172000873088F5E82FF0E087E0989FE00DF11D05
:1017300011248E2F877041E001C0440F8A95EAF78B
:1017400083E0F695E7958A95E1F7EE0FFF1FEE0F20
:10175000FF1FE557F74F30E020E070E05191DF01C7
:101760001197CB01022E02C0969587950A94E2F755
:10177000817081958527842385278C932F5F3F4F28
:101780002430310559F70895909345098093440911
:10179000089521E030E002C0220F331F8A95E2F75E
:1017A0002095309580914409909145098223932397
:1017B0000E94C40B08959091F90880958923809325
:1017C000F908282F277091F4282F082E000C330BCE
:1017D0009217130659F09091470992FF07C085951B
:1017E000859585950E94C90B1092F908089521E00E
:1017F00030E002C0220F331F8A95E2F7809144093E
:1018000090914509822B932B0E94C40B08959091CF
:10181000470992FF07C098E0899F90011124622B2D
:101820006093F9080E94F70B089590930409809340
:1018300003090895FC0183819481892B29F080811B
:10184000918189238F3FF1F480E008950E943A0945
:1018500092959F70963089F058F4925F9F70923005
:1018600098F7803F19F030F4883E70F781E00895D2
:101870009A5FF4CF843F41F7F9CF883EB8F3813FB8
:1018800019F7F4CF86819781009701F780819181C4
:101890000E944E0BDDCF662309F45DC08D3C41F400
:1018A0000E94A108819580936B090E9458080895B1
:1018B0008E3C19F40E94A108F6CF8F3C31F40E94AF
:1018C000A108819580936A09F0CF803D19F40E94A8
:1018D000A108F8CF893D29F40E947F0880936C0904
:1018E000E4CF8A3D21F40E947F088195F7CF8B3D9C
:1018F00031F40E947F08819580936D09D6CF8C3D8D
:1019000019F40E947F08F8CF9FE2980F983070F486
:10191000815D990B21E030E001C0220F8A95EAF742
:1019200080916909822B80936909BFCF8D3D31F485
:1019300080916309816080936309B7CF8E3D21F464
:10194000809163098260F7CF8F3D09F0AECF80911F
:1019500063098460F0CF40916A098D3C59F480910D
:101960006B0987FF0DC010926B0941110BC01092DB
:10197000610908C08E3C81F480916B0918169CF3B4
:10198000442381F080916C0990916D09892B09F0B5
:101990008CCF1092620989CF8F3C49F447FFF0CF7A
:1019A00010926A0980916B098111ECCFE0CF803DE4
:1019B00019F41416ACF3E4CF90916C09893D29F425
:1019C0001916F4F610926C09DBCF8A3D19F497FFD3
:1019D000D7CFF8CF90916D098B3D29F497FFD0CFE9
:1019E00010926D09CDCF8C3D19F41916CCF3C8CFE8
:1019F0009FE2980F983090F4815D990B21E030E0E0
:101A0000B90102C0660F771F8A95E2F7CB01809576
:101A100090916909892380936909B2CF8D3D31F492
:101A2000809163098E7F80936309AACF8E3D21F454
:101A3000809163098D7FF7CF8F3D09F0A1CF809111
:101A400063098B7FF0CFA5E0B0E0E9E2FDE00C9404
:101A5000DA2E9C01FC01868197810097E1F485E0F4
:101A6000DE01119601900D928A95E1F7F90122812C
:101A700089819A81222399F0662389F00E941A0BAA
:101A8000182F682F89819A810E948E0B69817A8133
:101A9000812F0E941D092596E3E00C94F62E0E94EA
:101AA0005B0B182FF3CF82E0FB01099508950F938C
:101AB0001F93CF93DF938B01EA0190912D0A94300D
:101AC00061F58093E9008FEF9091E800815095FDDA
:101AD00006C095ED9A95F1F700008111F5CF809140
:101AE000E80085FF1AC00E945506811111C080913F
:101AF000E80085FD06C08091E8008E778093E800BD
:101B0000F2CFF80181918F018093F100219779F74D
:101B10008091E8008E778093E800DF91CF911F914C
:101B20000F91089543E050E0BC0182E00E94570D00
:101B3000089546E050E0BC0182E00E94570D0895F0
:101B4000CF93DF93EC0148E050E0BC0181E00E94BC
:101B5000570D88E0FE01A3E2BAE001900D928A954C
:101B6000E1F7DF91CF91089580919B0980FD0AC034
:101B7000E1E7F9E0118210821282339659E0EB39E5
:101B8000F507C1F7539A3BB1377F2BB128604FB7A8
:101B9000F89481E799E0FC015191CF0168E02BB9FD
:101BA000000000C057FF3BB9550F000000C000C047
:101BB00000C03BB900C06A9591F7F9E08B399F07E7
:101BC00051F74FBF8FE594E00197F1F700C0000097
:101BD0000895B0E0A0E0EFEEFDE00C94D32E7C0180
:101BE0005B016A018091330901E010E08A3010F452
:101BF0000AE010E0C1E0D0E0B501C701F6010995A7
:101C0000811104C021960C171D072CF4CDB7DEB747
:101C1000EAE00C94EF2ECC9F9001CD9F300D300D5B
:101C2000112490E080E045E34A95F1F70000019629
:101C300082179307C1F7E0CF80910F09811110C07F
:101C40008091D80080618093D8008AE18A95F1F76D
:101C500000C08091D90080FF0AC081E080930F0905
:101C600081E090910F09913009F080E0089582E0C1
:101C700080930F090E94360610922D0AF1CF0E9420
:101C80001C0E882359F0E091170AF091180A30973A
:101C900029F00190F081E02D0995089580E00895E4
:101CA000CF92DF92EF92FF926B017C010E94490874
:101CB000B701A60188E090E00E94562FFF90EF90B8
:101CC000DF90CF900895B0E0A0E0E9E6FEE00C944C
:101CD000D12ED82FC62F142F822E00919B0900FFE2
:101CE0004AC080919C098D1308C080919D0986137C
:101CF00004C080919E09841729F080917009826048
:101D000080937009E02FE695F0E0E758FB4F808163
:101D100080936E09802F8E7F8230D9F4E12FF0E01E
:101D2000E05EF64FC1112CC02491F22FE22F00FF8C
:101D300010C0A1E7B9E01196EC9311972C9312967D
:101D4000FC931297139689E0AB39B807A1F70E946C
:101D5000B40DD0939C09C0939D0910939E098820CF
:101D600051F060919B0970919C0980919D0990911F
:101D70009E090E94500ECDB7DEB7ECE00C94ED2E1C
:101D8000EC2EF12CE4919E2ECE2ED12C26E0D29F6B
:101D9000C00111242FEF30E0B9010E94022F8D2FD6
:101DA00090E0880F991FF5E5F69FA001F79F500D71
:101DB0001124841B950BB82EBB0CB80EA9014E192B
:101DC0005F094C9DC0014D9D900D5C9D900D1124AF
:101DD000F92FCB9DA0011124452F5527D901A41B14
:101DE000B50BAC9DA001AD9D500DBC9D500D1124B7
:101DF000D901AB19B1095D01AE9CD001AF9CB00D0A
:101E0000BE9CB00D1124AB2FBB272A1B3B0B2C9D76
:101E1000D0012D9DB00D3C9DB00D11242B2F6230B3
:101E20007105A1F050F46115710509F480CF61309E
:101E3000710581F0292FF52F7ACF6430710569F093
:101E400080F06630710509F472CFF4CF2E2FE92FA0
:101E5000FB2F6DCF2E2FE52F6ACF292FFE2FEB2FD3
:101E600066CFE92FF92D252F62CFEBE9F9E0438109
:101E700021E1421B08F440E021E0628181810E945F
:101E8000630E0895EBE9F9E0438121E1420F08F484
:101E90004FEF21E0628181810E94630E0895EBE99A
:101EA000F9E0628121E1621B08F460E021E04381F6
:101EB00081810E94630E0895EBE9F9E0628121E1DE
:101EC000620F08F46FEF21E0438181810E94630E6D
:101ED0000895EBE9F9E0818121E043816281885036
:101EE0000E94630E0895EBE9F9E0818121E04381CE
:101EF0006281885F0E94630E089580919F09882304
:101F000019F0815080939F0960919B0970919C0901
:101F100080919D0990919E090E94500E0895809194
:101F20009F09833018F48F5F80939F0960919B090C
:101F300070919C0980919D0990919E090E94500E7C
:101F4000089580919B0980FF1EC0817082608093FC
:101F50009B0980917009816080937009662351F01C
:101F600060919B0970919C0980919D0990919E09B7
:101F70000E94500E20E040919E0960919D09809141
:101F80009C090E94630E089580919B09869581505B
:101F900009F481E061E00E94A10F089561E081E011
:101FA0000E94A10F0895EBE9F9E083E0808311829C
:101FB0008FEF828383831482AEE6B9E012968C9110
:101FC0001297836012968C936081718182819381D4
:101FD0000E94500E08958091A0099091A609892B26
:101FE00080937E0490910209992391F0892B80932C
:101FF0007E0420E080E894E0FC013191CF013111B2
:102000002F5FF4E086389F07B9F721110E94C90AB3
:1020100048E050E06AEF78E08EE794E00E94782F85
:10202000892BA9F088E0EEE7F4E0AAEFB8E0019090
:102030000D928A95E1F7E091170AF091180A30970E
:1020400031F00280F381E02D8EE794E00995089548
:10205000882341F080959091A60989238093A60951
:102060000E94EB0F08958091A309882329F082E252
:102070000E9428101092A3090895882339F09091A6
:10208000A609982B9093A6090E94EB0F0895882328
:1020900021F00E94E30A0E94EB0F0895882339F093
:1020A0009091A009982B9093A0090E94EB0F08959E
:1020B000882309F456C0823879F40E943F0E81FFCC
:1020C00050C089E30E94F70A0E94EB0F89E30E9447
:1020D000EA0A0E94EB0F0895833859F40E943F0EDC
:1020E00080FF3FC083E50E94F70A0E94EB0F83E563
:1020F000EECF843859F40E943F0E82FF32C087E44D
:102100000E94F70A0E94EB0F87E4E1CF9CEF980F43
:10211000913AE8F290E2980F983050F4877091E08D
:1021200001C0990F8A95EAF7892F0E94E30AD1CF5F
:102130009BE5980F933028F490E080E00E94DF0741
:10214000089598E5980F993128F490E080E00E9476
:10215000BA07089593E3980F933118F460E00E9452
:102160004B0C0895CF93C82F8823C9F08238C9F447
:102170000E943F0E81FD13C089E30E94F70A0E946E
:10218000EB0F2FEF87EE93E0215080409040E1F776
:1021900000C0000089E30E94EA0A0E94EB0FCF9181
:1021A00008958338A1F40E943F0E80FDF8CF83E5A7
:1021B0000E94F70A0E94EB0F2FEF81EE94E021506E
:1021C00080409040E1F700C0000083E5E4CF843810
:1021D000A1F40E943F0E82FDE2CF87E40E94F70A3D
:1021E0000E94EB0F2FEF81EE94E021508040904051
:1021F000E1F700C0000087E4CECF8CEF8C0F813A6E
:1022000068F4E0E8F4E08191C817E9F124E0E638E9
:10221000F207C9F78C2F0E94F70ABFCF80E28C0F1C
:10222000883068F4C77021E030E001C0220FCA9501
:10223000EAF78091A009822B8093A009AECFEBE54D
:10224000EC0FE33040F4F0E0EA5CFB4F808190E07B
:102250000E94DF07A4CFE8E5EC0FE93150F4F0E08D
:10226000EE0FFF1FE75CFB4F808191810E94BA0750
:1022700096CF83E38C0F833108F091CF61E08C2FF0
:102280000E944B0C8CCF8C2F0E94EA0A0E94EB0F0D
:10229000C1CF1F93CF93DF93182FD0E0C0E08933D5
:1022A00011F4C0E5D0E0812F0E94B210209739F4DC
:1022B000812F0E945810DF91CF911F9108958FE9CF
:1022C0009FE00197F1F700C000002197EFCF0F9337
:1022D0001F93CF93DF93C62FD42F022FFC0182814F
:1022E0008823A9F06093390A0E94AE079093380AB8
:1022F0008093370AC77081E001C0880FCA95EAF75A
:102300000E944E10DF91CF911F910F9108958091FF
:10231000390A681332C08091370A9091380A0E94B6
:102320009307883C910548F510E21D0FCD17B9F0D1
:1023300080E28C0F883040F4C77081E001C0880FC4
:10234000CA95EAF70E944710183048F481E09D2FA3
:10235000977001C0880F9A95EAF70E944E10802F5F
:102360000E944911183070F6D77081E001C0880FC3
:10237000DA95EAF70E944710C5CFC77081E001C027
:10238000880FCA95EAF7F6CFB0E0A0E0EAECF1E1F9
:102390000C94D62EE82FF0E0E05BF54FD490282F78
:1023A00026952695269530E0F901E05CF54F0491DD
:1023B000877010E0082E02C0159507950A94E2F781
:1023C00001701127F901E05DF54FE490F12C082E22
:1023D00002C0F594E7940A94E2F791E0E922FF2421
:1023E000F901E05EF54FC491D0E002C0D595C795E4
:1023F0008A95E2F7C170DD270115110519F081EE0C
:102400000E94B210E114F10419F086EE0E94B2109D
:102410008D2D0E944911E114F10419F086EE0E94FD
:1024200058100115110519F081EE0E945810CD2B9E
:1024300019F08CE20E944911CDB7DEB7E7E00C94A9
:10244000F22EFF920F931F93CF93DF938C018AE0BC
:10245000F82EF8018491882309F44BC0813009F0EB
:1024600044C0E8012196FE018491813049F421960F
:10247000FE0184910E9449118E010F5F1F4FE9CF29
:10248000823039F4E8012296FE0184910E94B21054
:10249000F3CF833039F4E8012296FE0184910E9443
:1024A0005810EACF843041F7E8012296FE012491CA
:1024B00090E080E0FE0131962053330B2A30310545
:1024C00048F00197C8F2EFE9FFE03197F1F700C05B
:1024D0000000F7CFF89EA001F99E500D1124C9010C
:1024E000840F951F2491EF01E5CF0E94C411E801EC
:1024F000C3CFCDB7DEB7E5E00C94F42E8E36910550
:1025000008F06BC38057904DFC010C942A2F662372
:1025100009F463C380E696E00E94211208956623C1
:1025200009F45BC38BE596E00E94211208956623AF
:1025300009F453C387E596E00E94211208956623AB
:1025400009F44BC382E596E00E94211208956623A8
:1025500009F443C38EE496E00E9421120895662395
:1025600009F43BC38AE496E00E9421120895662391
:1025700009F433C385E496E00E942112089566238E
:1025800009F42BC381E496E00E942112089566238A
:1025900009F423C38DE396E00E9421120895662377
:1025A00009F41BC389E396E00E9421120895662373
:1025B00009F413C385E396E00E942112089566236F
:1025C00009F40BC380E396E00E942112089566236C
:1025D00009F403C38CE296E00E9421120895662359
:1025E00009F4FBC288E296E00E9421120895662356
:1025F00009F4F3C284E296E00E9421120895662352
:1026000009F4EBC280E296E00E942112089566234D
:1026100009F4E3C28CE196E00E942112089566233A
:1026200009F4DBC288E196E00E9421120895662336
:1026300009F4D3C284E196E00E9421120895662332
:1026400009F4CBC28CE096E00E9421120895662323
:1026500009F4C3C287E096E00E9421120895662320
:1026600009F4BBC283E096E00E942112089566231C
:1026700009F4B3C28FEF95E00E94211208956623FA
:1026800009F4ABC28BEF95E00E94211208956623F6
:1026900009F4A3C286EF95E00E94211208956623F3
:1026A00009F49BC28EEE95E00E94211208956623E4
:1026B00009F493C289EE95E00E94211208956623E1
:1026C00009F48BC284EE95E00E94211208956623DE
:1026D00009F483C28FED95E00E94211208956623CC
:1026E00009F47BC28BED95E00E94211208956623C8
:1026F00009F473C287ED95E00E94211208956623C4
:1027000009F46BC283ED95E00E94211208956623BF
:1027100009F463C28DEC95E00E94211208956623AE
:1027200009F45BC287EC95E00E94211208956623AC
:1027300009F453C283EC95E00E94211208956623A8
:1027400009F44BC28FEB95E00E9421120895662395
:1027500009F443C28BEB95E00E9421120895662391
:1027600009F43BC286EB95E00E942112089566238E
:1027700009F433C280EB95E00E942112089566238C
:1027800009F42BC28CEA95E00E9421120895662379
:1027900009F423C288EA95E00E9421120895662375
:1027A00009F41BC282EA95E00E9421120895662373
:1027B00009F413C28DE995E00E9421120895662361
:1027C00009F40BC287E995E00E942112089566235F
:1027D00009F403C282E995E00E942112089566235C
:1027E00009F4FBC18CE895E00E942112089566234C
:1027F00009F4F3C188E895E00E9421120895662348
:1028000009F4EBC180E895E00E9421120895662347
:1028100009F4E3C18AE795E00E9421120895662336
:1028200009F4DBC186E795E00E9421120895662332
:1028300009F4D3C182E795E00E942112089566232E
:1028400009F4CBC18DE695E00E942112089566231C
:1028500009F4C3C187E695E00E942112089566231A
:1028600009F4BBC183E695E00E9421120895662316
:1028700009F4B3C18EE595E00E9421120895662304
:1028800009F4ABC18AE595E00E9421120895662300
:1028900009F4A3C186E595E00E94211208956623FC
:1028A00009F49BC18EE495E00E94211208956623ED
:1028B00009F493C18AE495E00E94211208956623E9
:1028C00009F48BC185E495E00E94211208956623E6
:1028D00009F483C181E495E00E94211208956623E2
:1028E00009F47BC18CE395E00E94211208956623D0
:1028F00009F473C187E395E00E94211208956623CD
:1029000009F46BC182E395E00E94211208956623C9
:1029100009F463C18EE295E00E94211208956623B6
:1029200009F45BC186E295E00E94211208956623B6
:1029300009F453C182E295E00E94211208956623B2
:1029400009F44BC18DE195E00E94211208956623A0
:1029500009F443C188E195E00E942112089566239D
:1029600009F43BC18EE095E00E9421120895662390
:1029700009F433C189E095E00E942112089566238D
:1029800009F42BC184E095E00E942112089566238A
:1029900009F423C18FEF94E00E9421120895662369
:1029A00009F41BC18BEF94E00E9421120895662365
:1029B00009F413C186EF94E00E9421120895662362
:1029C00009F40BC181EF94E00E942112089566235F
:1029D00009F403C18CEE94E00E942112089566234D
:1029E00009F4FBC085EE94E00E942112089566234D
:1029F00009F4F3C080EE94E00E942112089566234A
:102A000009F4EBC08CED94E00E9421120895662336
:102A100009F4E3C085ED94E00E9421120895662335
:102A200009F4DBC080ED94E00E9421120895662332
:102A300009F4D3C08BEC94E00E9421120895662320
:102A400009F4CBC087EC94E00E942112089566231C
:102A500009F4C3C083EC94E00E9421120895662318
:102A600009F4BBC08FEB94E00E9421120895662305
:102A700009F4B3C08BEB94E00E9421120895662301
:102A800009F4ABC087EB94E00E94211208956623FD
:102A900009F4A3C08FEA94E00E94211208956623EE
:102AA00009F49BC087EA94E00E94211208956623EE
:102AB00009F493C083EA94E00E94211208956623EA
:102AC00009F48BC08EE994E00E94211208956623D8
:102AD00009F483C08AE994E00E94211208956623D4
:102AE00009F47BC083E994E00E94211208956623D3
:102AF00009F473C08DE894E00E94211208956623C2
:102B000009F46BC087E894E00E94211208956623BF
:102B100009F463C083E894E00E94211208956623BB
:102B200009F45BC08DE794E00E94211208956623AA
:102B300009F453C088E794E00E94211208956623A7
:102B400009F44BC083E794E00E94211208956623A4
:102B500009F443C08DE694E00E9421120895662393
:102B6000E1F189E694E00E94211208956623A9F11B
:102B700084E694E00E9421120895662371F18DE5A8
:102B800094E00E9421120895662339F189E594E0CA
:102B90000E9421120895662301F184E594E00E94C9
:102BA000211208956623C9F08EE494E00E94211258
:102BB0000895662391F086E494E00E94211208951E
:102BC000662359F080E494E00E9421120895662360
:102BD00021F08CE394E00E94211208951F93CF937B
:102BE000DF93EC011AE08881882309F43EC081302C
:102BF000C9F599818A81913029F422960E94491160
:102C00002196F1CF923021F422960E94B210F8CF93
:102C1000933021F422960E945810F2CF943011F094
:102C20002196EECF229630E020E0AE014F5F5F4F5D
:102C30008053990B8A30910550F02150310900F3EF
:102C40008FE99FE00197F1F700C00000F6CF129FD7
:102C5000B001139F700D11249C01260F371F89812D
:102C6000EA01E3CF0E94C411CBCFDF91CF911F9136
:102C70000895CF931092A009C6E0E0E8F4E0DF01E8
:102C80008C2F1D928A95E9F790E080E00E94DF0783
:102C900090E080E00E94BA071092A6090E94EB0F14
:102CA000E8E6F9E0DF011D92CA95E9F710926109A3
:102CB00010926209109263090E945808CF910895FA
:102CC000AAE2B0E0E6E6F6E10C94DA2E8FE29AE0B2
:102CD0002091F100FC012193CF01FAE087339F0797
:102CE000B9F78091300A833009F470C0B8F48130AC
:102CF00009F447C0823009F4B1C08091E80083FF35
:102D00007EC280912F0A9091300A9A3008F077C2E3
:102D1000E92FF0E0E250F04D0C942A2F8A3009F4AC
:102D20008CC08B3009F46FC0893039F780912F0A3D
:102D3000813219F78091330A9091340A0297E8F6AC
:102D40008091E800877F8093E8008091E80082FF0F
:102D500038C09091F3008091F200029731F4809195
:102D6000F100813011F0863021F48091F1008093E0
:102D7000220A8091E8008B778093E8000E94860603
:102D8000BCCF80912F0A813A09F0B7CF8091E8003B
:102D9000877F8093E8008091330A9091340A892BD1
:102DA00061F468E083E29AE070E00E94320780916B
:102DB000E8008B778093E800A0CF60E090E080E0AF
:102DC000F3CF80912D0A8111C0CF97CF80912F0A28
:102DD000813A09F092CF8091330A9091340A892B7D
:102DE00009F08BCF8091E800877F8093E800809185
:102DF000E80080FFFCCF809130048093F100809147
:102E0000E8008E77B9CF80912F0A813209F075CF13
:102E10008091330A9091340A892B09F06ECF80910A
:102E2000E800877F8093E8000E9486068091310A3F
:102E3000809330040E94391660CF80912F0A81322E
:102E400009F05BCF8091E800877F8093E8000E94C3
:102E500086068091320A8093210A4FCF80912F0AF3
:102E6000813A09F04ACF8091E800877F8093E8009B
:102E70008091E80080FFFCCF8091210ABECF80388E
:102E800099F0823809F0BBC18091330A8F70873086
:102E900008F0B5C18093E9008091EB0085FB88279D
:102EA00080F91092E90006C080912B0A90912C0ABB
:102EB000911182609091E800977F9093E800809351
:102EC000F1001092F1008091E8008E7794C1882380
:102ED00009F482C1823009F092C18091310A8111D6
:102EE00085C18091330A8F702FEF280F263008F0AC
:102EF00086C18093E9002091EB0020FF77C19330D9
:102F000031F48091EB0080628093EB006FC190916F
:102F1000EB0090619093EB0021E030E001C0220FC4
:102F20008A95EAF72093EA001092EA008091EB007C
:102F30008860EACF811163C11091310A1F778091B7
:102F4000E3008078812B8093E3008091E800877F05
:102F50008093E8000E9486068091E80080FFFCCF05
:102F60008091E30080688093E30082E0111183E0A8
:102F700080932D0A44C18058823008F040C180916E
:102F8000310A9091320A8C3D23E09207A1F583E04B
:102F90008A838AE289834FB7F894DE01139620E092
:102FA0003EE051E2E32FF0E050935700E49120FF20
:102FB00003C0E295EF703F5FEF708E2F90E0EA3034
:102FC000C0F0C7968D939D932F5F243159F74FBF63
:102FD0008091E800877F8093E8006AE270E0CE018C
:102FE00001960E9432078091E8008B778093E80079
:102FF00006C1C096E7CF4091330A5091340A292F79
:1030000033272330310509F444C078F521303105E8
:1030100009F46FC08BE390E0EBE8FBE02230310570
:1030200009F0EDC02091E800277F2093E80020916F
:10303000350A3091360A8217930708F49C0140E064
:103040002115310509F064C0411162C08091E8008A
:1030500082FDC9CF80912D0A882329F2853019F28B
:103060008091E80083FFF2CFBECF21323105A9F174
:103070002232310509F0C3C04115510509F443C09E
:103080004130510509F0BBC08BE790E0E0EDFAE07C
:10309000C9CF992781309105C1F0009759F0029767
:1030A00009F0ADC0E8EDFBE0E4918E2F90E0E8ED93
:1030B000FBE007C0ECEFFBE0E4918E2F90E0ECEF3B
:1030C000FBE0009709F49BC0ADCFE6EEFBE0E49196
:1030D0008E2F90E0E6EEFBE0F4CF4115510571F044
:1030E0004130510509F08BC089E090E0E6EBFBE050
:1030F00099CF82E190E0E6ECFBE094CF89E090E0AC
:10310000EDE9FBE08FCF80E490E0EBE4FBE08ACFD9
:1031100080912D0A882309F466CF853009F463CFA6
:103120008091E80083FD5FCF8091E80082FD8ECF23
:103130008091E80080FF84CF9091F3008091F200AD
:103140002115310519F08830910550F041E00897BC
:1031500009F040E08091E8008E778093E80070CF1E
:1031600044914093F1003196215031090196E8CF06
:10317000803809F044C08091E800877F8093E800A0
:1031800080912E0A8093F1009ECE811138C010915B
:10319000310A1230A0F58091E800877F8093E80023
:1031A00010932E0A0E948606112311F084E005C0B8
:1031B0008091E30087FDFACF81E080932D0A42E001
:1031C00061EC81E00E94A50642E261EC82E00E948F
:1031D000A50680912D0A13C08091310A813079F4BF
:1031E00081E0933009F080E080932C0A1092E9008E
:1031F0008091E800877F8093E8000E948606809196
:10320000E80083FF0AC08091E800877F8093E80090
:103210008091EB0080628093EB00AA96E3E00C942F
:10322000F62E0E9439162FEF84E39CE02150804057
:103230009040E1F700C0000088E19AE00FB6F894F2
:10324000A895809360000FBE90936000FFCFA4E02C
:10325000B0E0EDE2F9E10C94D92E409119095091BA
:103260001A0960911B0970911C092FB7F89480917D
:103270001C0A90911D0AA0911E0AB0911F0A2FBF2F
:10328000841B950BA60BB70B11E084369105A105A5
:10329000B10590F10E941C0E882399F10E94A207AB
:1032A0006E5F7F4F8F4F9F4F69837A838B839C83A1
:1032B0008091150190911601835E964F4091140103
:1032C00050E04530510510F044E050E0BE016F5F22
:1032D0007F4F0E94852F82E090E00E94552E182F8C
:1032E000882351F00E94A2076093190970931A096C
:1032F00080931B0990931C09812F2496E4E00C9481
:10330000F52E0E94A20700913409109135092091F1
:10331000360930913709600F711F821F931FC0CF8C
:10332000A8E0B0E0E6E9F9E10C94DB2E85E0EBE9FA
:10333000F9E0DE01119601900D928A95E1F78091F6
:103340006E0990916F09A09170098E839F83A88761
:10335000288540912F095091300960913109709171
:1033600032093FB7F89480911C0A90911D0AA091F0
:103370001E0AB0911F0A3FBF841B950BA60BB70B0B
:1033800084369105A105B10510F4222319F180912D
:103390001D0190911E01835E964F40911C0150E0EB
:1033A0004930510510F048E050E0BE016F5F7F4F9B
:1033B0000E94852F83E090E00E94552E882369F0BB
:1033C0000E94A20760932F097093300980933109FE
:1033D000909332091092700981E02896E2E00C94F3
:1033E000F72EEF92FF921F93CF93DF9300D000D080
:1033F00000D0CDB7DEB77B0190E080E00E94552E73
:10340000182F882309F480C04091070150E041152E
:10341000510511F041E050E06091080170910901FF
:10342000635E764FCE0106960E94852F4091150966
:103430005091160960911709709118092FB7F894E7
:1034400080911C0A90911D0AA0911E0AB0911F0A3A
:103450002FBF841B950BA60BB70B84369105A105D6
:10346000B10540F48EE199E00E941F069E81891704
:1034700009F44AC081E090E00E94552E811116C0E7
:1034800010E085E0E0E1F9E0D70101900D928A9526
:10349000E1F7812F26960FB6F894DEBF0FBECDBFA1
:1034A000DF91CF911F91FF90EF90089540910F0110
:1034B00050E04630510510F045E050E060911001B9
:1034C00070911101635E764FCE0101960E94852FA7
:1034D0008EE199E00E941F069E818913D1CF0E9440
:1034E000A2076093150970931609809317099093AA
:1034F000180985E0FE013196A0E1B9E001900D9236
:103500008A95E1F711E0BDCF85E0EEE1F9E0DE015B
:10351000119601900D928A95E1F71111EACFB1CF82
:10352000A2E1B0E0E6E9FAE10C94D02E8E010F5F43
:103530001F4F8AE0D8011D928A95E9F78DE6C82EC3
:1035400084E0D82EF12CE12CAA24A394B12C29E7F5
:10355000822E24E0922EF60181916F018F3F09F4B3
:1035600042C0F894E82FE295EF70F0E021A18F704F
:10357000A50102C0440F551F8A95E2F7CA01922F98
:10358000982B91A392A18095892382A3789400C05F
:10359000E2E7F4E0712C31E021912F3F09F46BC098
:1035A000A22FA295AF70B0E090968C9190E02F7012
:1035B00002C0959587952A95E2F780FD5CC0832F20
:1035C000782A330F8E169F0639F7F60131978081DE
:1035D0008F3F11F00E94C30850EA5A95F1F7F801A5
:1035E000EE0DFF1D70828FEFE81AF80AA5E0EA16CB
:1035F000F10409F0B0CF4AE050E0B80188E399E067
:103600000E94782F009741F02AE0F801A8E3B9E082
:1036100001900D922A95E1F700914309892B69F1F8
:1036200081E0809307090E94AE079093060980937A
:10363000050980910509909106090E949307059755
:1036400000F110E0055B164F45E050E068E379E0DB
:10365000C8010E94782FD12C892B51F085E0E8E336
:10366000F9E0D80101900D928A95E1F7DD24D39419
:103670001092070907C080E0A3CF8091070981114C
:10368000D8CFD12C0E941C0EC82EE091430988236C
:1036900009F475C07E01BBE0EB0EF11C85E0D7019B
:1036A0001D928A95E9F70E2F10E0055B164F809169
:1036B00033098A3090F541EF59E1B701C8010E9402
:1036C000E90D882309F44AC047E259E1B701C8016E
:1036D0000E94E90D882309F441C040E959E1B7018E
:1036E000C8010E94E90D8823C9F110923309809125
:1036F000420990E045E050E0B701855B964F0E949B
:10370000782F21E020930E09892BD9F4C12C8C2D20
:103710008D296296EDE00C94EC2E80910809909131
:1037200009090E949307843F914028F680910E0971
:10373000882361F385E0F70111928A95E9F71092E9
:103740000E09A0914209B0E0A55BB64F85E0FE01ED
:103750003B9601900D928A95E1F7D9CF809133097C
:103760008F3F31F08F5F809333098A3008F4BFCFE9
:103770000E94AE079093090980930809D7CFF0E023
:10378000E55BF64F85E0AEE1B9E001900D928A95D8
:10379000E1F78EE199E00E941F0680931D09809059
:1037A000230990902409A0902509B09026098091C2
:1037B0000A0990910B09A0910C09B0910D09881686
:1037C0009906AA06BB06D1F080920A0990920B09CD
:1037D000A0920C09B0920D090E941C0E81110EC01E
:1037E0000E94A207861A970AA80AB90A8092340989
:1037F00090923509A0923609B092370988E0E7E245
:10380000F9E0DE011B9601900D928A95E1F7809117
:103810002709869500912809F0902909E0902A0946
:1038200010912E0910922E09112309F470CF10FF68
:103830000BC02B8590919B0920FF0FC09160909346
:103840009B0960E00E94A10F11FF61CF20E04E2D87
:103850006F2D802F0E94630E5ACF9E7F90939B09FD
:10386000809170098160809370090E94B40DECCF43
:103870009091470992FB222720F9281779F080FBC5
:1038800092F990934709609146097091470984E045
:1038900090E00E94622F82E00E94DB0B089567EEA9
:1038A0007EEF90E080E00E94622F60E082E090E096
:1038B0000E94442F60E083E090E00E94442F109229
:1038C00004091092030960E074E184E090E00E9432
:1038D000622F60E086E090E00E94442F6FEF87E067
:1038E00090E00E94442F40E050E0BA0188E090E070
:1038F0000E94562F60E08DE090E00E94442F40E04F
:1039000050E0BA0188E190E00E94562F60E087E124
:1039100090E00E94442F40E050E0BA018CE190E03A
:103920000E94562F70E060E080E290E00E94622FDB
:1039300040E050E0BA0188E190E00E94562F40E05C
:1039400050E0BA018FE090E00E94562F40E050E036
:10395000BA0183E190E00E94562F0895B0E0A0E004
:10396000E4EBFCE10C94D42E8C01FC018381948166
:10397000892B31F08081918189238F3F09F03FC6E7
:10398000CDB7DEB7E9E00C94F02EF8018281811109
:103990000BC0C435FCE7DF0709F46CC040F5C33544
:1039A0003CE7D30709F445C080910209C5302EE7F2
:1039B000D20709F438C108F000C1CC32D10509F4AE
:1039C0001DC1C4309EE7D90709F424C1C337FCE701
:1039D000DF0709F053C1F80182818823C9F1809182
:1039E000A309882309F447C10E94331031C0C635AA
:1039F0008CE7D80709F44CC0C7359CE7D907A1F676
:103A0000C0900001D0900101E0904409F090450978
:103A10000E94391690E080E00E94C40BCEE7D8E007
:103A2000CC16DD0609F447C0CE010E94AE1C2897D3
:103A3000F7CF0E94391690E080E00E94C40B86E820
:103A400094E0909387088093860881E080938808AB
:103A50008091F908877009F493CFF8018281882357
:103A600009F48ECF8091470982FF8ACF82E00E94BD
:103A7000DB0B86CF0E94391690E080E00E94C40BD9
:103A80008EE798E0909387088093860882E0DECFE7
:103A9000C0900201D0900301E0904409F0904509E4
:103AA0000E94391690E080E00E94C40BC6E8D4E082
:103AB000CC16DD0631F40E943916C7010E94C40BF2
:103AC000C7CFCE010E94AE1C2896F2CF8091860807
:103AD00090918708F4E086389F0729F0FC01389719
:103AE0002281211105C09093030180930201A8C592
:103AF000CF01F0CF809186089091870828E08E371B
:103B0000920729F0FC0138962281211105C090937B
:103B100001018093000194C5CF01F0CF813031F1D4
:103B2000823009F041CF2091020130910301A09130
:103B30008608B0918708F8018281811105C0F8E0FC
:103B4000AE37BF0709F430CFCD01089628173907E3
:103B500009F42ACF88E0F80101900D928A95E1F7E7
:103B60008091860890918708089722C020910001D3
:103B700030910101A0918608B0918708F8018281F7
:103B8000811105C0F4E0A638BF0709F40DCFCD01BF
:103B900008972817390709F407CF88E0F801019042
:103BA0000D928A95E1F78091860890918708089692
:103BB0009093870880938608F7CEC730EEE7DE073C
:103BC00009F441C0C8F1C8302EE7D20709F0FECE93
:103BD000F8019281992309F451C06DE370E180E30B
:103BE00092E00E94530D80E30E94B21080E30E9495
:103BF000581068E270E180E392E039C0982F927229
:103C0000E9F1F8018281882309F422CF8DE20E9434
:103C100049111ECFF8018281882309F419CF82E06F
:103C20000E94DB0B15CFF8019281992339F182E3D1
:103C300094E00E94EE150CCFF80192819923F1F0E7
:103C400081E394E0F6CFF80192819923B9F06DE316
:103C500070E18FE292E00E94530D8FE20E94B21059
:103C60008FE20E94581068E270E18FE292E00E94B9
:103C7000530D88E2CCCF0E94CF0AEACEF090A00983
:103C8000F82A8091A309811110C0F2E2FF1202C04C
:103C90000E94CF0AFE01E851FC47E730F10508F029
:103CA00053C0E85FFF4C0C942A2F0E94AE07885740
:103CB0009C4E9093A2098093A109F80182818823E8
:103CC00049F38F2D8D7909F070C0C034F2E5DF071C
:103CD00068F5C11522E5D207B8F5C11530E4D30760
:103CE00050F4C11580E2D80708F053C0C63ED10594
:103CF00059F1CE010AC0C11590E5D907D0F7F801F6
:103D00008581807F39F2CE0199271092A6098832E9
:103D1000910508F055C08E31910508F058C0049700
:103D200008F443C082E08093A60951C0C43BE2E599
:103D3000DE0751F0CE01C53BF2E5DF0720F58056E6
:103D4000924580349105A8F6F8018281882309F410
:103D50008FC41092390ACE019057839708F073C42C
:103D600084E090E00E943E2F90934709809346099B
:103D7000FE01E150F047E232F10508F050C0E15F8A
:103D8000FF4C0C942A2F805C9245809708F0B1CFAD
:103D9000DBCFF8018581807F09F0B5CF8D2F8F7142
:103DA000823159F028F4823041F00E94331072CFF2
:103DB000843109F46FCF8631C1F71092A609F5CF8F
:103DC0008D32910509F4AECF28F48A9771F70E94DD
:103DD000EB0F60CF8C349105D1F38D329240B9F363
:103DE000E4CF26E241EE61EEC8010E94671130CEB9
:103DF00027E245EE65EEF8CF26E241EE60EEF4CF25
:103E000027E245EE64EEF0CF26E241EE62EEECCF23
:103E100027E245EE66EEE8CF28E241E0EBCF809165
:103E2000460981608093460995C080914709886062
:103E3000809347098FC0809146098260F3CF8091BB
:103E400046098460EFCF809146098860EBCF80916E
:103E500047098160EDCF809147098260E9CF809169
:103E600046098061DFCF809146098062DBCF809177
:103E700046098064D7CF0E94391680914609806830
:103E8000D1CF809146098C60CDCF80914709836066
:103E9000CFCF809146098E7FC5CF80914709877F1C
:103EA000C7CF809146098D7FBDCF809146098B7F1A
:103EB000B9CF80914609877FB5CF809147098E7F22
:103EC000B7CF809147098D7FB3CF809146098F7E10
:103ED000A9CF809146098F7DA5CF809146098F7B20
:103EE000A1CF0E943916809146098F779BCF809190
:103EF0004609837F97CF809147098C7F99CF809126
:103F0000460982FB992790F921E0922790FB82F9DC
:103F100090FB83F987CF80914709982F90959170F6
:103F20008E7F892B90FB81F983CF90914609892F51
:103F30008F7B96FF806476CF0E9439169091460958
:103F4000892F97FB87F980586DCF61E08EE090E074
:103F50000E94442F609146097091470984E090E0E7
:103F60000E94622F0E94391673CD60E0EFCF9091CE
:103F70004609892F8F7E94FF806154CF9091460926
:103F8000892F8E7F90FF81604DCF90914709892FB7
:103F9000877F93FF88604CCF85E365C38091890854
:103FA000811104C089E20E94EA0A5FC385E3FBCF66
:103FB00080919B0980FF15C08E7F80939B09609143
:103FC0009B0970919C0980919D0990919E090E9486
:103FD000500E809170098160809370090E94B40D29
:103FE00037CD816080939B0961E086950E94A10F87
:103FF0002FCD44EC5FE06EEC7FE00E94430828CDBB
:104000004EEC5FE064EC7FE0F8CF49E65FE063E709
:104010007FE0F3CF43E75FE069E67FE0EECF4FE478
:104020005FE06CE57FE0E9CF4CE55FE06FE47FE0C7
:10403000E4CF45E35FE062E47FE0DFCF42E45FE0AE
:1040400065E37FE0DACF4DE75FE06FE87FE0D5CF53
:104050004FE85FE06DE77FE0D0CF61E081E0C6CF61
:10406000C330FCE7DF0709F470C008F044C0C11595
:104070003CE7D30709F44DC0C130DC4709F46BC0FD
:10408000F80186819781009709F473C00E943A096C
:10409000D82FC92FF801C280B580B2943FE0B32277
:1040A0008091F9088770C1F0EC2CCC20B1F0892FF9
:1040B000807F803421F080E28D0F883068F080911D
:1040C000470982FF09C082E00E94DB0B8091F9085A
:1040D0008770EE24E3948111E12CDC2ED2942FE042
:1040E000D222FBE0FD1508F4C2C0ED2DF0E0EF5C3C
:1040F000FF4C0C942A2FCB359CE7D907C1F1CC3566
:10410000ECE7DE0751F1CA35DC4709F0B9CF81E0B1
:104110002BC00E9439162FEF34E38CE02150304041
:104120008040E1F700C0000087E797E7909301081F
:104130008093000888E19AE00FB6F894A8958093E0
:1041400060000FBE90936000FFCF6FEF7FEF90E0B5
:1041500080E00E94622F0E9411198091470982FB22
:10416000882780F991E089270E94381C89CF80E058
:10417000FBCF8281C081D181882369F0CE010E946A
:104180001A0BF82E682FCE010E948E0BBE018F2DC8
:104190000E941D097BCFCE010E945B0BF82EF6CF4B
:1041A0002C2F2F70F22EC07F19F0F29490EFF9228D
:1041B000CC20B9F0FF2069F080E28D0F883010F03C
:1041C000D11109C08091A009F82AF092A0090E949B
:1041D000EB0F8D2F4AC08091A609F82AF092A6090C
:1041E000F6CF8D2F0E945810FF2009F440C080E2C6
:1041F0008D0F883010F0D11104C08F2D0E94E30A7A
:1042000006C0F0948091A609F822F092A6090E94B7
:10421000EB0F2DC03C2F3F70F32EC07FC03219F042
:10422000F29480EFF822DD2381F0D13009F494C0BC
:10423000CC2009F49EC0BB2009F494C0F80185810C
:1042400080FFC7CF8F7085838DC08091470982FD25
:1042500037C0CC2079F1FF2039F08091A009F82AED
:10426000F092A0090E94EB0F80E00E94B210ED2DA9
:10427000E850FF0B349710F40E943F0EEE20A9F097
:104280008091F90880FD11C0F8011282859585950D
:1042900085950E94F70BC8010E94AE1C8091F90819
:1042A0008595859585950E94C90B60E0C8010E949F
:1042B000230D66CB80E00E945810FF20C1F29DCFF5
:1042C000CC2031F1B11006C0809102098F290E94E3
:1042D0004E10CDCF91E0B9120AC082FFC8CF8091B5
:1042E0000209F82AF81619F2F0920209C0CFE2E0AA
:1042F000BE12EACF8F2D0E944E100E94C90A8091F3
:104300008A08F82AF81609F4B2CFF0928A08AFCFDB
:10431000B11006C00E94C90A8F2D0E944710A7CF76
:10432000F1E0BF120FC08091A0098F2109F49FCF47
:104330008F2D0E9447100E94C90A80918A08F0942C
:10434000F822E0CF22E0B21609F491CF8F2D0E941F
:1043500047100E94C90A8BCFCC2031F032E03B15C8
:1043600008F485CF8F2DB3CF81E08B1508F47FCF74
:10437000D3CFBB2089F2D93349F4FFEF27EE33E0E6
:10438000F15020403040E1F700C000008D2F0E9426
:1043900058106DCF8C2F86958695837069F081308B
:1043A00009F065CF8D2F9C2F9370C11002C080E063
:1043B00090E00E94BA075BCF8D2F9C2F9370C110A5
:1043C00002C080E090E00E94DF0751CF6C2D8D2F5E
:1043D0000E944B0C4CCF8C2F837009F03FC0C11052
:1043E00046CF4D2F429546954770440F440F2D2FD1
:1043F0002F7030E0042E02C0220F331F0A94E2F720
:1044000090E080E0D4FF09C08FE090E002C0880F08
:10441000991F4A95E2F780959095C695C695C37009
:10442000C23099F078F44091030950910409C130E9
:1044300039F0822B932B842395230E94150C17CFE0
:10444000242B352B822B932BF8CF822B932B20916F
:1044500003093091040982279327EFCF8695CC205A
:1044600011F08C2F8170882309F401CF4D2F4295D4
:1044700046954770440F440F2D2F2F7030E0042EC7
:1044800002C0220F331F0A94E2F790E080E0D4FFCD
:1044900009C08FE090E002C0880F991F4A95E2F7AB
:1044A00080959095C695C695C370C23099F078F402
:1044B0004091440950914509C13039F0822B932B2A
:1044C000842395230E94C40BD2CE242B352B822B20
:1044D000932BF8CF822B932B2091440930914509DF
:1044E00082279327EFCFCF70CC2029F08C2F0E940A
:1044F000F70B8D2FECCE8D2F0E9447108C2F0E9432
:10450000C90BB5CED23F71F160F4D03FB9F0D13FC5
:1045100081F0CC2009F463C0B1105BCE8C2F8F7179
:1045200025C0D33F31F1D43FA1F78091470982FDE7
:104530002EC08C2F8F71CC2011F318C0CC2069F0C5
:1045400081E08B1508F493CECF7181E090E002C03A
:10455000880F991FCA95E2F7BFCF92E09B1508F428
:1045600086CEF2CF8C2F8F71C110C9CF0E94F70B6E
:104570007ECE90E080E0CC2009F4A4CFCF7181E022
:1045800090E002C0880F991FCA95E2F79BCFCC201C
:10459000C9F08091F9088770843041F41092F908CD
:1045A0008C2F8F710E94C90BE12C61CEE1E0EB15DD
:1045B000D8F3CF718C2F0E94F70B63E08C2F0E94F1
:1045C000070CF2CFF1E0FB1530F41092F90864E02B
:1045D0008C2F8F71F4CF81E00E94DB0BE5CFBB20E5
:1045E00059F0D93309F0D2CE2FEF37EE83E02150C6
:1045F00030408040E1F7C8CE8C2F8F7180CF61E0D2
:10460000C8010E94230DEC0180918808882309F4D9
:10461000BCC99E0123553C472330310508F07ECAB2
:1046200091E0C535DC4709F490E0F80122812917B3
:1046300009F40ECA813009F449CA823009F45ACA11
:104640001092880805CAC631FCE7DF0709F008CDDB
:104650008091A0098A7A91E009F490E0909389080A
:1046600081119ACC89E20E94F70A0E94EB0FF0C9EF
:10467000C6312CE7D20709F491CC8091A00982724F
:10468000FE01E052F847E531F10508F0F9CCE35CB2
:10469000FF4C0C942A2FCF93DF938091B408807F36
:1046A00009F049C08091B108882309F444C0809181
:1046B000F808D091B7086091AF087091B008A09148
:1046C000B208B091B308C62FC723D817A1F190E064
:1046D000109711F0CF3F19F401968770F6CF9C0127
:1046E00043E0220F331F4A95E1F7F901E854F74FF1
:1046F00041814713F1CF40814613EECF42814111F2
:10470000EBCF438154814A1B5B0B483C510520F79A
:104710008091B4088F7080618093B408F901E354EC
:10472000F74F80818F70806180838FEA98E00E94CC
:10473000AE1C0E94100BDF91CF910895A5E1B0E06F
:10474000E4EAF3E20C94D32E8C0185E0F801DE015B
:10475000519601900D928A95E1F7F801E2806FEA97
:10476000A62E68E0B62E6091B2087091B30861156C
:10477000710509F45CC19091AF084091B008892F90
:1047800084238F3F09F453C120813181C380D480B9
:10479000F090B108F601E61BF70BFF2009F411C1F8
:1047A0008091B408582F507FE83CF10508F0C4C050
:1047B000511175C0FE2C43131EC092131CC0609192
:1047C000B5087091B608F8014681578164177507DE
:1047D00091F4E11010C08F7080618093B408C5011E
:1047E0000E94AE1C8091B408F80185838F2D6596D8
:1047F000EAE00C94EF2EC114D10429F0822F832318
:104800008F3F09F02FC180E0F82FF170DF2E80FF7D
:104810003CC08091F8084091B708841315C0298BDB
:104820003A8B89899A890E944E0B292F22952F70E5
:104830002230F8F0243020F59F70F9F0F8019581CE
:10484000907FD9F4D12C1FC090E0FC0153E0EE0F13
:10485000FF1F5A95E1F7E854F74F5181351306C011
:104860005081251303C05281E5120FC00196877055
:10487000D4CF9F7011F0882329F3805E883010F325
:10488000C8010E94AE1CFD2CB1CFEE2009F4AECFC2
:104890008091B40881608093B408F12CA7CF4313B2
:1048A0001BC0921319C04091B5085091B608F80189
:1048B000268137814217530779F4E1100DC08583B3
:1048C000C8010E94AE1C88E0F801AFEAB8E0019090
:1048D0000D928A95E1F78ACFC8010E941A0C8823AD
:1048E00039F1EE2029F18091B4088032A0F02091B6
:1048F000AF083091B0083A8729871B86DD86CC86C1
:104900008E878091B5089091B608988B8F87CE01DD
:1049100009960E94AE1C88E0F801AFEAB8E0019069
:104920000D928A95E1F70E944B23FF24F3945ECF0A
:10493000C8010E94AE1CF9CF51110AC08FEA98E05D
:104940000E94AE1C88E0F50111928A95E9F7A5CF87
:10495000431318C0921316C04091B5085091B60881
:10496000F801268137814217530761F4E1100AC02C
:104970008583C8010E94AE1C88E0F50111928A95DA
:10498000E9F734CFC8010E941A0C882389F2EE207F
:1049900079F28091B408803208F4BDCF2091AF083D
:1049A0003091B0083A8329831B82DD82CC828E83CA
:1049B0008091B5089091B60898878F83CE010196B3
:1049C000A8CFE83CF105C0F6FE2CEE2009F4B0CFEC
:1049D00043131FC092131DC02091B5083091B60833
:1049E000F801868197812817390799F49091B408C6
:1049F00090FD69CF907F09F466CF8091B4088583DC
:104A0000903F09F45DCF982F907F905F8F70892B36
:104A100056CFC8010E941A0C81117DCF8091B40835
:104A200081608093B408C8010E94AE1CDFCEEE20E6
:104A300009F47ECFC8010E941A0CF82E882309F4CD
:104A400077CF88E0F801AFEAB8E001900D928A953F
:104A5000E1F78091AF089091B0080E944E0B0E9440
:104A60004B23C4CE81E08E25CFCEA0E1B0E0EBE3B6
:104A7000F5E20C94DB2E29873A874B875C876D879C
:104A80007E878F87988BCE0109960E949E23811185
:104A900012C088E0FE013996DE01119601900D9258
:104AA0008A95E1F78C859D85892B29F089859A85E2
:104AB00089238F3F81F58091F8089091B708891379
:104AC00017C06096E2E00C94F72E93E0AA0FBB1F8C
:104AD0009A95E1F7A854B74F98E0FE0131960190FE
:104AE0000D929A95E1F78093B7080E94100BE3CFDF
:104AF000B8E08B9FC00111248854974F0E949E23D9
:104B00008823F9F28091F80890E001968770992740
:104B10008093F808D0CFA091B708B0E0CD010196FE
:104B2000877099272091F8082817190671F60E94B6
:104B300039161092B7081092F80888E0EFEAF8E00A
:104B4000DF011D928A95E9F7B6CF0F931F93CF939C
:104B5000DF938091A809E091A7091CE081111AC098
:104B6000DF91CF911F910F91089501E00E0F0093F7
:104B7000A709CE2FD0E0E19FF0011124E755F64FB1
:104B800083819481892B29F08081918189238F3FB2
:104B9000F9F4E02F8091A809E81738F31092A809DA
:104BA0001092A709DDCF18968D919C918F3F9807A1
:104BB000E1F061E00E947E121C9FF0011D9FF00D4C
:104BC0001124E755F64F148213821092A609E1CF03
:104BD0001C9FD0011D9FB00D1124A755B64F1696EE
:104BE0008D919C911797892BF1F22081318142811F
:104BF000538164817581868197810E943525DCCF40
:104C00001092140A1092130A10922F048091120A23
:104C10008093110A0E9432080E94A5250895B0E0F1
:104C2000A0E0E5E1F6E20C94CB2EC091110AE7E09A
:104C3000FE2E01E010E0FCE02F2EAEEFEA2E809178
:104C4000120A8C1309C00E94A5250E943208CDB714
:104C5000DEB7E2E10C94E72ED0E0FE01EE0FFF1F7D
:104C6000E75FF54F80819181F89EF001F99EF00D8C
:104C70001124E35DFE4F2481211159C03090A80911
:104C8000A9EAB9E030E020E0412C5F01231508F0EB
:104C90004CC01A966D907C901B97F5018080918096
:104CA0004FEF5FEF512CC52CD12CF601EE0FFF1FFB
:104CB000E80DF91D659174916616770609F4A60151
:104CC000672B11F05394EFCF4F3F5407B9F1B80160
:104CD00002C0660F771F4A95E2F7462AA801052C05
:104CE00002C0440F551F0A94E2F74150510944167F
:104CF000150601F5229EF001239EF00D1124E755C3
:104D0000F64FF89ED001F99EB00D1124A35DBE4F61
:104D100012962D913C91139737832683E082E1828E
:104D20009187808771E015967C930E9404082196F4
:104D3000C37085CF14961C921E9213972F5F3F4F1E
:104D40001C96A4CFA9E1B0E0E8EAF6E20C94CB2EE1
:104D5000498B5A8B6B8B7C8B8D8B61111092A609C2
:104D60001D861E861F86188A85E0FE017196DE016B
:104D7000199601900D928A95E1F78C859D85892B76
:104D800031F089859A8589238F3F09F0C4C129852F
:104D90003A854B855C856D857E858F8598890E94D7
:104DA0003525C2C021E5A2162CE7B20629F48823D6
:104DB00079F00E940026EBCF32E5A3163CE7B3065C
:104DC00039F4882329F080912F048111F2CFB3C1E7
:104DD0000DE211E0E12CD12CC12C88248394912C7C
:104DE0009EEF592E44244394F8016081718166241A
:104DF0006A94762C20E0422F50E0FA01EE0FFF1F5C
:104E0000E60FF71F85919491A816B90609F43A01A7
:104E1000892B11F02F5FEFCFF12CFFEF6F167F067C
:104E200009F444C0F8014481F0902F048F2D411102
:104E300080E0F82FF170FF2EF801258086819B8598
:104E4000992309F4F2C0FF2009F4EFC0211014C027
:104E5000A401062C01C0440F0A94EAF7842B868330
:104E60008091A4099091A509C29730F442E350E0E3
:104E70005093A5094093A409C40102C0880F991F4B
:104E80002A95E2F70197F80126812817190671F48F
:104E90008091130A9091140A009709F449C00E9466
:104EA0009307C39708F444C0F8014482EF28FFEF4A
:104EB000CF1ADF0A095F1F4F2EE6C216D10409F090
:104EC00093CF8B85882309F411C1EE2009F40EC11C
:104ED0000E94AE079093140A8093130A8091A80948
:104EE000883010F591E0980F9093A80998E0FE01A2
:104EF0003996DE01119601900D929A95E1F73CE00A
:104F0000839FC00111248755964F28E0FE013196FA
:104F1000DC0101900D922A95E1F72FEF3FEFFC01A4
:104F200031872087B386A2866996E2E10C94E72E4A
:104F30008091110A6090120A982FF0E0E0E086114B
:104F400014C09093110A0E171F0709F4AFCF90E019
:104F5000FC01EE0FFF1FE75FF54FD182C082019683
:104F6000837099278093120AA1CF282E312CF1014A
:104F7000EE0FFF1FE75FF54F20813181F7E0F29FD1
:104F8000D001F39FB00D1124A35DBE4F2D913C9134
:104F90001197398F288F712C60E070E0E72FF0E0D7
:104FA000EE0FFF1F288D398DE20FF31F25913491ED
:104FB00021153105E1F0F8010190F081E02DFF8B22
:104FC000EE8B60E005C02417350709F47F2C6F5F76
:104FD000E62FF0E0EE0FFF1F4E895F89E40FF51F0B
:104FE000459154914115510571F77F5FD7CF7720D7
:104FF000C9F0F801671708F0FD0144820E171F077A
:1050000021F49093110AF72C51CF981305C0AE17D5
:10501000BF0711F49F5F937091012F5F3F4F822F65
:1050200083708DCFF0E0E0E0F7CF90E0211020C05A
:10503000B40102C0660F771F2A95E2F79B01215049
:1050400031092817390731F4442309F44DC0C6014A
:105050000E940408C401062C01C0880F0A94EAF7D4
:10506000982F9095F801868189238683F22C1ECF94
:105070009C01062C02C0359527950A94E2F7A901F8
:1050800041705527BC016150710986239723892BF4
:1050900039F5452B29F1F80182819381892BD9F0CB
:1050A0001B821C821D821E8259825A820E94AE0778
:1050B0008160582F9D838C83F801828193818F8337
:1050C000988729813A814B816D817E810E943525A7
:1050D000F8011582BFCF60E0C6010E947E12F8CFB2
:1050E000F22FF1702F2EB6CF2F2CB4CF9091110A42
:1050F0008091120A981731F00E940F26EE2009F4D1
:1051000046CE12CF0E94A5251092140A1092130ABF
:105110000E943208F3CF61E0CE0109960E94230D70
:105120005C018B85F0E5AF16FCE7BF0609F03ACECF
:10513000882309F44DCE81E080932F0428CE1F925E
:105140000F920FB60F9211242F933F934F935F93BB
:105150006F937F938F939F93AF93BF93CF93DF937F
:10516000EF93FF93D091E900DF708091EC00C82F9E
:10517000C17080FDC0E81092E9008091F000877F47
:105180008093F00078940E9460161092E90080915C
:10519000F00088608093F000CD2BCF70C093E900C1
:1051A000FF91EF91DF91CF91BF91AF919F918F913F
:1051B0007F916F915F914F913F912F910F900FBE13
:1051C0000F901F9018951F920F920FB60F921124F7
:1051D0002F933F934F935F936F937F938F939F93FF
:1051E000AF93BF93EF93FF938091E10082FF09C0DB
:1051F0008091E20082FF05C08091E1008B7F809367
:10520000E1008091DA0080FF24C08091D80080FF07
:1052100020C08091DA008E7F8093DA008091D900DF
:1052200080FF9DC080E189BD82E189BD09B400FE97
:10523000FDCF81E080932D0A8091200A811109C061
:105240000E9436060E94D7068091E2008460809317
:10525000E2008091E10080FF17C08091E20080FFB2
:1052600013C08091E2008E7F8093E2008091E20083
:1052700080618093E2008091D80080628093D800A2
:1052800019BC85E080932D0A8091E10084FF2BC03A
:105290008091E20084FF27C080E189BD82E189BD61
:1052A00089B5982F917080FFFBCF8091D8008F7DBA
:1052B0008093D8008091E1008F7E8093E1008091FF
:1052C000E2008F7E8093E2008091E2008160809313
:1052D000E20080912E0A882309F447C084E080937D
:1052E0002D0A80912D0A8091E10083FF27C08091D3
:1052F000E20083FF23C08091E100877F8093E1007B
:1053000082E080932D0A10922E0A8091E1008E7F18
:105310008093E1008091E2008E7F8093E200809193
:10532000E20080618093E20042E060E080E00E9461
:10533000A5068091F00088608093F000FF91EF91C6
:10534000BF91AF919F918F917F916F915F914F919D
:105350003F912F910F900FBE0F901F90189519BC81
:1053600010922D0A1092200A74CF8091E30087FDDD
:1053700093E090932D0AB5CF78941F921FB61F9299
:1053800011248F939F93AF93BF9380911C0A9091A8
:105390001D0AA0911E0AB0911F0A0196A11DB11D00
:1053A00080931C0A90931D0AA0931E0AB0931F0AB3
:1053B000BF91AF919F918F911F901FBE1F90189525
:1053C0001F921FB61F9211248F939F93AF93BF9389
:1053D00080911B0A811113C080911C0A90911D0AB3
:1053E000A0911E0AB0911F0A4196A11DB11D809384
:1053F0001C0A90931D0AA0931E0AB0931F0ABF9126
:10540000AF919F918F911F901FBE1F901895CDB7A0
:10541000DEB760970FB6F894DEBF0FBECDBF85B77D
:10542000806885BF85B7806885BF84B7877F84BF64
:105430000FB6F894A8958091600088618093600011
:10544000109260000FBE80E890E00FB6F894809351
:105450006100909361000FBE81EC98E090937D0411
:1054600080937C040E9436060E94D7068091E20059
:1054700084608093E200789480912D0A8823A1F0C3
:105480001091E9001F709091EC00892F817090FDC0
:1054900080E8182B1092E9008091E80083FD0E94BB
:1054A00060161F701093E90082E084BD93E095BD03
:1054B0009AEF97BD80936E001092340910923509CF
:1054C00010923609109237090E941C0E8093240115
:1054D0000E941C0E81110E94692D809124018091EF
:1054E000240195E0811190E09093430985E0891BA8
:1054F000809342090DE614E0D8018D918D018F3F14
:1055000011F00E94C308B4E002371B07A9F702E7B5
:1055100014E059E7E52E54E0F52EF80181918F0152
:105520008F3F11F00E94C308E016F106B1F78AE040
:10553000EBE4F9E0DF01282F1D922A95E9F7E8E373
:10554000F9E0DF011D928A95E9F790E080E00E9482
:105550003E2F873E9E4F11F00E944F1C82E090E04C
:105560000E94302F8093550984E090E00E943E2FE6
:10557000909347098093460983E090E00E94302F82
:1055800090E00E94150C80914809811139C090E08B
:1055900080E00E943E2F873E9E4F21F00E944F1CCC
:1055A0000E94D30F88E090E00E94382F60939B09FF
:1055B00070939C0980939D0990939E098091700936
:1055C0008360809370096E7F71F40E94D30F88E02E
:1055D00090E00E94382F60939B0970939C09809300
:1055E0009D0990939E090E94490880919B0980FF24
:1055F00004C060E086950E94A10F81E08093480975
:105600000E941C0E811102C00E946C2D85E291E067
:105610009093180A8093170A08E110E040E4E42E02
:10562000FF24F39430E1D32E80912D0A22E1C22E83
:10563000853009F481C00E94901A86E5A82E89E081
:10564000B82E9BE4892E99E0992ED401F501919111
:105650008D9149E0E036F40709F478C09817B9F362
:105660000E941C0E382EC12CD4017D904D01F501F5
:1056700041905F01471429F14724612C552453942C
:10568000842D8521B1F03320A1F06C86CD8691E088
:10569000872D852109F490E09E870E94AE078160E6
:1056A000782F988B8F874C855D856E8588890E94C1
:1056B000A2266394550CF7E06F12E2CFF501319703
:1056C0007082C3942AE0C212CFCF0E94A2075EC0AC
:1056D00080912D0A843009F110921B0A0FB6F894BC
:1056E000A895009360000FBEE092600083B7817FB1
:1056F000846083BF83B7816083BF7894889583B7C4
:105700008E7F83BF0FB6F894A89580916000886162
:1057100080936000109260000FBE80912C0A882355
:1057200059F00E94901AEBE4F9E08191811159C17E
:1057300029E0E535F207C9F780912D0A853009F493
:10574000C7CF0E9439160E943F0E75CF981388CF9D
:105750000E94AE075C018091490990914A09A81600
:10576000B906A1F08FEF8F83888719860E94AE0754
:105770008160782F9B878A874F81588569858B85C3
:105780000E94A226B0924A09A09249090E941C0ECA
:105790008823A9F180912F04882301F18091130AB5
:1057A0009091140A0097D1F00E9493072091A409C8
:1057B0003091A5092817390788F49091110A809132
:1057C000120A981709F4F8C00E940F261092A50932
:1057D0001092A4091092140A1092130A8091A3093E
:1057E000882369F00E94AE072091A1093091A20997
:1057F000821B930B8F3F9F4710F40E94331086E06B
:10580000E8E6F9E0DE01119601900D928A95E1F744
:1058100010926A0910926B0910926C0910926D092E
:105820008B819C81892B09F44AC0809166099091F3
:1058300067090E9493079C0190916109992309F4DB
:10584000EBC025313105D8F19F3F19F09F5F909350
:105850006109CB80CC2059F00E94A1089FEF1C1455
:105860000CF491E0899F802D112480936A09CC80EB
:10587000CC2059F00E94A1089FEF1C140CF491E079
:10588000899F802D112480936B0930916A093323FD
:10589000B1F020916B09222391F045EB3403C00154
:1058A0001124992309F491C090936A0945EB2403CC
:1058B00090011124332309F48BC030936B098D813F
:1058C0009E81892B09F44AC08091640990916509F1
:1058D0000E9493079C0190916209992309F497C053
:1058E00021353105D8F19F3F19F09F5F90936209F0
:1058F000CD80CC2059F00E947F089FEF1C140CF43F
:1059000091E0899F802D112480936C09CE80CC205A
:1059100059F00E947F089FEF1C140CF491E0899FBE
:10592000802D112480936D0930916C093323B1F0DF
:1059300020916D09222391F045EB3403C00111241D
:10594000992309F448C090936C0945EB2403900116
:105950001124332309F442C030936D0946E050E02E
:10596000BE016F5F7F4F88E699E00E94782F892BF8
:1059700061F480916A0990916B09892B90916C096F
:10598000892B90916D09892B11F00E94580886E0AF
:10599000FE013196A8E6B9E001900D928A95E1F7F3
:1059A0000E943F0E90916009891709F43DCE8093C3
:1059B00060090E94A20736CE0E94A5251092140A03
:1059C0001092130A0E94320809CFF0926A096ECF32
:1059D000F0926B0974CFF0926C09B7CFF0926D0919
:1059E000BDCFD9BCC9BC09B400FEFDCF8091D800A1
:1059F0008F7D8093D8008091E00082608093E000EA
:105A00008091E00081FDFCCF0E94391695CE2B30AD
:105A1000310508F06ACFA2CF2B30310508F016CF40
:105A20004ECF8EE1489B02C08150E1F7489BFECFEC
:105A30000895589880E28A95F1F7589A0895FC01E4
:105A40003BE03A95F1F798E020E080E031E040E17A
:105A50004A95F1F7880F489B02C08160232742E0F6
:105A60004A95F1F7000040E14A95F1F7915079F736
:105A700090E19A95F1F799B132E03A95F1F700008B
:105A800040E14A95F1F7917092272081920F90831F
:105A90000895A1E0B0E0EFE4FDE20C94D72E198266
:105AA0008C017C01E60EF11C0E151F0541F481E00E
:105AB0009981911180E02196E6E00C94F32E0E94EA
:105AC000112DCE0101960E941F2DF80181938F01A7
:105AD000EBCF509A589A08955098589AE89AE9E668
