:100000000C94B3060C94D22E0C94D0060C94D0060B
:100010000C94D0060C94D0060C94D0060C94D00608
:100020000C94D0060C94D0060C94062A0C94C22989
:100030000C94032B0C94D0060C94D0060C94D00690
:100040000C94D0060C94D0060C94D0060C94D006D8
:100050000C94D0060C94DF2A0C94D0060C94D00695
:100060000C94D0060C94D0060C94D0060C94D006B8
:100070000C94D0060C94D0060C94D0060C94D006A8
:100080000C94D0060C94D0060C94D0060C94D00698
:100090000C94D0060C94D0060C94D0060C94D00688
:1000A0000C94D0060C94D0060C94D0062C002A0098
:1000B0000F001A0000002A000F001A0000002C0098
:1000C00008001100170000000800110017000000D0
:1000D0002C002A001000150000002A001000150056
:1000E00000002C002A00120015001C0000002A004D
:1000F000120015001C0000002C002A00080015004A
:10010000190000002A0008001500190000002C004A
:100110002A0012001500190000002A001200150024
:10012000190000002C002A000A0010001600000030
:100130002A000A001000160000002C000C0010001D
:10014000170000000C001000170000002C002A000F
:100150000C00110000002A000C00110000002C000F
:100160002A00070000002C002A00120015000000E1
:100170002A001200150000002C002A0010001700B1
:1001800000002A001000170000002C002A000C00BC
:100190000F0000002A000C000F0000002C002A00B5
:1001A0000500110000002A000500110000002C00CD
:1001B0002A00150000002C002A0010001600000084
:1001C0002A001000160000002C002A001000000079
:1001D0002C002A001700180000002A001700180041
:1001E00000002C002A001A0000002C0005001C0052
:1001F00000002C002A000A00110000002A000A005A
:10020000110000002C002A0011001A0000002A0032
:1002100011001A0000002C002A001C0000002C0015
:100220002A000B000C0000002A000B000C0000004C
:1002300006001A0000002C000700110000002C002E
:100240002A0004001200170000002A000400120017
:10025000170000002C002A000700160000002A00EA
:100260000700160000002C002A000B000C001700ED
:1002700000002A000B000C00170000002C002A00D0
:1002800008001A0000002A0008001A0000002C00D4
:100290002A000600180000002A00060018000000CE
:1002A0002C002A001200170000002A00120017007C
:1002B00000002C002A000400150000002A000400A1
:1002C000150000002C002A000B001200150017007A
:1002D00000002A000B0012001500170000002C007F
:1002E0002A000B001A0000002A000B001A00000070
:1002F0002C002A0007001100120000002C002A0028
:1003000004000C0000002C002A0009001000170057
:1003100000002C002A00050000002C002A00050027
:10032000180000002A000500180000002C002A0018
:10033000170000002C002A0018001A0000002A00F4
:1003400018001A0000002C002A0008000B001500FD
:1003500000002A0008000B00150000002C002A00F5
:100360000800150000002A000800150000002C00FD
:100370002A0004000F0000002A0004000F00000003
:100380002A0007000B0000002C000B0019000000E1
:100390000B00190000002C002A0007000B000000D1
:1003A0002C002A000B0017001C0000002A000B0084
:1003B00017001C0000002C002A000900100000009B
:1003C0002A000900100000002C002A001600170067
:1003D00000002A001600170000002C001100120077
:1003E000170000002C001100120000002C002A0051
:1003F000040000002C002A00160000002A00110052
:10040000170000002C002A000B00120000002C0036
:100410002A000800160000002A000800160000004C
:100420002C002A000900150000002A000900150010
:1004300000002C002A000C0000002C002A000B00F9
:10044000160000002A000B00160000002C002A00F5
:100450001100120000002A001100120000002C0000
:100460002A0018001C0000002A0018001C000000D0
:100470002C002A0004001A0000002A0004001A00C0
:1004800000002C002A000C001A0000002A000C00BA
:100490001A0000002C002A000B0000002C002A008B
:1004A0001100170000002C002A000A000C000000B8
:1004B0002A000A000C0000002C002A000B00150086
:1004C00000002A000B00150000002C002A0011007B
:1004D00000002C002A000400170000002A0004007D
:1004E000170000002C002A0009000B0000002C005F
:1004F0002A00090000002C002A00120000002C0035
:100500002A000400070000002A0004000700000081
:100510002C002A000B00170000002A000B00170017
:10052000000077696C6C200077696C6C00746865FA
:100530006E20007468656E006D6F726520006D6FCF
:10054000726500796F75722000796F75720065763B
:100550006572200065766572006F76657220006FA7
:1005600076657200736F6D657468696E67200073DD
:100570006F6D657468696E670074696D65200074DD
:10058000696D6500696E746F2000696E746F006438
:100590006F20006F757220006F7572007468656D52
:1005A00020007468656D006C696B6520006C696B78
:1005B00065006265656E20006265656E006F722081
:1005C00000736F6D652000736F6D65006D652000B1
:1005D0007468726F75676820007468726F756768F9
:1005E0000077652000627920007468696E672000DA
:1005F0007468696E67007768656E20007768656E5D
:10060000006D79200068696D200068696D00776869
:1006100069636800646F206E6F74200061626F759B
:1006200074200061626F75740073616964200073E7
:100630006169640074686569722000746865697234
:10064000007765726520007765726500636F756C71
:10065000642000636F756C64006F757420006F75A3
:1006600074006172652000617265006F7468657264
:1006700020006F7468657200776861742000776885
:10068000617400646964206E6F742000697420775F
:100690006173200066726F6D20746865200062656A
:1006A0002000627574200062757400617420007708
:1006B0006F756C642000776F756C64007468657288
:1006C000652000746865726500657265200065725A
:1006D0006500616C6C2000616C6C0068616400688E
:1006E00061766520006861766500616E64207468DB
:1006F0006520007468657920007468657900667209
:100700006F6D200066726F6D0074686973200074ED
:10071000686973006F6E2074686520006F6E20003A
:10072000617320006973200074696F6E00746F201C
:100730007468652000736865200073686500666FE3
:10074000722000666F72006974200068697320006F
:10075000686973006E6F7420006E6F7400796F7536
:100760002000796F750077617320007761730077DF
:100770006974682000776974680068652000696E94
:10078000207468652000696E672000696E670068E4
:100790006572200068657200696E2000746861747B
:1007A000200074686174006F662074686520006FB3
:1007B000662000746F2000616E642000616E64002A
:1007C00074686520007468650045003A003B003C91
:1007D000003D003E00567C350014001A000900134D
:1007E0000005002B00390004001500160017000A50
:1007F00000A152A8521D001B00060007001900A40A
:10080000521D011C012B042B05A2522C00825244C4
:100810000043004200410040003F00577C3100335C
:10082000001C0018000F000D002800340012000CFE
:10083000000800110010004C002D00380037003671
:10084000000B000E00290030002F004D004A00B2BE
:10085000522A008352010001000100010001000141
:10086000000100010014001A000800150017000123
:1008700000010004001600070009000A0001000141
:10088000001D001B00060019000500010001000109
:100890000001000100010001000100010001000150
:1008A0000001000100010001000100130012000C12
:1008B0000018001C000100010033000F000E000DA5
:1008C000000B000100010038003700360010001155
:1008D0000001000100010001000100010001000110
:1008E0000024525300460047004800BD00537CA836
:1008F00000077E087E2F023002BE000100A9002FF3
:100900000030002602270249000100AA0004011B52
:10091000010601190119050100010024520100011D
:100920000001000100010061521E02200224022386
:1009300002057E547C2102220226002500240006A6
:100940007E010057005500230022002100360001DF
:10095000005600540020001F001E002E000100B2AF
:10096000005800370027005800010001002452AC55
:1009700000AE00AD00AB000100537C245201000129
:1009800000520065004C0501004B00010050005171
:10099000004F00010001004E0004011B0106011977
:1009A0000119050100010024522B132B012A01011A
:1009B000000100615201000100010001000100542A
:1009C0007C46002F00300026022702077E0100012E
:1009D00000E700E600E500E400087E010001001EDB
:1009E000021F022002240223020100547C537C01D6
:1009F00000010001000100010000003A003B003C42
:100A0000003D003E0000000000007C0000000000EF
:100A100000000000000000000000000000000000D6
:100A200000010000000000000000000000007C0049
:100A300000000000000000000000000000000000B6
:100A40000043004200410040003F00000000000061
:100A50000000000000000000000000000000000096
:100A60000000000000000001000000000000000085
:100A7000000000007C0000000000000000000000FA
:100A8000000000000000010101010101010101025B
:100A9000020202020202020203030303030303032E
:100AA00004040404040404050505050506060606F9
:100AB00006070707070708080808090909090A0AB5
:100AC0000A0B0B0B0C0C0C0D0D0D0E0E0E0F0F0F59
:100AD00010101111111212131314141515161617E4
:100AE00017181819191A1A1B1B1C1D1D1E1E1F2052
:100AF00020212222232424252626272829292A2B9F
:100B00002C2D2D2E2F3031323233343536373839C3
:100B10003A3B3C3D3E3F40414243444546474849BD
:100B20004A4C4D4E4F50515354555658595A5B5D8F
:100B30005E5F616264656668696B6C6D6F7072732D
:100B40007577787A7B7D7E8082838587888A8C8E94
:100B50008F91939596989A9C9EA0A2A3A5A7A9ABC6
:100B6000ADAFB1B3B5B7BABCBEC0C2C4C6C9CBCDB8
:100B7000CFD1D4D6D8DBDDDFE2E4E7E9EBEEF0F36A
:100B8000F5F8FAFDFF000000000000000000000082
:100B90000000000000000000000000000000000055
:100BA0000000000000000000007E0F00D4FFFFFFE7
:100BB000C70000007800000000000000002A2B2879
:100BC0000000000000000000000000000000000025
:100BD00029000000002C1E34202122243426272541
:100BE0002E362D3738271E1F202122232425263379
:100BF00033362E37381F0405060708090A0B0C0D7B
:100C00000E0F101112131415161718191A1B1C1D8C
:100C10002F3130232D350405060708090A0B0C0D6A
:100C20000E0F101112131415161718191A1B1C1D6C
:100C30002F3130354C05010902A10185020901A1BE
:100C4000000509190129081500250195087501817C
:100C5000020501093009311581257F95027508814A
:100C60000609381581257F950175088106050C0A4E
:100C700038021581257F950175088106C0C00501E0
:100C80000980A101850319012AB700150126B700C3
:100C9000950175108100C0050C0901A10185041999
:100CA000012AA002150126A002950175108100C03D
:100CB00005010906A101050719E029E7150025012D
:100CC00095087501810295017508810105071900D4
:100CD00029FF150026FF00950675088100050819F3
:100CE000012905950575019102950175039101C0D2
:100CF00009023B00020100A0FA09040000010301FF
:100D000001000921110100012240000705810308AB
:100D10000001090401000103000000092111010084
:100D200001227B000705820320000112010002005E
:100D3000000008444D44520001010200010C03521E
:100D400000650064006F0078000000140346006135
:100D5000006C0062006100740065006300680000C0
:100D600000040309040011241FBECFEFDAE0DEBF48
:100D7000CDBF14E0A0E0B1E0E6E0F3E602C00590EC
:100D80000D92AE3DB107D9F72AE0AEEDB4E001C057
:100D90001D92AC39B207E1F70E942A2B0C94B130B6
:100DA0000C940000FC01AC014B5F5F4F8FEF91E3AF
:100DB0002191822728E030E087FF09C0880F89272A
:100DC00021503109C9F7E417F50791F70895880F05
:100DD000F7CFE8EDF0E080818E7F80831092E20013
:100DE0001092DA001092E100A0EEB0E08C918160E8
:100DF0008C9380818F77808319BCA7EDB0E08C91B4
:100E00008E7F8C9380818F7E80831092820A0895DA
:100E10002091E4003091E50095E6A9012091EC00D5
:100E2000822F817020FF06C08091E80080FF06C0FD
:100E300080E008952091E80022FD1AC080918F0A79
:100E4000882389F0853089F08091EB0085FD0FC003
:100E50002091E4003091E50042175307F9F29150D8
:100E6000E1F684E0089582E0089583E0089581E04A
:100E700008958091910A87FF13C08091E80082FF56
:100E800006C08091E8008B778093E80004C08091D1
:100E90008F0A8111F2CF089580918F0A8823D9F3A8
:100EA0008091E80080FFF8CF8091E8008E77ECCF4A
:100EB000982F9093E900242F762F50E0891731F076
:100EC0007091EC002091ED005091F00021FD07C0E1
:100ED0009F5F973071F78093E90081E0089530912A
:100EE000EB003E7F3093EB003091ED003D7F30937F
:100EF000ED003091EB0031603093EB007093EC002B
:100F00002093ED005093F0002091EE0027FDE0CFFC
:100F100080E00895B0E0A0E0E0E9F7E00C94F82F5D
:100F2000C8EDD0E088818F7E8883E7EDF0E0808196
:100F30008160808384E082BF81E08093820A88811F
:100F40008E7F888302EE10E0F80110821092DA00A2
:100F500081EEC82ED12CF601108288818F7788838C
:100F600088818068888388818F7D888319BC1092EE
:100F70008F0A1092900A10928E0A10928D0A90EEAB
:100F8000E92EF12CF70180818B7F8083888181603D
:100F9000888342E060E080E00E945807F60180818B
:100FA0008E7F8083F801808181608083808188606A
:100FB0008083F70180818E7F808388818061888330
:100FC000CDB7DEB7E8E00C941430FC018091970AAD
:100FD0009091980A86179707A0F06115710529F47A
:100FE0009091E8009E779093E80090E0611571057C
:100FF00051F4911108C08091E80082FF34C080E074
:101000000895BC01F2CF80918F0A8823C1F1853009
:10101000C1F18091E80083FD30C08091E80082FD3D
:10102000EACF8091E80080FFE1CF8091F30020912A
:10103000F200382F6115710519F02830310558F08C
:1010400091E02830310509F090E02091E8002E77FA
:101050002093E800CBCF81918093F100615071091A
:101060002F5F3F4FE7CF80918F0A882341F0853073
:1010700041F08091E80083FFBECF81E0089582E0D7
:10108000089583E008958091840A08959C014FB7E4
:10109000F89480917E0A90917F0AA091800AB09185
:1010A000810A4FBF821B930B08952FB7F89460916C
:1010B0007E0A70917F0A8091800A9091810A2FBFE9
:1010C00008952FB7F89480917E0A90917F0AA0919D
:1010D000800AB091810A2FBF0895A3E0B0E0E3E752
:1010E000F8E00C94FE2F20917B0A30917C0A28179F
:1010F0003907A1F090937C0A80937B0AE091790AEA
:10110000F0917A0A309751F024E029839B838A83F7
:101110000680F781E02DCE01019609952396E2E045
:101120000C941A30A3E0B0E0E8E9F8E00C94FE2F4C
:101130002091770A3091780A28173907A1F0909307
:10114000780A8093770AE091790AF0917A0A3097C9
:1011500051F023E029839B838A830680F781E02D69
:10116000CE01019609952396E2E00C941A30DC0139
:101170006091730A8091740A962F891301C00895B3
:10118000292F30E0F901EE0FFF1FE559F54F40819F
:1011900051814A175B07A1F487E08A9FA0018B9FCA
:1011A000500D1124435D5E4F81E0FA018483961354
:1011B000E6CF2F5F3F4F237033272093730A0895A4
:1011C0002F5F3F4F922F9370D8CF1092070A109243
:1011D000060AEDE2F1E08581811102C014821682D7
:1011E000379684E0E139F807B1F70895FA018111E3
:1011F00001C0FB01099508958091FD09982F9E7FFC
:1012000039F48091FD09817082608093FD09089511
:101210008430B8F708950E9461089C019091CC0930
:101220008091CD09982B21F03093C9092093C809EA
:101230009091CE098091CF09982B21F03093C70966
:101240002093C609E091790AF0917A0A309749F023
:1012500082E08093CA090480F581E02D8AEC99E050
:10126000099508958091C50980FD16C081FD16C0BD
:1012700082FD16C08091C4098823A1F0883280F4D1
:1012800028E0829FC001112468E270E00E9439309A
:10129000862F672B39F0089582E0089584E0089541
:1012A00088E0089581E008958091C50980FD14C00B
:1012B00081FD14C082FD16C08091C309882381F08E
:1012C0008E3180F420E5829FC00111246EE170E030
:1012D0000E943930862F089584E1089588E20895A8
:1012E00088E0089580E5089580E00895F894E82F57
:1012F000E295EF70F0E031A1282F2F7081E090E0AF
:1013000001C0880F2A95EAF7982F9095932391A30F
:1013100092A1892B82A3789408959091A80992FFB5
:1013200006C0282F28712830F9F4877F846093FF46
:1013300006C0282F28712831F1F4877E846120911E
:10134000A90920FF06C0382F38713830D9F4877FBB
:10135000816021FF06C0282F28712831D1F4877EB3
:10136000816194FD877E0895282F24712430F9F639
:101370008B7F8860DCCF282F2471243101F78B7E8E
:101380008861DDCF382F3171313019F78E7F886059
:10139000E0CF282F2171213121F78E7E8861E1CFA6
:1013A000972F7A30B8F46730A8F4853098F470E05D
:1013B00027E0929F600D711D1124FB0196E4899F27
:1013C000E00DF11D1124EE0FFF1FE753F84F85913B
:1013D0009491089580E090E00895CF93DF93EC011D
:1013E00082389105B9F108F041C08133910509F4C3
:1013F0009FC050F58932910509F48FC08A9709F48E
:101400009EC0C11520E5D20708F0BDC0C11530E46B
:10141000D30708F00AC1C03ED10508F0A5C0CD3CF5
:10142000D10508F000C1C83AD10508F08FC0C53A0F
:10143000D10508F0F0C0C130D10539F1209729F16C
:10144000C430D10510F546C08533910509F460C05C
:10145000C997B9F68091A809837009F044C18091B9
:10146000A90983FF12C0C9E2D0E00FC0833E9105F5
:10147000A1F178F4803E910509F1823E910509F0D1
:10148000C0CF8091A80982FD21C0CE01DF91CF910C
:101490000895863E910561F1873E910571F1843E84
:1014A000910509F0AECF8091A90981FFEECF80911F
:1014B000A809C7EED0E084FD0DC0E7CF8091A80950
:1014C00080FD33C09091A90990FFDFCFC3EED0E03B
:1014D00084FFDBCFD0E0C0E0D8CF8091A80982FDA7
:1014E000FFC09091A90990FDFEC084FFCECFF2CF3E
:1014F0008091A80983FDDDCFC8CF8091A80983FD25
:10150000F5C09091A90991FFF0CFC4EED0E0BDCF16
:101510008091A80985FFB9CFA6CF8091A80985FD44
:10152000E8C08091A90983FFB0CFC9E3D0E0ADCF77
:101530008091A80986FFA9CFCAE2D0E0A6CF80910A
:10154000A80986FFA2CFC1E3D0E09FCFC13CD1055F
:1015500008F6C85AD0E0CC0FDD1FC556DB4F099006
:10156000D881C02DD46491CFC11540E2D40708F0D2
:10157000AAC0C11581E0D80708F087CFC83ED105C1
:1015800008F483CFA7CFC03622E5D20718F5C034C0
:1015900032E5D30708F053C0C03242E5D40708F063
:1015A00047C0C11582E5D80708F47FC02C2F2695C7
:1015B000269540E2249F900111248C2F8370C1E076
:1015C000D0E002C0CC0FDD1F8A95E2F7C22BD32BEF
:1015D000DD685BCFC03A22E5D20760F4C03832E55F
:1015E000D30708F441C0CF71D0E0DC2FCC27C46F03
:1015F000D06A4BCFC03C42E5D40708F44AC0C03E95
:1016000082E5D80708F066CFDC2FCC27CC27DF7126
:10161000C06FD06A3ACFC55AD0E0C856DB4FC881F8
:10162000D0E0D06432CFD06530CFDF70D06A2DCF1C
:10163000CF71D0E0DC2FCC27C16FD06A26CF2C2F02
:1016400026952695277080E2289F900111248C2FE3
:101650008370C1E0D0E002C0CC0FDD1F8A95E2F7B5
:10166000C22BD32BDC6811CF2C2F26952695277003
:1016700040E2249F900111248C2F8370C1E0D0E0C0
:1016800002C0CC0FDD1F8A95E2F7C22BD32BDA689C
:10169000FCCE8C2F8F710E948D09C82FD0E0DC2FDB
:1016A000CC27CC27DF71D062F0CE8C2F8F710E94B7
:1016B0008D0935E0D695C7953A95E1F7CF709C2F07
:1016C000EC01D069E2CE8D2F8F710E948D0990E0E0
:1016D000982F882788279F719C012C2BE901E3CF45
:1016E000C2EED0E0D2CEC0EED0E0CFCEC6EED0E09B
:1016F000CCCEC5E3D0E0C9CE8091640981111092AF
:10170000640908958091050A81110FC01092020AA0
:101710000E947C0B0E94610888579C4E9093040A9B
:101720008093030A81E08093050A08958095909143
:10173000020A98239093020A0895E2EEF4E0919150
:10174000891303C0DF0111971C9294E0E83EF9076A
:10175000B1F70895A2EEB4E0EFEF90E02D9182177B
:1017600051F0EF3F19F4211101C0E92F9F5F96302E
:10177000A9F7EF3F09F408950E2E000CFF0BE0527D
:10178000FB4F8283089580915A099091190998130B
:1017900001C008958F5F8770FACFB0E0A0E0E3ED5D
:1017A000FBE00C94F72F7C010091A6091091A7098A
:1017B0008091650990916609082B192BCFE0D0E044
:1017C000CC24C394D12CBC2EC6010C2E02C0880F91
:1017D000991F0A94E2F780239123892B49F42197DA
:1017E00090F7B12C8B2DCDB7DEB7E9E00C94133018
:1017F000B7018C2F0E94D0090E94ED09019779F35F
:10180000F1CFCF93DF93EC010E94CD0BBE010E947C
:10181000D0090E94ED09DF91CF9108959A3078F5B3
:10182000873068F5E82FF0E087E0989FE00DF11D24
:1018300011249E2F977083E0F695E7958A95E1F73E
:10184000EE0FFF1FEE0FFF1FE351F74F50E040E098
:1018500080E0219130E0092E02C0369527950A9448
:10186000E2F721703327042E01C0220F0A94EAF711
:10187000822B4F5F5F4F4430510559F7089580E048
:1018800008959A3098F5873088F5E82FF0E087E0E2
:10189000989FE00DF11D11248E2F877041E001C04B
:1018A000440F8A95EAF783E0F695E7958A95E1F784
:1018B000EE0FFF1FEE0FFF1FE351F74F30E020E068
:1018C00070E05191DF011197CB01022E02C0969575
:1018D00087950A94E2F7817081958527842385276F
:1018E0008C932F5F3F4F2430310559F70895909323
:1018F000A7098093A609089521E030E002C0220FD5
:10190000331F8A95E2F7209530958091A609909132
:10191000A709822393230E94770C089590915B0975
:101920008095892380935B09282F277091F4282FB5
:10193000082E000C330B9217130659F09091A90949
:1019400092FF07C08595859585950E947C0C109225
:101950005B09089521E030E002C0220F331F8A9511
:10196000E2F78091A6099091A709822B932B0E9400
:10197000770C08959091A90992FF07C098E0899F7C
:1019800090011124622B60935B090E94AA0C0895B8
:1019900090936609809365090895FC018381948181
:1019A000892B29F08081918189238F3FF1F480E098
:1019B00008950E94ED0992959F70963089F058F431
:1019C000925F9F70923098F7803F19F030F4883E14
:1019D00070F781E008959A5FF4CF843F41F7F9CF23
:1019E000883EB8F3813F19F7F4CF8681978100973D
:1019F00001F7808191810E94010CDDCF662309F4FB
:101A00005DC08D3C41F40E94540981958093CD09BD
:101A10000E940B0908958E3C19F40E945409F6CFD8
:101A20008F3C31F40E94540981958093CC09F0CF0A
:101A3000803D19F40E945409F8CF893D29F40E9491
:101A400032098093CE09E4CF8A3D21F40E94320905
:101A50008195F7CF8B3D31F40E94320981958093B7
:101A6000CF09D6CF8C3D19F40E943209F8CF9FE2FE
:101A7000980F983070F4815D990B21E030E001C03F
:101A8000220F8A95EAF78091CB09822B8093CB09AC
:101A9000BFCF8D3D31F48091C50981608093C50928
:101AA000B7CF8E3D21F48091C5098260F7CF8F3D7D
:101AB00009F0AECF8091C5098460F0CF4091CC0988
:101AC0008D3C59F48091CD0987FF0DC01092CD094E
:101AD00041110BC01092C30908C08E3C81F4809163
:101AE000CD0918169CF3442381F08091CE09909182
:101AF000CF09892B09F08CCF1092C40989CF8F3C74
:101B000049F447FFF0CF1092CC098091CD098111A3
:101B1000ECCFE0CF803D19F41416ACF3E4CF9091F4
:101B2000CE09893D29F41916F4F61092CE09DBCFBF
:101B30008A3D19F497FFD7CFF8CF9091CF098B3D0D
:101B400029F497FFD0CF1092CF09CDCF8C3D19F457
:101B50001916CCF3C8CF9FE2980F983090F4815DAE
:101B6000990B21E030E0B90102C0660F771F8A951A
:101B7000E2F7CB0180959091CB0989238093CB0923
:101B8000B2CF8D3D31F48091C5098E7F8093C50918
:101B9000AACF8E3D21F48091C5098D7FF7CF8F3D6F
:101BA00009F0A1CF8091C5098B7FF0CFA5E0B0E00F
:101BB000ECEDFDE00C94FD2F9C01FC0186819781EA
:101BC0000097E1F485E0DE01119601900D928A956F
:101BD000E1F7F901228189819A81222399F0662314
:101BE00089F00E94CD0B182F682F89819A810E945D
:101BF000410C69817A81812F0E94D0092596E3E00A
:101C00000C9419300E940E0C182FF3CF82E0FB01C8
:101C1000099508950F931F93CF93DF938B01EA01EA
:101C200090918F0A943061F58093E9008FEF909145
:101C3000E800815095FD06C095ED9A95F1F70000FA
:101C40008111F5CF8091E80085FF1AC00E94080736
:101C5000811111C08091E80085FD06C08091E800E7
:101C60008E778093E800F2CFF80181918F01809305
:101C7000F100219779F78091E8008E778093E80052
:101C8000DF91CF911F910F91089543E050E0BC0187
:101C900082E00E940A0E089546E050E0BC0182E016
:101CA0000E940A0E0895CF93DF93EC0148E050E0C4
:101CB000BC0181E00E940A0E88E0FE01A5E8BAE0BE
:101CC00001900D928A95E1F7DF91CF91089580916F
:101CD000FD0980FD0AC0E3EDF9E011821082128255
:101CE000339659E0ED3FF507C1F7539A3BB1377F83
:101CF0002BB128604FB7F89483ED99E0FC01519126
:101D0000CF0168E02BB9000000C057FF3BB9550F69
:101D1000000000C000C000C03BB900C06A9591F748
:101D2000F9E08D3F9F0751F74FBF8FE594E0019792
:101D3000F1F700C000000895B0E0A0E0E2EAFEE0A4
:101D40000C94F62F7C015B016A018091950901E0FA
:101D500010E08A3010F40AE010E0C1E0D0E0B501F4
:101D6000C701F6010995811104C021960C171D07C2
:101D70002CF4CDB7DEB7EAE00C941230CC9F900182
:101D8000CD9F300D300D112490E080E045E34A9561
:101D9000F1F70000019682179307C1F7E0CF809119
:101DA0007109811110C08091D80080618093D800A2
:101DB0008AE18A95F1F700C08091D90080FF0AC0BE
:101DC00081E08093710981E090917109913009F06F
:101DD00080E0089582E0809371090E94E9061092E4
:101DE0008F0AF1CF0E94CF0E882359F0E091790A33
:101DF000F0917A0A309729F00190F081E02D099551
:101E0000089580E00895CF92DF92EF92FF926B01E8
:101E10007C010E94FC08B701A60188E090E00E94C6
:101E20007930FF90EF90DF90CF900895B0E0A0E080
:101E3000ECE1FFE00C94F42FD82FC62F142F822E44
:101E40000091FD0900FF4AC08091FE098D1308C072
:101E50008091FF09861304C08091000A841729F03D
:101E60008091D20982608093D209E02FE695F0E05C
:101E7000E552FB4F80818093D009802F8E7F823086
:101E8000D9F4E12FF0E0EB57F54FC1112CC02491AC
:101E9000F22FE22F00FF10C0A3EDB9E01196EC93F2
:101EA00011972C931296FC931297139689E0AD3FED
:101EB000B807A1F70E94670ED093FE09C093FF09EF
:101EC0001093000A882051F06091FD097091FE097D
:101ED0008091FF099091000A0E94030FCDB7DEB7F1
:101EE000ECE00C941030EC2EF12CE4919E2ECE2ED2
:101EF000D12C26E0D29FC00111242FEF30E0B90190
:101F00000E9425308D2F90E0880F991FF5E5F69FF0
:101F1000A001F79F500D1124841B950BB82EBB0C0C
:101F2000B80EA9014E195F094C9DC0014D9D900D41
:101F30005C9D900D1124F92FCB9DA0011124452FFC
:101F40005527D901A41BB50BAC9DA001AD9D500D2B
:101F5000BC9D500D1124D901AB19B1095D01AE9C96
:101F6000D001AF9CB00DBE9CB00D1124AB2FBB2790
:101F70002A1B3B0B2C9DD0012D9DB00D3C9DB00D1F
:101F800011242B2F62307105A1F050F461157105F9
:101F900009F480CF6130710581F0292FF52F7ACFB8
:101FA0006430710569F080F06630710509F472CF14
:101FB000F4CF2E2FE92FFB2F6DCF2E2FE52F6ACFD9
:101FC000292FFE2FEB2F66CFE92FF92D252F62CF7A
:101FD000EDEFF9E0438121E1421B08F440E021E00C
:101FE000628181810E94160F0895EDEFF9E043812F
:101FF00021E1420F08F44FEF21E0628181810E94CC
:10200000160F0895EDEFF9E0628121E1621B08F4FB
:1020100060E021E0438181810E94160F0895EDEF79
:10202000F9E0628121E1620F08F46FEF21E0438162
:1020300081810E94160F0895EDEFF9E0818121E082
:102040004381628188500E94160F0895EDEFF9E0F8
:10205000818121E043816281885F0E94160F08958B
:102060008091010A882319F081508093010A6091C0
:10207000FD097091FE098091FF099091000A0E946C
:10208000030F08958091010A833018F48F5F8093C5
:10209000010A6091FD097091FE098091FF099091FC
:1020A000000A0E94030F08958091FD0980FF1EC061
:1020B000817082608093FD098091D2098160809354
:1020C000D209662351F06091FD097091FE0980915B
:1020D000FF099091000A0E94030F20E04091000A3E
:1020E0006091FF098091FE090E94160F089580916A
:1020F000FD098695815009F481E061E00E94541049
:10210000089561E081E00E9454100895EDEFF9E038
:1021100083E0808311828FEF828383831482A0ED1A
:10212000B9E012968C911297836012968C9360811D
:102130007181828193810E94030F08958091020A28
:102140009091080A892B8093E00490916409992367
:1021500091F0892B8093E00420E082EE94E0FC0172
:102160003191CF0131112F5FF4E0883E9F07B9F71D
:1021700021110E947C0B48E050E06CE579E080EE94
:1021800094E00E949B30892BA9F088E0E0EEF4E017
:10219000ACE5B9E001900D928A95E1F7E091790AFA
:1021A000F0917A0A309731F00280F381E02D80EED1
:1021B00094E009950895882341F080959091080A4C
:1021C00089238093080A0E949E1008958091050A31
:1021D000882329F082E20E94DB101092050A0895FC
:1021E000882339F09091080A982B9093080A0E944E
:1021F0009E100895882321F00E94960B0E949E1045
:102200000895882339F09091020A982B9093020A3E
:102210000E949E100895882309F456C0823879F4EC
:102220000E94F20E81FF50C089E30E94AA0B0E9417
:102230009E1089E30E949D0B0E949E100895833892
:1022400059F40E94F20E80FF3FC083E50E94AA0B62
:102250000E949E1083E5EECF843859F40E94F20E5E
:1022600082FF32C087E40E94AA0B0E949E1087E47E
:10227000E1CF9CEF980F913AE8F290E2980F9830F6
:1022800050F4877091E001C0990F8A95EAF7892F81
:102290000E94960BD1CF9BE5980F933028F490E0E5
:1022A00080E00E949208089598E5980F993128F4EB
:1022B00090E080E00E946D08089593E3980F9331B9
:1022C00018F460E00E94FE0C0895CF93C82F882375
:1022D000C9F08238C9F40E94F20E81FD13C089E36F
:1022E0000E94AA0B0E949E102FEF87EE93E02150D0
:1022F00080409040E1F700C0000089E30E949D0B00
:102300000E949E10CF9108958338A1F40E94F20E8E
:1023100080FDF8CF83E50E94AA0B0E949E102FEF4C
:1023200081EE94E0215080409040E1F700C0000031
:1023300083E5E4CF8438A1F40E94F20E82FDE2CF5F
:1023400087E40E94AA0B0E949E102FEF81EE94E07A
:10235000215080409040E1F700C0000087E4CECFDC
:102360008CEF8C0F813A68F4E2EEF4E08191C817AB
:10237000E9F124E0E83EF207C9F78C2F0E94AA0B8E
:10238000BFCF80E28C0F883068F4C77021E030E066
:1023900001C0220FCA95EAF78091020A822B80932E
:1023A000020AAECFEBE5EC0FE33040F4F0E0E85684
:1023B000FB4F808190E00E949208A4CFE8E5EC0FEB
:1023C000E93150F4F0E0EE0FFF1FE556FB4F80813E
:1023D00091810E946D0896CF83E38C0F833108F0C2
:1023E00091CF61E08C2F0E94FE0C8CCF8C2F0E942D
:1023F0009D0B0E949E10C1CF1F93CF93DF93182F88
:10240000D0E0C0E0893311F4C0E5D0E0812F0E9414
:102410006511209739F4812F0E940B11DF91CF9124
:102420001F9108958FE99FE00197F1F700C0000028
:102430002197EFCF0F931F93CF93DF93C62FD42F06
:10244000022FFC0182818823A9F060939B0A0E94DD
:10245000610890939A0A8093990AC77081E001C03D
:10246000880FCA95EAF70E940111DF91CF911F9161
:102470000F91089580919B0A681332C08091990A48
:1024800090919A0A0E944608883C910548F510E20E
:102490001D0FCD17B9F080E28C0F883040F4C77063
:1024A00081E001C0880FCA95EAF70E94FA1018303F
:1024B00048F481E09D2F977001C0880F9A95EAF744
:1024C0000E940111802F0E94FC11183070F6D77005
:1024D00081E001C0880FDA95EAF70E94FA10C5CFB3
:1024E000C77081E001C0880FCA95EAF7F6CFB0E067
:1024F000A0E0EDE7F2E10C94F92FE82FF0E0EB54C7
:10250000F44FD490282F26952695269530E0F90192
:10251000EB55F44F0491877010E0082E02C015951A
:1025200007950A94E2F701701127F901EB56F44F71
:10253000E490F12C082E02C0F594E7940A94E2F797
:1025400091E0E922FF24F901EB57F44FC491D0E068
:1025500002C0D595C7958A95E2F7C170DD270115B0
:10256000110519F081EE0E946511E114F10419F0D2
:1025700086EE0E9465118D2D0E94FC11E114F1047C
:1025800019F086EE0E940B110115110519F081EE6C
:102590000E940B11CD2B19F08CE20E94FC11CDB7DB
:1025A000DEB7E7E00C941530FF920F931F93CF93A3
:1025B000DF938C018AE0F82EF8018491882309F4D6
:1025C0004BC0813009F044C0E8012196FE0184919E
:1025D000813049F42196FE0184910E94FC118E0104
:1025E0000F5F1F4FE9CF823039F4E8012296FE01D8
:1025F00084910E946511F3CF833039F4E80122966B
:10260000FE0184910E940B11EACF843041F7E8016A
:102610002296FE01249190E080E0FE013196205345
:10262000330B2A30310548F00197C8F2EFE9FFE09B
:102630003197F1F700C00000F7CFF89EA001F99E96
:10264000500D1124C901840F951F2491EF01E5CF8E
:102650000E947712E801C3CFCDB7DEB7E5E00C9456
:1026600017308C37910508F0DBC38D549F4CFC016B
:102670000C944D30662309F4D3C385EC97E00E9497
:10268000D4120895662309F4CBC380EC97E00E942E
:10269000D4120895662309F4C3C38CEB97E00E941B
:1026A000D4120895662309F4BBC387EB97E00E9418
:1026B000D4120895662309F4B3C383EB97E00E9414
:1026C000D4120895662309F4ABC38FEA97E00E9401
:1026D000D4120895662309F4A3C387EA97E00E9401
:1026E000D4120895662309F49BC382EA97E00E94FE
:1026F000D4120895662309F493C38CE997E00E94ED
:10270000D4120895662309F48BC388E997E00E94E8
:10271000D4120895662309F483C384E997E00E94E4
:10272000D4120895662309F47BC38FE897E00E94D2
:10273000D4120895662309F473C38BE897E00E94CE
:10274000D4120895662309F46BC386E897E00E94CB
:10275000D4120895662309F463C38EE797E00E94BC
:10276000D4120895662309F45BC38AE797E00E94B8
:10277000D4120895662309F453C385E797E00E94B5
:10278000D4120895662309F44BC38FE697E00E94A4
:10279000D4120895662309F443C38BE697E00E94A0
:1027A000D4120895662309F43BC386E697E00E949D
:1027B000D4120895662309F433C382E697E00E9499
:1027C000D4120895662309F42BC38DE597E00E9487
:1027D000D4120895662309F423C389E597E00E9483
:1027E000D4120895662309F41BC384E597E00E9480
:1027F000D4120895662309F413C380E597E00E947C
:10280000D4120895662309F40BC38BE497E00E9469
:10281000D4120895662309F403C387E497E00E9465
:10282000D4120895662309F4FBC283E497E00E9462
:10283000D4120895662309F4F3C28EE397E00E9450
:10284000D4120895662309F4EBC28AE397E00E944C
:10285000D4120895662309F4E3C285E397E00E9449
:10286000D4120895662309F4DBC28DE297E00E943A
:10287000D4120895662309F4D3C288E297E00E9437
:10288000D4120895662309F4CBC284E297E00E9433
:10289000D4120895662309F4C3C280E297E00E942F
:1028A000D4120895662309F4BBC28CE197E00E941C
:1028B000D4120895662309F4B3C284E197E00E941C
:1028C000D4120895662309F4ABC28FE097E00E940A
:1028D000D4120895662309F4A3C289E097E00E9408
:1028E000D4120895662309F49BC284E097E00E9405
:1028F000D4120895662309F493C28EEF96E00E94E5
:10290000D4120895662309F48BC289EF96E00E94E1
:10291000D4120895662309F483C283EF96E00E94DF
:10292000D4120895662309F47BC28AEE96E00E94D1
:10293000D4120895662309F473C285EE96E00E94CE
:10294000D4120895662309F46BC28FED96E00E94BD
:10295000D4120895662309F463C28BED96E00E94B9
:10296000D4120895662309F45BC287ED96E00E94B5
:10297000D4120895662309F453C282ED96E00E94B2
:10298000D4120895662309F44BC28EEC96E00E949F
:10299000D4120895662309F443C289EC96E00E949C
:1029A000D4120895662309F43BC283EC96E00E949A
:1029B000D4120895662309F433C28CEB96E00E948A
:1029C000D4120895662309F42BC286EB96E00E9488
:1029D000D4120895662309F423C28FEA96E00E9478
:1029E000D4120895662309F41BC28BEA96E00E9474
:1029F000D4120895662309F413C287EA96E00E9470
:102A0000D4120895662309F40BC282EA96E00E946C
:102A1000D4120895662309F403C28EE996E00E9459
:102A2000D4120895662309F4FBC184E996E00E945C
:102A3000D4120895662309F4F3C18CE896E00E944D
:102A4000D4120895662309F4EBC183E896E00E944E
:102A5000D4120895662309F4E3C18EE796E00E943C
:102A6000D4120895662309F4DBC188E796E00E943A
:102A7000D4120895662309F4D3C182E796E00E9438
:102A8000D4120895662309F4CBC18BE696E00E9428
:102A9000D4120895662309F4C3C187E696E00E9424
:102AA000D4120895662309F4BBC182E696E00E9421
:102AB000D4120895662309F4B3C18EE596E00E940E
:102AC000D4120895662309F4ABC189E596E00E940B
:102AD000D4120895662309F4A3C183E596E00E9409
:102AE000D4120895662309F49BC18CE496E00E94F9
:102AF000D4120895662309F493C187E496E00E94F6
:102B0000D4120895662309F48BC181E496E00E94F3
:102B1000D4120895662309F483C18BE396E00E94E2
:102B2000D4120895662309F47BC184E396E00E94E1
:102B3000D4120895662309F473C18FE296E00E94CF
:102B4000D4120895662309F46BC189E296E00E94CD
:102B5000D4120895662309F463C183E296E00E94CB
:102B6000D4120895662309F45BC18CE196E00E94BB
:102B7000D4120895662309F453C184E196E00E94BB
:102B8000D4120895662309F44BC18EE096E00E94AA
:102B9000D4120895662309F443C18AE096E00E94A6
:102BA000D4120895662309F43BC185E096E00E94A3
:102BB000D4120895662309F433C181E096E00E949F
:102BC000D4120895662309F42BC18CEF95E00E947E
:102BD000D4120895662309F423C186EF95E00E947C
:102BE000D4120895662309F41BC180EF95E00E947A
:102BF000D4120895662309F413C189EE95E00E946A
:102C0000D4120895662309F40BC185EE95E00E9465
:102C1000D4120895662309F403C181EE95E00E9461
:102C2000D4120895662309F4FBC089ED95E00E9453
:102C3000D4120895662309F4F3C080ED95E00E9454
:102C4000D4120895662309F4EBC08CEC95E00E9441
:102C5000D4120895662309F4E3C087EC95E00E943E
:102C6000D4120895662309F4DBC081EC95E00E943C
:102C7000D4120895662309F4D3C08DEB95E00E9429
:102C8000D4120895662309F4CBC088EB95E00E9426
:102C9000D4120895662309F4C3C082EB95E00E9424
:102CA000D4120895662309F4BBC08DEA95E00E9412
:102CB000D4120895662309F4B3C087EA95E00E9410
:102CC000D4120895662309F4ABC082EA95E00E940D
:102CD000D4120895662309F4A3C08CE995E00E94FC
:102CE000D4120895662309F49BC088E995E00E94F8
:102CF000D4120895662309F493C083E995E00E94F5
:102D0000D4120895662309F48BC08FE895E00E94E1
:102D1000D4120895662309F483C08AE895E00E94DE
:102D2000D4120895662309F47BC084E895E00E94DC
:102D3000D4120895662309F473C08FE795E00E94CA
:102D4000D4120895662309F46BC089E795E00E94C8
:102D5000D4120895662309F463C08FE695E00E94BB
:102D6000D4120895662309F45BC084E695E00E94BE
:102D7000D4120895662309F453C08FE595E00E94AC
:102D8000D4120895662309F44BC089E595E00E94AA
:102D9000D4120895662309F443C084E595E00E94A7
:102DA000D41208956623E1F18EE495E00E94D412D6
:102DB00008956623A9F189E495E00E94D41208954C
:102DC000662371F183E495E00E94D412089566238E
:102DD00039F18EE395E00E94D4120895662301F143
:102DE00088E395E00E94D41208956623C9F083E336
:102DF00095E00E94D4120895662391F08DE295E04B
:102E00000E94D4120895662359F088E295E00E944A
:102E1000D4120895662321F082E295E00E94D41234
:102E200008951F93CF93DF93EC011AE088818823E4
:102E300009F43EC08130C9F599818A81913029F425
:102E400022960E94FC112196F1CF923021F4229615
:102E50000E946511F8CF933021F422960E940B1145
:102E6000F2CF943011F02196EECF229630E020E0A0
:102E7000AE014F5F5F4F8053990B8A30910550F040
:102E80002150310900F38FE99FE00197F1F700C06D
:102E90000000F6CF129FB001139F700D11249C010A
:102EA000260F371F8981EA01E3CF0E947712CBCF2B
:102EB000DF91CF911F910895CF931092020AC6E03F
:102EC000E2EEF4E0DF018C2F1D928A95E9F790E0A5
:102ED00080E00E94920890E080E00E946D081092CD
:102EE000080A0E949E10EAECF9E0DF011D92CA95E3
:102EF000E9F71092C3091092C4091092C5090E9403
:102F00000B09CF910895AAE2B0E0E9E8F7E10C944B
:102F1000FD2F81E99AE02091F100FC012193CF017E
:102F2000FAE089399F07B9F78091920A833009F452
:102F300070C0B8F4813009F447C0823009F4B1C0E0
:102F40008091E80083FF7EC28091910A9091920A5D
:102F50009A3008F077C2E92FF0E0E15DFE4C0C9466
:102F60004D308A3009F48CC08B3009F46FC0893041
:102F700039F78091910A813219F78091950A9091E1
:102F8000960A0297E8F68091E800877F8093E80030
:102F90008091E80082FF38C09091F3008091F200A8
:102FA000029731F48091F100813011F0863021F4E4
:102FB0008091F1008093840A8091E8008B77809360
:102FC000E8000E943907BCCF8091910A813A09F04C
:102FD000B7CF8091E800877F8093E8008091950AC1
:102FE0009091960A892B61F468E085E89AE070E098
:102FF0000E94E5078091E8008B778093E800A0CFDE
:1030000060E090E080E0F3CF80918F0A8111C0CF23
:1030100097CF8091910A813A09F092CF8091950AD9
:103020009091960A892B09F08BCF8091E800877FD9
:103030008093E8008091E80080FFFCCF80919204AB
:103040008093F1008091E8008E77B9CF8091910A4A
:10305000813209F075CF8091950A9091960A892B5B
:1030600009F06ECF8091E800877F8093E8000E948E
:1030700039078091930A809392040E945C1760CF75
:103080008091910A813209F05BCF8091E800877FBF
:103090008093E8000E9439078091940A8093830A04
:1030A0004FCF8091910A813A09F04ACF8091E80090
:1030B000877F8093E8008091E80080FFFCCF8091BB
:1030C000830ABECF803899F0823809F0BBC1809165
:1030D000950A8F70873008F0B5C18093E900809120
:1030E000EB0085FB882780F91092E90006C08091EB
:1030F0008D0A90918E0A911182609091E800977FDD
:103100009093E8008093F1001092F1008091E80024
:103110008E7794C1882309F482C1823009F092C16C
:103120008091930A811185C18091950A8F702FEF4C
:10313000280F263008F086C18093E9002091EB002B
:1031400020FF77C1933031F48091EB00806280934F
:10315000EB006FC19091EB0090619093EB0021E048
:1031600030E001C0220F8A95EAF72093EA0010921E
:10317000EA008091EB008860EACF811163C1109171
:10318000930A1F778091E3008078812B8093E3007E
:103190008091E800877F8093E8000E943907809142
:1031A000E80080FFFCCF8091E30080688093E3001B
:1031B00082E0111183E080938F0A44C180588230ED
:1031C00008F040C18091930A9091940A8C3D23E0CD
:1031D0009207A1F583E08A838AE289834FB7F89446
:1031E000DE01139620E03EE051E2E32FF0E0509341
:1031F0005700E49120FF03C0E295EF703F5FEF704E
:103200008E2F90E0EA30C0F0C7968D939D932F5F8C
:10321000243159F74FBF8091E800877F8093E80001
:103220006AE270E0CE0101960E94E5078091E80015
:103230008B778093E80006C1C096E7CF4091950A4E
:103240005091960A292F33272330310509F444C0C1
:1032500078F52130310509F46FC08BE390E0E0EFA1
:10326000FCE02230310509F0EDC02091E800277F15
:103270002093E8002091970A3091980A82179307CB
:1032800008F49C0140E02115310509F064C04111AA
:1032900062C08091E80082FDC9CF80918F0A8823A7
:1032A00029F2853019F28091E80083FFF2CFBECF7A
:1032B00021323105A9F12232310509F0C3C041158F
:1032C000510509F443C04130510509F0BBC08BE7FB
:1032D00090E0E5E3FCE0C9CF992781309105C1F08A
:1032E000009759F0029709F0ADC0EDE3FDE0E491DD
:1032F0008E2F90E0EDE3FDE007C0E1E6FDE0E49114
:103300008E2F90E0E1E6FDE0009709F49BC0ADCF81
:10331000EBE4FDE0E4918E2F90E0EBE4FDE0F4CFF0
:103320004115510571F04130510509F08BC089E01C
:1033300090E0EBE1FDE099CF82E190E0EBE2FDE08F
:1033400094CF89E090E0E2E0FDE08FCF80E490E070
:10335000E0EBFCE08ACF80918F0A882309F466CFE6
:10336000853009F463CF8091E80083FD5FCF8091C1
:10337000E80082FD8ECF8091E80080FF84CF90919D
:10338000F3008091F2002115310519F08830910584
:1033900050F041E0089709F040E08091E8008E7716
:1033A0008093E80070CF44914093F1003196215012
:1033B00031090196E8CF803809F044C08091E800D7
:1033C000877F8093E8008091900A8093F1009ECEE1
:1033D000811138C01091930A1230A0F58091E80055
:1033E000877F8093E8001093900A0E943907112389
:1033F00011F084E005C08091E30087FDFACF81E001
:1034000080938F0A42E061EC81E00E94580742E21B
:1034100061EC82E00E94580780918F0A13C080916E
:10342000930A813079F481E0933009F080E0809351
:103430008E0A1092E9008091E800877F8093E8006F
:103440000E9439078091E80083FF0AC08091E8005C
:10345000877F8093E8008091EB0080628093EB008F
:10346000AA96E3E00C9419300E945C172FEF84E3D6
:103470009CE0215080409040E1F700C0000088E1CE
:103480009AE00FB6F894A895809360000FBE9093D1
:103490006000FFCFA4E0B0E0E0E5FAE10C94FC2F7F
:1034A00040917B0950917C0960917D0970917E0962
:1034B0002FB7F89480917E0A90917F0AA091800A9C
:1034C000B091810A2FBF841B950BA60BB70B11E09F
:1034D00084369105A105B10590F10E94CF0E882395
:1034E00099F10E9455086E5F7F4F8F4F9F4F698300
:1034F0007A838B839C83809115019091160181586A
:10350000964F4091140150E04530510510F044E0D1
:1035100050E0BE016F5F7F4F0E94A83082E090E0D4
:103520000E94782F182F882351F00E94550860932D
:103530007B0970937C0980937D0990937E09812F8C
:103540002496E4E00C9418300E94550800919609E6
:10355000109197092091980930919909600F711F76
:10356000821F931FC0CFA8E0B0E0E9EBFAE10C9412
:10357000FE2F85E0EDEFF9E0DE01119601900D924E
:103580008A95E1F78091D0099091D109A091D20953
:103590008E839F83A8872885409191095091920935
:1035A00060919309709194093FB7F89480917E0AD5
:1035B00090917F0AA091800AB091810A3FBF841B3D
:1035C000950BA60BB70B84369105A105B10510F438
:1035D000222319F180911D0190911E018158964F6F
:1035E00040911C0150E04930510510F048E050E096
:1035F000BE016F5F7F4F0E94A83083E090E00E9481
:10360000782F882369F00E94550860939109709380
:10361000920980939309909394091092D20981E0C2
:103620002896E2E00C941A30EF92FF921F93CF930A
:10363000DF9300D000D000D0CDB7DEB77B0190E0A3
:1036400080E00E94782F182F882309F480C04091D1
:10365000070150E04115510511F041E050E0609143
:103660000801709109016158764FCE0106960E94BB
:10367000A83040917709509178096091790970914B
:103680007A092FB7F89480917E0A90917F0AA091D1
:10369000800AB091810A2FBF841B950BA60BB70B34
:1036A00084369105A105B10540F480E899E00E94B7
:1036B000D2069E81891709F44AC081E090E00E94F9
:1036C000782F811116C010E085E0E2E7F9E0D7011C
:1036D00001900D928A95E1F7812F26960FB6F89406
:1036E000DEBF0FBECDBFDF91CF911F91FF90EF9056
:1036F000089540910F0150E04630510510F045E02B
:1037000050E060911001709111016158764FCE0127
:1037100001960E94A83080E899E00E94D2069E811E
:103720008913D1CF0E945508609377097093780967
:103730008093790990937A0985E0FE013196A2E79A
:10374000B9E001900D928A95E1F711E0BDCF85E0D7
:10375000E0E8F9E0DE01119601900D928A95E1F71B
:103760001111EACFB1CFA2E1B0E0E9EBFBE10C949B
:10377000F32F8E010F5F1F4F8AE0D8011D928A95AB
:10378000E9F78FECC82E84E0D82EF12CE12CAA2486
:10379000A394B12C2BED822E24E0922EF601819180
:1037A0006F018F3F09F442C0F894E82FE295EF7063
:1037B000F0E021A18F70A50102C0440F551F8A952A
:1037C000E2F7CA01922F982B91A392A180958923A9
:1037D00082A3789400C0E4EDF4E0712C31E02191F3
:1037E0002F3F09F46BC0A22FA295AF70B0E0909666
:1037F0008C9190E02F7002C0959587952A95E2F7FD
:1038000080FD5CC0832F782A330F8E169F0639F710
:10381000F601319780818F3F11F00E94760950EABE
:103820005A95F1F7F801EE0DFF1D70828FEFE81A3F
:10383000F80AA5E0EA16F10409F0B0CF4AE050E03A
:10384000B8018AE999E00E949B30009741F02AE094
:10385000F801AAE9B9E001900D922A95E1F70091EB
:10386000A509892B69F181E0809369090E946108AB
:10387000909368098093670980916709909168091E
:103880000E944608059700F110E00355164F45E0E9
:1038900050E06AE979E0C8010E949B30D12C892B65
:1038A00051F085E0EAE9F9E0D80101900D928A959E
:1038B000E1F7DD24D3941092690907C080E0A3CF1B
:1038C000809169098111D8CFD12C0E94CF0EC82ECA
:1038D000E091A509882309F475C07E01BBE0EB0ED9
:1038E000F11C85E0D7011D928A95E9F70E2F10E0B3
:1038F0000355164F809195098A3090F544E15BE1BC
:10390000B701C8010E949C0E882309F44AC04AE40A
:103910005AE1B701C8010E949C0E882309F441C0F6
:1039200043EB5AE1B701C8010E949C0E8823C9F1FC
:10393000109295098091A40990E045E050E0B7010C
:103940008355964F0E949B3021E020937009892B6C
:10395000D9F4C12C8C2D8D296296EDE00C940F309A
:1039600080916A0990916B090E944608843F9140BA
:1039700028F680917009882361F385E0F7011192A0
:103980008A95E9F710927009A091A409B0E0A355B7
:10399000B64F85E0FE013B9601900D928A95E1F7C6
:1039A000D9CF809195098F3F31F08F5F8093950932
:1039B0008A3008F4BFCF0E94610890936B0980930E
:1039C0006A09D7CFF0E0E355F64F85E0A0E8B9E00B
:1039D00001900D928A95E1F780E899E00E94D20665
:1039E00080937F098090850990908609A09087092F
:1039F000B090880980916C0990916D09A0916E0931
:103A0000B0916F0988169906AA06BB06D1F080927C
:103A10006C0990926D09A0926E09B0926F090E9494
:103A2000CF0E81110EC00E945508861A970AA80A67
:103A3000B90A8092960990929709A0929809B0923B
:103A4000990988E0E9E8F9E0DE011B9601900D9202
:103A50008A95E1F780918909869500918A09F0900D
:103A60008B09E0908C091091900910929009112314
:103A700009F470CF10FF0BC02B859091FD0920FF3A
:103A80000FC091609093FD0960E00E94541011FFF7
:103A900061CF20E04E2D6F2D802F0E94160F5ACF40
:103AA0009E7F9093FD098091D20981608093D20915
:103AB0000E94670EECCF9091A90992FB222720F972
:103AC000281779F080FB92F99093A9096091A809D1
:103AD0007091A90984E090E00E94853082E00E9404
:103AE0008E0C089567EE7EEF90E080E00E948530B6
:103AF00060E082E090E00E94673060E083E090E068
:103B00000E946730109266091092650960E074E1C6
:103B100084E090E00E94853060E086E090E00E94C2
:103B200067306FEF87E090E00E94673040E050E040
:103B3000BA0188E090E00E94793060E08DE090E08A
:103B40000E94673040E050E0BA0188E190E00E94B6
:103B5000793060E087E190E00E94673040E050E01B
:103B6000BA018CE190E00E94793070E060E080E280
:103B700090E00E94853040E050E0BA0188E190E09A
:103B80000E94793040E050E0BA018FE090E00E945E
:103B9000793040E050E0BA0183E190E00E94793052
:103BA0000895B0E0A0E0E7EDFDE10C94F72F8C0163
:103BB000FC0183819481892B31F08081918189235B
:103BC0008F3F09F03FC6CDB7DEB7E9E00C94133064
:103BD000F801828181110BC0C435FCE7DF0709F4CD
:103BE0006CC040F5C3353CE7D30709F445C080916C
:103BF0006409C5302EE7D20709F438C108F000C1C6
:103C0000CC32D10509F41DC1C4309EE7D90709F4AF
:103C100024C1C337FCE7DF0709F053C1F8018281F3
:103C20008823C9F18091050A882309F447C10E94BD
:103C3000E61031C0C6358CE7D80709F44CC0C7354B
:103C40009CE7D907A1F6C0900001D0900101E09057
:103C5000A609F090A7090E945C1790E080E00E94FE
:103C6000770CC0EED8E0CC16DD0609F447C0CE01D3
:103C70000E94D11D2897F7CF0E945C1790E080E04A
:103C80000E94770C88EE94E09093E9088093E8080E
:103C900081E08093EA0880915B09877009F493CFF3
:103CA000F8018281882309F48ECF8091A90982FFCF
:103CB0008ACF82E00E948E0C86CF0E945C1790E033
:103CC00080E00E94770C80EE98E09093E908809362
:103CD000E80882E0DECFC0900201D0900301E090BE
:103CE000A609F090A7090E945C1790E080E00E946E
:103CF000770CC8EED4E0CC16DD0631F40E945C17D8
:103D0000C7010E94770CC7CFCE010E94D11D289613
:103D1000F2CF8091E8089091E908F4E0883E9F078F
:103D200029F0FC0138972281211105C090930301ED
:103D300080930201A8C5CF01F0CF8091E80890914F
:103D4000E90828E0803E920729F0FC01389622819C
:103D5000211105C0909301018093000194C5CF010A
:103D6000F0CF813031F1823009F041CF2091020152
:103D700030910301A091E808B091E908F80182812F
:103D8000811105C0F8E0A03EBF0709F430CFCD0196
:103D900008962817390709F42ACF88E0F80101901E
:103DA0000D928A95E1F78091E8089091E9080897CB
:103DB00022C02091000130910101A091E808B0914A
:103DC000E908F8018281811105C0F4E0A83EBF072F
:103DD00009F40DCFCD0108972817390709F407CF4B
:103DE00088E0F80101900D928A95E1F78091E8084A
:103DF0009091E90808969093E9088093E808F7CE37
:103E0000C730EEE7DE0709F441C0C8F1C8302EE73D
:103E1000D20709F0FECEF8019281992309F451C02E
:103E200060EF70E180E392E00E94060E80E30E9462
:103E3000651180E30E940B116BED70E180E392E06D
:103E400039C0982F9272E9F1F8018281882309F430
:103E500022CF8DE20E94FC111ECFF80182818823BF
:103E600009F419CF82E00E948E0C15CFF8019281DF
:103E7000992339F184E994E00E9411170CCFF801DD
:103E800092819923F1F083E994E0F6CFF8019281D1
:103E90009923B9F060EF70E18FE292E00E94060E84
:103EA0008FE20E9465118FE20E940B116BED70E1B1
:103EB0008FE292E00E94060E88E2CCCF0E94820B35
:103EC000EACEF090020AF82A8091050A811110C00A
:103ED000F2E2FF1202C00E94820BFE01E851FC4791
:103EE000E730F10508F053C0E75CFE4C0C944D3010
:103EF0000E94610888579C4E9093040A8093030A9D
:103F0000F8018281882349F38F2D8D7909F070C0E3
:103F1000C034F2E5DF0768F5C11522E5D207B8F530
:103F2000C11530E4D30750F4C11580E2D80708F07A
:103F300053C0C63ED10559F1CE010AC0C11590E566
:103F4000D907D0F7F8018581807F39F2CE01992712
:103F50001092080A8832910508F055C08E319105FB
:103F600008F058C0049708F443C082E08093080A20
:103F700051C0C43BE2E5DE0751F0CE01C53BF2E59E
:103F8000DF0720F58056924580349105A8F6F801A8
:103F90008281882309F48FC410929B0ACE01905726
:103FA000839708F073C484E090E00E94613090939E
:103FB000A9098093A809FE01E150F047E232F1051A
:103FC00008F050C0E05CFE4C0C944D30805C924593
:103FD000809708F0B1CFDBCFF8018581807F09F0B1
:103FE000B5CF8D2F8F71823159F028F4823041F096
:103FF0000E94E61072CF843109F46FCF8631C1F789
:104000001092080AF5CF8D32910509F4AECF28F44D
:104010008A9771F70E949E1060CF8C349105D1F37E
:104020008D329240B9F3E4CF26E241EE61EEC80151
:104030000E941A1230CE27E245EE65EEF8CF26E256
:1040400041EE60EEF4CF27E245EE64EEF0CF26E2DB
:1040500041EE62EEECCF27E245EE66EEE8CF28E2D5
:1040600041E0EBCF8091A80981608093A80995C0B9
:104070008091A90988608093A9098FC08091A809BF
:104080008260F3CF8091A8098460EFCF8091A80966
:104090008860EBCF8091A9098160EDCF8091A9095B
:1040A0008260E9CF8091A8098061DFCF8091A80963
:1040B0008062DBCF8091A8098064D7CF0E945C1713
:1040C0008091A8098068D1CF8091A8098C60CDCF5C
:1040D0008091A9098360CFCF8091A8098E7FC5CF39
:1040E0008091A909877FC7CF8091A8098D7FBDCF17
:1040F0008091A8098B7FB9CF8091A809877FB5CF20
:104100008091A9098E7FB7CF8091A9098D7FB3CF08
:104110008091A8098F7EA9CF8091A8098F7DA5CF16
:104120008091A8098F7BA1CF0E945C178091A8097C
:104130008F779BCF8091A809837F97CF8091A90922
:104140008C7F99CF8091A80982FB992790F921E073
:10415000922790FB82F990FB83F987CF8091A90980
:10416000982F909591708E7F892B90FB81F983CF4A
:104170009091A809892F8F7B96FF806476CF0E944B
:104180005C179091A809892F97FB87F980586DCF0C
:1041900061E08EE090E00E9467306091A809709124
:1041A000A90984E090E00E9485300E945C1773CDDD
:1041B00060E0EFCF9091A809892F8F7E94FF8061F6
:1041C00054CF9091A809892F8E7F90FF81604DCFA9
:1041D0009091A909892F877F93FF88604CCF85E351
:1041E00065C38091EB08811104C089E20E949D0B98
:1041F0005FC385E3FBCF8091FD0980FF15C08E7FF3
:104200008093FD096091FD097091FE098091FF097D
:104210009091000A0E94030F8091D20981608093DF
:10422000D2090E94670E37CD81608093FD0961E05D
:1042300086950E9454102FCD47E750E161E870E168
:104240000E94F60828CD41E850E167E770E1F8CF19
:104250004CE150E166E270E1F3CF46E250E16CE1FF
:1042600070E1EECF42E050E16FE070E1E9CF4FE066
:1042700050E162E070E1E4CF48EE5FE065EF7FE09F
:10428000DFCF45EF5FE068EE7FE0DACF40E350E15B
:1042900062E470E1D5CF42E450E160E370E1D0CF59
:1042A00061E081E0C6CFC330FCE7DF0709F470C0EE
:1042B00008F044C0C1153CE7D30709F44DC0C13034
:1042C000DC4709F46BC0F80186819781009709F4F7
:1042D00073C00E94ED09D82FC92FF801C280B580A4
:1042E000B2943FE0B32280915B098770C1F0EC2C5F
:1042F000CC20B1F0892F807F803421F080E28D0FB7
:10430000883068F08091A90982FF09C082E00E948C
:104310008E0C80915B098770EE24E3948111E12C6F
:10432000DC2ED2942FE0D222FBE0FD1508F4C2C0AF
:10433000ED2DF0E0EE59FE4C0C944D30CB359CE762
:10434000D907C1F1CC35ECE7DE0751F1CA35DC47BE
:1043500009F0B9CF81E02BC00E945C172FEF34E346
:104360008CE0215030408040E1F700C0000087E73A
:1043700097E7909301088093000888E19AE00FB6D0
:10438000F894A895809360000FBE90936000FFCFD3
:104390006FEF7FEF90E080E00E9485300E94341A3A
:1043A0008091A90982FB882780F991E089270E94E2
:1043B0005B1D89CF80E0FBCF8281C081D1818823C2
:1043C00069F0CE010E94CD0BF82E682FCE010E941D
:1043D000410CBE018F2D0E94D0097BCFCE010E94DF
:1043E0000E0CF82EF6CF2C2F2F70F22EC07F19F066
:1043F000F29490EFF922CC20B9F0FF2069F080E22E
:104400008D0F883010F0D11109C08091020AF82A6E
:10441000F092020A0E949E108D2F4AC08091080AD5
:10442000F82AF092080AF6CF8D2F0E940B11FF2078
:1044300009F440C080E28D0F883010F0D11104C023
:104440008F2D0E94960B06C0F0948091080AF822E6
:10445000F092080A0E949E102DC03C2F3F70F32E50
:10446000C07FC03219F0F29480EFF822DD2381F092
:10447000D13009F494C0CC2009F49EC0BB2009F4CB
:1044800094C0F801858180FFC7CF8F7085838DC070
:104490008091A90982FD37C0CC2079F1FF2039F045
:1044A0008091020AF82AF092020A0E949E1080E08F
:1044B0000E946511ED2DE850FF0B349710F40E9417
:1044C000F20EEE20A9F080915B0980FD11C0F80189
:1044D00012828595859585950E94AA0CC8010E9437
:1044E000D11D80915B098595859585950E947C0CF1
:1044F00060E0C8010E94D60D66CB80E00E940B11DF
:10450000FF20C1F29DCFCC2031F1B11006C08091C7
:1045100064098F290E940111CDCF91E0B9120AC020
:1045200082FFC8CF80916409F82AF81619F2F09238
:104530006409C0CFE2E0BE12EACF8F2D0E940111C4
:104540000E947C0B8091EC08F82AF81609F4B2CF8F
:10455000F092EC08AFCFB11006C00E947C0B8F2DFB
:104560000E94FA10A7CFF1E0BF120FC08091020A9B
:104570008F2109F49FCF8F2D0E94FA100E947C0B8F
:104580008091EC08F094F822E0CF22E0B21609F412
:1045900091CF8F2D0E94FA100E947C0B8BCFCC20E4
:1045A00031F032E03B1508F485CF8F2DB3CF81E099
:1045B0008B1508F47FCFD3CFBB2089F2D93349F4D0
:1045C000FFEF27EE33E0F15020403040E1F700C02C
:1045D00000008D2F0E940B116DCF8C2F8695869534
:1045E000837069F0813009F065CF8D2F9C2F937017
:1045F000C11002C080E090E00E946D085BCF8D2F5B
:104600009C2F9370C11002C080E090E00E9492083D
:1046100051CF6C2D8D2F0E94FE0C4CCF8C2F8370B0
:1046200009F03FC0C11046CF4D2F429546954770C7
:10463000440F440F2D2F2F7030E0042E02C0220FA4
:10464000331F0A94E2F790E080E0D4FF09C08FE0C6
:1046500090E002C0880F991F4A95E2F780959095E7
:10466000C695C695C370C23099F078F4409165093B
:1046700050916609C13039F0822B932B8423952306
:104680000E94C80C17CF242B352B822B932BF8CFED
:10469000822B932B209165093091660982279327FD
:1046A000EFCF8695CC2011F08C2F8170882309F4F0
:1046B00001CF4D2F429546954770440F440F2D2F43
:1046C0002F7030E0042E02C0220F331F0A94E2F74D
:1046D00090E080E0D4FF09C08FE090E002C0880F36
:1046E000991F4A95E2F780959095C695C695C37037
:1046F000C23099F078F44091A6095091A709C130D1
:1047000039F0822B932B842395230E94770CD2CEF1
:10471000242B352B822B932BF8CF822B932B20919C
:10472000A6093091A70982279327EFCFCF70CC201D
:1047300029F08C2F0E94AA0C8D2FECCE8D2F0E9479
:10474000FA108C2F0E947C0CB5CED23F71F160F430
:10475000D03FB9F0D13F81F0CC2009F463C0B11053
:104760005BCE8C2F8F7125C0D33F31F1D43FA1F7A1
:104770008091A90982FD2EC08C2F8F71CC2011F35E
:1047800018C0CC2069F081E08B1508F493CECF716E
:1047900081E090E002C0880F991FCA95E2F7BFCF71
:1047A00092E09B1508F486CEF2CF8C2F8F71C1104A
:1047B000C9CF0E94AA0C7ECE90E080E0CC2009F404
:1047C000A4CFCF7181E090E002C0880F991FCA95F5
:1047D000E2F79BCFCC20C9F080915B0987708430D1
:1047E00041F410925B098C2F8F710E947C0CE12C9C
:1047F00061CEE1E0EB15D8F3CF718C2F0E94AA0CAB
:1048000063E08C2F0E94BA0CF2CFF1E0FB1530F47C
:1048100010925B0964E08C2F8F71F4CF81E00E94CD
:104820008E0CE5CFBB2059F0D93309F0D2CE2FEF53
:1048300037EE83E0215030408040E1F7C8CE8C2F26
:104840008F7180CF61E0C8010E94D60DEC0180918C
:10485000EA08882309F4BCC99E0123553C4723304C
:10486000310508F07ECA91E0C535DC4709F490E0D7
:10487000F8012281291709F40ECA813009F449CAC6
:10488000823009F45ACA1092EA0805CAC631FCE718
:10489000DF0709F008CD8091020A8A7A91E009F4D5
:1048A00090E09093EB0881119ACC89E20E94AA0BC8
:1048B0000E949E10F0C9C6312CE7D20709F491CCB2
:1048C0008091020A8272FE01E052F847E531F1055B
:1048D00008F0F9CCE259FE4C0C944D30CF93DF93A5
:1048E00080911609807F09F049C0809113098823BF
:1048F00009F444C080915A09D091190960911109B5
:1049000070911209A0911409B0911509C62FC723FF
:10491000D817A1F190E0109711F0CF3F19F401964C
:104920008770F6CF9C0143E0220F331F4A95E1F7D1
:10493000F901E65EF64F41814713F1CF40814613FE
:10494000EECF42814111EBCF438154814A1B5B0B77
:10495000483C510520F7809116098F708061809343
:104960001609F901E15EF64F80818F7080618083C6
:1049700081E199E00E94D11D0E94C30BDF91CF918C
:104980000895A5E1B0E0E7ECF4E20C94F62F8C0179
:1049900085E0F801DE01519601900D928A95E1F7CC
:1049A000F801E28061E1A62E69E0B62E609114095B
:1049B000709115096115710509F45CC19091110997
:1049C00040911209892F84238F3F09F453C120811C
:1049D0003181C380D480F0901309F601E61BF70BF8
:1049E000FF2009F411C180911609582F507FE83C2F
:1049F000F10508F0C4C0511175C0FE2C43131EC050
:104A000092131CC06091170970911809F801468132
:104A100057816417750791F4E11010C08F708061A1
:104A200080931609C5010E94D11D80911609F801D5
:104A300085838F2D6596EAE00C941230C114D10461
:104A400029F0822F83238F3F09F02FC180E0F82FB8
:104A5000F170DF2E80FF3CC080915A094091190906
:104A6000841315C0298B3A8B89899A890E94010C7D
:104A7000292F22952F702230F8F0243020F59F70D6
:104A8000F9F0F8019581907FD9F4D12C1FC090E006
:104A9000FC0153E0EE0FFF1F5A95E1F7E65EF64F7B
:104AA0005181351306C05081251303C05281E51290
:104AB0000FC001968770D4CF9F7011F0882329F31F
:104AC000805E883010F3C8010E94D11DFD2CB1CF4B
:104AD000EE2009F4AECF809116098160809316090B
:104AE000F12CA7CF43131BC0921319C04091170993
:104AF00050911809F801268137814217530779F43C
:104B0000E1100DC08583C8010E94D11D88E0F80125
:104B1000A1E1B9E001900D928A95E1F78ACFC80131
:104B20000E94CD0C882339F1EE2029F180911609DD
:104B30008032A0F020911109309112093A8729871B
:104B40001B86DD86CC868E87809117099091180987
:104B5000988B8F87CE0109960E94D11D88E0F801BD
:104B6000A1E1B9E001900D928A95E1F70E946E24CF
:104B7000FF24F3945ECFC8010E94D11DF9CF5111DB
:104B80000AC081E199E00E94D11D88E0F5011192EF
:104B90008A95E9F7A5CF431318C0921316C0409128
:104BA000170950911809F8012681378142175307D8
:104BB00061F4E1100AC08583C8010E94D11D88E01C
:104BC000F50111928A95E9F734CFC8010E94CD0C06
:104BD000882389F2EE2079F280911609803208F458
:104BE000BDCF20911109309112093A8329831B828C
:104BF000DD82CC828E838091170990911809988765
:104C00008F83CE010196A8CFE83CF105C0F6FE2CBB
:104C1000EE2009F4B0CF43131FC092131DC02091A2
:104C2000170930911809F8018681978128173907EB
:104C300099F49091160990FD69CF907F09F466CFA1
:104C4000809116098583903F09F45DCF982F907F5E
:104C5000905F8F70892B56CFC8010E94CD0C8111B7
:104C60007DCF80911609816080931609C8010E944A
:104C7000D11DDFCEEE2009F47ECFC8010E94CD0CFD
:104C8000F82E882309F477CF88E0F801A1E1B9E094
:104C900001900D928A95E1F7809111099091120986
:104CA0000E94010C0E946E24C4CE81E08E25CFCEDE
:104CB000A0E1B0E0EEE5F6E20C94FE2F29873A87FA
:104CC0004B875C876D877E878F87988BCE0109968F
:104CD0000E94C124811112C088E0FE013996DE01D4
:104CE000119601900D928A95E1F78C859D85892B0F
:104CF00029F089859A8589238F3F81F580915A090A
:104D000090911909891317C06096E2E00C941A304B
:104D100093E0AA0FBB1F9A95E1F7A65EB64F98E005
:104D2000FE01319601900D929A95E1F78093190951
:104D30000E94C30BE3CFB8E08B9FC0011124865EB5
:104D4000964F0E94C1248823F9F280915A0990E07D
:104D500001968770992780935A09D0CFA09119099D
:104D6000B0E0CD0101968770992720915A09281744
:104D7000190671F60E945C171092190910925A09CF
:104D800088E0E1E1F9E0DF011D928A95E9F7B6CF0D
:104D90000F931F93CF93DF9380910A0AE091090A42
:104DA0001CE081111AC0DF91CF911F910F910895DE
:104DB00001E00E0F0093090ACE2FD0E0E19FF00131
:104DC0001124E55FF54F83819481892B29F080813F
:104DD000918189238F3FF9F4E02F80910A0AE81727
:104DE00038F310920A0A1092090ADDCF18968D91B5
:104DF0009C918F3F9807E1F061E00E9431131C9F66
:104E0000F0011D9FF00D1124E55FF54F1482138210
:104E10001092080AE1CF1C9FD0011D9FB00D1124F4
:104E2000A55FB54F16968D919C911797892BF1F23E
:104E3000208131814281538164817581868197818E
:104E40000E945826DCCF1092760A1092750A1092B2
:104E500091048091740A8093730A0E94E5080E946D
:104E6000C8260895B0E0A0E0E8E3F7E20C94EE2F46
:104E7000C091730AE7E0FE2E01E010E0FCE02F2E67
:104E8000AEEFEA2E8091740A8C1309C00E94C826E6
:104E90000E94E508CDB7DEB7E2E10C940A30D0E01D
:104EA000FE01EE0FFF1FE559F54F80819181F89EBD
:104EB000F001F99EF00D1124E35DFE4F24812111D4
:104EC00059C030900A0AABE0BAE030E020E0412C53
:104ED0005F01231508F04CC01A966D907C901B97CB
:104EE000F501808091804FEF5FEF512CC52CD12CC4
:104EF000F601EE0FFF1FE80DF91D6591749166161E
:104F0000770609F4A601672B11F05394EFCF4F3FBA
:104F10005407B9F1B80102C0660F771F4A95E2F74E
:104F2000462AA801052C02C0440F551F0A94E2F737
:104F3000415051094416150601F5229EF001239EA9
:104F4000F00D1124E55FF54FF89ED001F99EB00DEC
:104F50001124A35DBE4F12962D913C911397378378
:104F60002683E082E1829187808771E015967C93A9
:104F70000E94B7082196C37085CF14961C921E928A
:104F800013972F5F3F4F1C96A4CFA9E1B0E0EBEC45
:104F9000F7E20C94EE2F498B5A8B6B8B7C8B8D8BAD
:104FA00061111092080A1D861E861F86188A85E0E8
:104FB000FE017196DE01199601900D928A95E1F736
:104FC0008C859D85892B31F089859A8589238F3F32
:104FD00009F0C4C129853A854B855C856D857E8540
:104FE0008F8598890E945826C2C021E5A2162CE719
:104FF000B20629F4882379F00E942327EBCF32E50B
:10500000A3163CE7B30639F4882329F08091910474
:105010008111F2CFB3C10DE211E0E12CD12CC12CF2
:1050200088248394912C9EEF592E44244394F801B4
:105030006081718166246A94762C20E0422F50E0D2
:10504000FA01EE0FFF1FE60FF71F85919491A81646
:10505000B90609F43A01892B11F02F5FEFCFF12C3B
:10506000FFEF6F167F0609F444C0F8014481F09009
:1050700091048F2D411180E0F82FF170FF2EF8017F
:10508000258086819B85992309F4F2C0FF2009F4CD
:10509000EFC0211014C0A401062C01C0440F0A94D3
:1050A000EAF7842B86838091060A9091070AC297BB
:1050B00030F442E350E05093070A4093060AC401DB
:1050C00002C0880F991F2A95E2F70197F8012681FF
:1050D0002817190671F48091750A9091760A009745
:1050E00009F449C00E944608C39708F444C0F80177
:1050F0004482EF28FFEFCF1ADF0A095F1F4F2CE72A
:10510000C216D10409F093CF8B85882309F411C10D
:10511000EE2009F40EC10E9461089093760A8093F4
:10512000750A80910A0A883010F591E0980F9093E3
:105130000A0A98E0FE013996DE01119601900D925F
:105140009A95E1F73CE0839FC0011124855F954F5C
:1051500028E0FE013196DC0101900D922A95E1F7DD
:105160002FEF3FEFFC0131872087B386A286699637
:10517000E2E10C940A308091730A6090740A982FCF
:10518000F0E0E0E0861114C09093730A0E171F0739
:1051900009F4AFCF90E0FC01EE0FFF1FE559F54F8A
:1051A000D182C0820196837099278093740AA1CF1F
:1051B000282E312CF101EE0FFF1FE559F54F20810C
:1051C0003181F7E0F29FD001F39FB00D1124A35D70
:1051D000BE4F2D913C911197398F288F712C60E033
:1051E00070E0E72FF0E0EE0FFF1F288D398DE20F02
:1051F000F31F2591349121153105E1F0F80101905B
:10520000F081E02DFF8BEE8B60E005C024173507A1
:1052100009F47F2C6F5FE62FF0E0EE0FFF1F4E8941
:105220005F89E40FF51F459154914115510571F7C0
:105230007F5FD7CF7720C9F0F801671708F0FD012D
:1052400044820E171F0721F49093730AF72C51CF55
:10525000981305C0AE17BF0711F49F5F93709101BB
:105260002F5F3F4F822F83708DCFF0E0E0E0F7CFCC
:1052700090E0211020C0B40102C0660F771F2A956C
:10528000E2F79B01215031092817390731F44423F3
:1052900009F44DC0C6010E94B708C401062C01C024
:1052A000880F0A94EAF7982F9095F8018681892350
:1052B0008683F22C1ECF9C01062C02C035952795C3
:1052C0000A94E2F7A90141705527BC0161507109A8
:1052D00086239723892B39F5452B29F1F801828103
:1052E0009381892BD9F01B821C821D821E825982D8
:1052F0005A820E9461088160582F9D838C83F80137
:10530000828193818F83988729813A814B816D8136
:105310007E810E945826F8011582BFCF60E0C60149
:105320000E943113F8CFF22FF1702F2EB6CF2F2C11
:10533000B4CF9091730A8091740A981731F00E944B
:105340003227EE2009F446CE12CF0E94C8261092D2
:10535000760A1092750A0E94E508F3CF61E0CE014B
:1053600009960E94D60D5C018B85F0E5AF16FCE72F
:10537000BF0609F03ACE882309F44DCE81E0809330
:10538000910428CE1F920F920FB60F9211242F93E3
:105390003F934F935F936F937F938F939F93AF93BD
:1053A000BF93CF93DF93EF93FF93D091E900DF702A
:1053B0008091EC00C82FC17080FDC0E81092E90018
:1053C0008091F000877F8093F00078940E9483178B
:1053D0001092E9008091F00088608093F000CD2B5E
:1053E000CF70C093E900FF91EF91DF91CF91BF9112
:1053F000AF919F918F917F916F915F914F913F916D
:105400002F910F900FBE0F901F9018951F920F9223
:105410000FB60F9211242F933F934F935F936F9387
:105420007F938F939F93AF93BF93EF93FF9380915D
:10543000E10082FF09C08091E20082FF05C08091F7
:10544000E1008B7F8093E1008091DA0080FF24C02F
:105450008091D80080FF20C08091DA008E7F8093F9
:10546000DA008091D90080FF9DC080E189BD82E192
:1054700089BD09B400FEFDCF81E080938F0A809141
:10548000820A811109C00E94E9060E948A07809160
:10549000E20084608093E2008091E10080FF17C009
:1054A0008091E20080FF13C08091E2008E7F8093A4
:1054B000E2008091E20080618093E2008091D80058
:1054C00080628093D80019BC85E080938F0A809118
:1054D000E10084FF2BC08091E20084FF27C080E1BF
:1054E00089BD82E189BD89B5982F917080FFFBCF7E
:1054F0008091D8008F7D8093D8008091E1008F7ECD
:105500008093E1008091E2008F7E8093E2008091A1
:10551000E20081608093E2008091900A882309F480
:1055200047C084E080938F0A80918F0A8091E100C8
:1055300083FF27C08091E20083FF23C08091E100B8
:10554000877F8093E10082E080938F0A1092900A17
:105550008091E1008E7F8093E1008091E2008E7F58
:105560008093E2008091E20080618093E20042E05B
:1055700060E080E00E9458078091F000886080938E
:10558000F000FF91EF91BF91AF919F918F917F912B
:105590006F915F914F913F912F910F900FBE0F90A0
:1055A0001F90189519BC10928F0A1092820A74CF1E
:1055B0008091E30087FD93E090938F0AB5CF7894B4
:1055C0001F921FB61F9211248F939F93AF93BF9387
:1055D00080917E0A90917F0AA091800AB091810A01
:1055E0000196A11DB11D80937E0A90937F0AA0931E
:1055F000800AB093810ABF91AF919F918F911F90C4
:105600001FBE1F9018951F921FB61F9211248F93D3
:105610009F93AF93BF9380917D0A811113C08091B6
:105620007E0A90917F0AA091800AB091810A4196EA
:10563000A11DB11D80937E0A90937F0AA093800ADA
:10564000B093810ABF91AF919F918F911F901FBE20
:105650001F901895CDB7DEB760970FB6F894DEBFF0
:105660000FBECDBF85B7806885BF85B7806885BF11
:1056700084B7877F84BF0FB6F894A89580916000A7
:10568000886180936000109260000FBE80E890E017
:105690000FB6F89480936100909361000FBE84E789
:1056A00099E09093DF048093DE040E94E9060E9453
:1056B0008A078091E20084608093E2007894809170
:1056C0008F0A8823A1F01091E9001F709091EC00DF
:1056D000892F817090FD80E8182B1092E90080914D
:1056E000E80083FD0E9483171F701093E90082E099
:1056F00084BD93E095BD9AEF97BD80936E001092A4
:1057000096091092970910929809109299090E948F
:10571000CF0E809324010E94CF0E81110E948C2E07
:10572000809124018091240195E0811190E0909373
:10573000A50985E0891B8093A4090FEC14E0D8012A
:105740008D918D018F3F11F00E947609B4E0043DE8
:105750001B07A9F704ED14E05BEDE52E54E0F52EF0
:10576000F80181918F018F3F11F00E947609E016B8
:10577000F106B1F78AE0EDEAF9E0DF01282F1D928A
:105780002A95E9F7EAE9F9E0DF011D928A95E9F740
:1057900090E080E00E946130873E9E4F11F00E94B1
:1057A000721D82E090E00E9453308093B70984E03C
:1057B00090E00E9461309093A9098093A80983E04A
:1057C00090E00E94533090E00E94C80C8091AA099A
:1057D000811139C090E080E00E946130873E9E4F89
:1057E00021F00E94721D0E94861088E090E00E94C5
:1057F0005B306093FD097093FE098093FF099093DD
:10580000000A8091D20983608093D2096E7F71F47F
:105810000E94861088E090E00E945B306093FD0952
:105820007093FE098093FF099093000A0E94FC0880
:105830008091FD0980FF04C060E086950E945410AD
:1058400081E08093AA090E94CF0E811102C00E94BC
:105850008F2E85E291E090937A0A8093790A08E18D
:1058600010E040E4E42EFF24F39430E1D32E809145
:105870008F0A22E1C22E853009F481C00E94B31B39
:1058800088EBA82E89E0B82E9DEA892E99E0992E02
:10589000D401F50191918D9149E0E23CF40709F4BE
:1058A00078C09817B9F30E94CF0E382EC12CD401BE
:1058B0007D904D01F50141905F01471429F1472486
:1058C000612C55245394842D8521B1F03320A1F00F
:1058D0006C86CD8691E0872D852109F490E09E8726
:1058E0000E9461088160782F988B8F874C855D8539
:1058F0006E8588890E94C5276394550CF7E06F1266
:10590000E2CFF50131977082C3942AE0C212CFCF63
:105910000E9455085EC080918F0A843009F1109270
:105920007D0A0FB6F894A895009360000FBEE09230
:10593000600083B7817F846083BF83B7816083BF4A
:105940007894889583B78E7F83BF0FB6F894A89517
:1059500080916000886180936000109260000FBEAB
:1059600080918E0A882359F00E94B31BEDEAF9E07A
:105970008191811159C129E0E73BF207C9F7809174
:105980008F0A853009F4C7CF0E945C170E94F20E7F
:1059900075CF981388CF0E9461085C018091AB0994
:1059A0009091AC09A816B906A1F08FEF8F83888774
:1059B00019860E9461088160782F9B878A874F81B2
:1059C000588569858B850E94C527B092AC09A09245
:1059D000AB090E94CF0E8823A9F1809191048823FE
:1059E00001F18091750A9091760A0097D1F00E949A
:1059F00046082091060A3091070A2817390788F4CB
:105A00009091730A8091740A981709F4F8C00E9463
:105A100032271092070A1092060A1092760A109204
:105A2000750A8091050A882369F00E946108209117
:105A3000030A3091040A821B930B8F3F9F4710F497
:105A40000E94E61086E0EAECF9E0DE011196019092
:105A50000D928A95E1F71092CC091092CD0910921F
:105A6000CE091092CF098B819C81892B09F44AC001
:105A70008091C8099091C9090E9446089C019091A3
:105A8000C309992309F4EBC025313105D8F19F3FB3
:105A900019F09F5F9093C309CB80CC2059F00E94EE
:105AA00054099FEF1C140CF491E0899F802D112460
:105AB0008093CC09CC80CC2059F00E9454099FEFF0
:105AC0001C140CF491E0899F802D11248093CD0942
:105AD0003091CC093323B1F02091CD09222391F0EC
